:100000000C9444000C946C000C946C000C946C00E8
:100010000C946C000C946C000C946C000C946C00B0
:100020000C946C000C94900F0C946C000C946C006D
:100030000C946C000C94B20B0C946C000C946C003F
:100040000C946C000C946C000C946C000C946C0080
:100050000C946C000C946C000C946C000C946C0070
:100060000C946C000C946C00000000000000001F59
:100070001F1F1F1F1F1F3E6733323E3E6333320078
:10008000DE077B10E3077C1011241FBECFEFD8E002
:10009000DEBFCDBF11E0A0E0B1E0E2ECFFE202C0C4
:1000A00005900D92A035B107D9F721E0A0E5B1E0A8
:1000B00001C01D92A63DB207E1F710E0C4E8D0E010
:1000C00004C02297FE010E947116C038D107C9F7FB
:1000D0000E9468070C94D4170C940000FC018081E6
:1000E00090E08330910514F08FEF9FEF8F5F90E0E9
:1000F0008330910511F48FEF9FEF8F5F0895FC011E
:100100001282148213828FEF83871682158284876E
:100110001086178285871286118686878787118ABF
:10012000108A0895EF92FF920F931F93CF93DF935E
:100130007C01C0E0D0E0F701EC0FFD1F03811481CA
:100140000115110531F0C8010E949200C8010E94FA
:100150001C172296C830D10571F7DF91CF911F91FE
:100160000F91FF90EF900895EF92FF920F931F93DE
:10017000CF93DF931F92CDB7DEB77C018B0185E073
:1001800090E049830E948416FC01D7018D919C91D7
:100190001197118300839383828349814483ED9374
:1001A000FC930F90DF91CF911F910F91FF90EF90F3
:1001B0000895CF93DF93FC01C081D181209711F482
:1001C00082E009C02A813B81FC0131832083CE017A
:1001D0000E941C178C81DF91CF910895DC01ED9175
:1001E000FC91309719F480E090E00895808191812E
:1001F000089560E088E690E00E94D40C61E089E612
:1002000090E00E94D40C62E08AE690E00E94D40C58
:1002100063E08BE690E00E94D40C64E08CE690E012
:100220000E94D40C65E08DE690E00E94D40C66E05C
:100230008EE690E00E94D40C0C94540DCF92DF9285
:10024000EF92FF920F931F93CF93DF93CDB7DEB75B
:100250002A970FB6F894DEBF0FBECDBF7C018BE3AB
:1002600091E00E946B0D8701D12C8AE0C82E95E6A3
:10027000E92EF12CE1E3F1E0DE0111968C2D0190E5
:100280000D928A95E1F7F801819191918F01B70163
:100290000E94C41581E090E08C0F9D1F680F791FAC
:1002A000FB0180810E94D70CD394F5E0DF12E2CFEE
:1002B0002A960FB6F894DEBF0FBECDBFDF91CF9167
:1002C0001F910F91FF90EF90DF90CF900895FC0168
:1002D0008081DB013C91918111962C91381714F4A7
:1002E000831B02C0381B832F291714F4921B02C0F2
:1002F000291B922F890F0895CF93DF93C0E0D0E0A0
:100300000E943B108C0F9D1FFC0160817181CE010A
:10031000805090400E94B1170E9440108C0F9D1F8A
:10032000FC0160817181CE01865F9F4F0E94B117F1
:100330002296CA30D10521F7DF91CF910895CF934E
:10034000DF9388EE93E00E94D80FCCEEDFEFC83247
:10035000D10528F068ED7FEF88E290E004C068E204
:1003600070E088ED9FEF0E94F50E81E00E942C1056
:1003700084E190E00E94D80F2196CC33D10539F763
:1003800060E070E080E090E00E94F50EDF91CF9198
:100390000C947C010F931F93CF93DF9381E00E9415
:1003A0002C10C0E0D0E00E943B108C010C0F1D1FF0
:1003B000CE01805090400E94AB17F801918380835A
:1003C0000E9440108C010C0F1D1FCE01865F9F4FB5
:1003D0000E94AB17F801918380832296CA30D10521
:1003E00011F7DF91CF911F910F91089580ED97E064
:1003F0000E9477100E94F9000E94F9000E94CA0131
:1004000086E790E00E94110C1092CE011092D0016C
:100410001092CF011092D10182E08093CD01109211
:10042000CB011092CC011092C4018CE38093C301E4
:10043000089560E070E080E090E00C94F50ECF93BA
:10044000DF93CDB7DEB72A970FB6F894DEBF0FBEA5
:10045000CDBF813061F170F0823009F05DC068ED90
:100460007FEF88E290E00E94F50E8CEB92E00E9414
:10047000D80F34C068E270E088ED9FEF0E94F50E5F
:1004800084E690E00E94D80F61E0CE0101960E94C0
:1004900032108D819E81843F9140B0F38091CD01D7
:1004A00090E0009711F484E090E0815033C068ED53
:1004B0007FEF88E290E00E94F50E84E690E00E94D3
:1004C000D80F61E0CE0101960E9432108D819E818D
:1004D000843F9140B0F38091CD0115C061E0CE0121
:1004E00001960E9432108D819E81843F9140B0F32D
:1004F0000E9419028091CD0190E08330910511F4A2
:100500008FEF9FEF8F5F90E08330910511F48FEFB5
:100510009FEF8F5F8093CD010E9419022A960FB63C
:10052000F894DEBF0FBECDBFDF91CF910895CF937A
:10053000C82F8091CD01282F30E0233031050CF0F9
:100540008FEF8F5F8C1302C081E011C02115310540
:1005500011F424E030E021502C1302C080E007C0E9
:100560008DEC91E00E946E008C1304C082E0CF916C
:100570000C941F02CF9108952F923F924F925F9259
:100580006F927F928F929F92AF92BF92CF92DF92A3
:10059000EF92FF920F931F93CF93DF93CDB7DEB708
:1005A0002A970FB6F894DEBF0FBECDBF0E9412107F
:1005B0004B015C01C12CD12C7601212C312C24E182
:1005C000422E512C30E1632E37E2732E61E0CE01D2
:1005D00001960E9432108C010C561740C801AA27C0
:1005E00097FDA095BA2FC80ED91EEA1EFB1E9801D2
:1005F00022193309C801B2010E94D815260F371FEE
:10060000C69CA001C79C500DD69C500D1124809112
:10061000C301992787FD9095240F351F82179307F3
:100620000CF49C0144275527481B590B2417350708
:100630000CF49A01BC0137FF03C0820F931F02C064
:10064000621B730B0E94F50E8B819C818E3591404D
:10065000E8F48D819E818E359140C0F48F8198851C
:100660008E35914098F41092D0011092CF011092E3
:10067000D10168E270E088E290E00E94F50E88E225
:1006800090E00E94D80F0E9419027FC089819A8150
:100690008F35914038F489859A858F35914010F4D3
:1006A000180194CF68E270E088E290E00E94F50EB5
:1006B00082E390E00E94D80F61E0CE0101960E9493
:1006C000321021E089819A81853F914008F420E031
:1006D0002093D00121E089859A85853F914008F4D7
:1006E00020E02093CF0168E270E088E290E00E9471
:1006F000F50E88EC90E00E94D80F0E94190261E08C
:10070000CE0101960E94321029813A818B819C8111
:100710002F35314020F18F3521E0920700F12D81F6
:100720003E812F353140D8F02F8138852F3531402B
:10073000B0F029853A852F35314088F04AE064E6EB
:1007400070E084EC99E00E94080A81E08093CE0179
:100750001092D0011092CF011092D10116C01092C8
:10076000CE018F35914070F48D819E818F359140FF
:1007700048F421E08F8198858F35914008F420E07E
:10078000822F01C081E08093D1010E94121068196C
:1007900079098A099B098B019C01025311092109DE
:1007A0003109013213402105310518F18B019C01FB
:1007B0000355134021093109023C1140210531053F
:1007C000D0F08B019C0105511540210931090632F9
:1007D00012402105310588F0DC01CB018B53974095
:1007E000A109B10982359340A105B10540F484E027
:1007F00007C081E005C082E003C083E001C080E063
:100800002A960FB6F894DEBF0FBECDBFDF91CF9111
:100810001F910F91FF90EF90DF90CF90BF90AF901E
:100820009F908F907F906F905F904F903F902F9010
:1008300008951092C4010E94BC029091C401980FC7
:100840009093C4012091CD01213099F060F02230C5
:1008500031F0233099F42091CB01281B0DC0209159
:10086000CC01280F03C02091CC01281B2093CC0180
:1008700005C02091CB01280F2093CB018091D0019E
:100880002091CF01882339F0211105C08091D10139
:1008900081110DC009C0222351F0811108C080913F
:1008A000D101811104C081E00E941F02C4CF892FB1
:1008B0000895CF93DF93EC012889398921153105FB
:1008C000B9F0FE0180E0438154814115510519F0D2
:1008D0004217530729F08F5F32968430A1F7F1CF8A
:1008E0000E9497020E9419040888D989C02DE4CF7C
:1008F000DF91CF9108956F927F928F929F92AF92E6
:10090000BF92CF92DF92EF92FF920F931F93CF93FC
:10091000DF93CDB7DEB7C25AD1090FB6F894DEBF68
:100920000FBECDBFFC01178664969FAF8EAF649754
:10093000A12CBB24B3941B142CF464960EAD1FADF4
:10094000649702C000E010E0E090C701F090C80199
:10095000B701C8010E946701F8016784680E9E0113
:100960002E5A3F4F4901712C7B148CF4F401C19035
:10097000D1904F01B701C6010E946701F60197852A
:10098000980F96150CF0680173948601EDCFF8016D
:1009900090818181FE01EE5AFF4F60E06B155CF49F
:1009A000A191B1912C91291304C011962C91281773
:1009B00011F06F5FF3CFE62FEE0FFF0B22E530E073
:1009C0002C0F3D1FE20FF31F7081A1816B117AC0C4
:1009D000612C712C37E23A1564F0AA2DAA0FBB0BDB
:1009E00041E050E04C0F5D1FA40FB51F6D927C924B
:1009F000A3946E147F04C1F4C701CE55DF4F0FB628
:100A0000F894DEBF0FBECDBFDF91CF911F910F9144
:100A1000FF90EF90DF90CF90BF90AF909F908F901E
:100A20007F906F900C945904B30120E030E0FB01FB
:100A3000A381B4811097D9F1CE01019610E0FC0199
:100A400041915191CF01A417B50789F11F5F1A1584
:100A5000B4F3CE018E5A9F4F10E01B1554F4FC01E5
:100A600041915191CF01A417B50709F454C01F5FFC
:100A7000F4CF47E24B156CF08B2D880F990B42E5B4
:100A800050E04C0F5D1F840F951FFC01B183A083C4
:100A9000B39451967C926E925097C301820F931F2C
:100AA000FC018385F3019785890F1F968C932F5F37
:100AB0003F4F6E5F7F4F2430310509F0B8CFB11042
:100AC0003ACF9ACF8B2D992787FD90950197262FA6
:100AD000332727FD309528173907CCF4F9013196D3
:100AE000EE0FFF1F42E550E04C0F5D1FE40FF51FB6
:100AF00040815181F901EE0FFF1F22E530E02C0FFC
:100B00003D1FE20FF31F518340836F5FE0CFBA9424
:100B1000672E7A2E5FCFC301820F931FFC010385DE
:100B2000F3018785080FDC901196CC901197BB20BC
:100B3000D9F010E0812F992787FD90951B1524F59A
:100B4000AC01440F551FE2E5F0E0EC0FFD1F4E0F26
:100B50005F1FFA0140815181FA0190809D1012C0FF
:100B600041814C110FC010C040E050E0FA01878570
:100B700008170CF09CCF51967C926E9250971F965E
:100B80000C9395CF1F5FD6CF880F991F42E550E099
:100B90004C0F5D1F840F951FFC01D08081811B15B8
:100BA00019F34D2D582FE2CF4F925F926F927F92A3
:100BB0008F929F92AF92BF92CF92DF92EF92FF926D
:100BC0000F931F93CF93DF93CDB7DEB7C556D109EF
:100BD0000FB6F894DEBF0FBECDBF0E94850F82E036
:100BE0008093CD011092CB011092CC010091C701EE
:100BF0001091C8010115110531F0C8010E94920041
:100C0000C8010E941C1782E190E00E9484168C01AA
:100C10000E947F001093C8010093C7018091CC010E
:100C20009091CB01D8019C9311968C9382E190E036
:100C30000E9484168C010E947F006091C701709110
:100C4000C801FB011087078381E082837A8369836F
:100C500042E089EC91E00E94B400A12CB12C8824E0
:100C600083948091C9019091CA01892B11F58DEC73
:100C700091E00E946E000E94970286E790E00E9439
:100C8000110CCB59DF4F0FB6F894DEBF0FBECDBFAE
:100C9000DF91CF911F910F91FF90EF90DF90CF9058
:100CA000BF90AF909F908F907F906F905F904F908C
:100CB000089589EC91E00E94EE006C01FC0103E0D4
:100CC000E02EF12CA185B285109721F012968C911F
:100CD000882341F081E0E81AF10832979FEFE91686
:100CE000F90681F78091CE01882321F0D092C601C8
:100CF000C092C5011092CE01AFEFEA16FA0689F450
:100D000089EC91E00E94D900A6968FAFA697CE01FC
:100D10008B599F4F0E946E000E9497020E941904F7
:100D2000A0CF8E2D0E9497020E941904982E209128
:100D3000CB013091CC01FE01319680E090E0019131
:100D40001191D8014C914213BDC011964C9143139F
:100D5000B9C00115110509F06CC086E790E00E944A
:100D6000110C82E190E00E9484168C010E947F00A9
:100D70008091CC019091CB01F80190838183809187
:100D8000D0018823B1F082E190E00E9484163C01FA
:100D90000E947F008091CD0190E0009711F484E0E3
:100DA00090E08150F801E80FF11DE80FF11D748209
:100DB00063828091CF018823B9F082E190E00E94A4
:100DC00084163C010E947F008091CD0190E0833029
:100DD000910514F08FEF9FEF8F5FF801E80FF11D81
:100DE000E80FF11D748263828091D101882381F024
:100DF00082E190E00E9484163C010E947F00809175
:100E0000CD01F801E80FF11DE80FF11D7482638236
:100E1000D80112968C92BFEFAB1ABB0AF501EE0F08
:100E2000FF1F81E090E08C0F9D1FE80FF91F1183D9
:100E300000832701440C551CF601E40DF51D638069
:100E400074806114710431F0C3010E949200C301E7
:100E50000E941C17F601E40DF51D14830383F601AF
:100E6000EE0DFF1D93868DEC91E00E946E00F8015F
:100E7000E80FF11DE80FF11DE380F480E114F104A7
:100E800031F0C7010E949200C7010E941C178DEC2F
:100E900091E00E946E00F801E80FF11DE80FF11DCE
:100EA000D482C3828DEC91E00E946E00F801E80FBD
:100EB000F11D93864091CD01B80189EC91E00E942B
:100EC000B400CFCE0196A816B9060CF038CF45CFA6
:100ED000CF93DF93CDB7DEB72A970FB6F894DEBF76
:100EE0000FBECDBF0E94F60114E60CE30E94540D24
:100EF0008BE391E00E946B0D0E94DF08BC0180E053
:100F000090E00E94C80D8DE391E00E946B0D84E19A
:100F100090E00E94D80F82E00E94660F882319F0AB
:100F20000E949F01E3CF80E10E94660F8823F1F0C9
:100F30000E94D4050E94540D80E491E00E946B0D44
:100F400061E080E00E94EB0D86E491E00E946B0D71
:100F500080E10E94520F1093C3018091C5019091CE
:100F6000C6010E947B040093C301C0CF80E20E94AF
:100F7000660F882309F4BACF61E0CE0101960E9482
:100F800032108C010E94540D8BE391E00E946B0D96
:100F9000B80180E090E00E94C80D8BE391E00E94D0
:100FA0006B0D61E080E00E94EB0DCE0101960E9486
:100FB0001E0184E690E00E94D80FDECF1092CA0195
:100FC0001092C90108958091C9019091CA01892B9D
:100FD00029F089EC91E00E94D900F5CF089588238B
:100FE00021F480917C008F7D03C080917C00806221
:100FF00080937C00089580917C0090E025E0959599
:1010000087952A95E1F78170089580917A0090E0A4
:1010100036E0959587953A95E1F7817008950E949D
:10102000FB07882321F02091790030E004C0209153
:10103000780030917900C90108958032B0F497E8C2
:1010400090937A0090917C00292F2064662311F000
:10105000906C02C0922F9F77907E982B90937C008B
:1010600080917A00806480937A000895A0E0B0E0D7
:10107000ECE3F8E00C9442166B0160E00E941D085E
:101080000E9405088823E1F7E601EE24FF2487018A
:1010900080917A00806480937A000E9405088823FA
:1010A000E1F70E940F08A0E0B0E0E80EF91E0A1F69
:1010B0001B1F219769F7C6019695879520E4C216F4
:1010C000D10440F48E0D9F1D6C2D70E00E94C4155C
:1010D000CB010DC0BC0180E090E06E0D7F1D801F34
:1010E000911F960140E050E00E94EC15C901CDB778
:1010F000DEB7E8E00C945E16A3E0B0E0E2E8F8E0CA
:101100000C944716BC0180E090E0209100013091E2
:10111000010140E050E00E94A815182F69837A83EE
:101120009B830E94FB0769817A819B81882371F0F0
:101130009B01412F592FCA01B90161587F4F8F4F31
:101140009F4F2FEF30E040E050E00DC09B01412F5A
:10115000592FCA01B90161507E4F8F4F9F4F2FEF1A
:1011600033E040E050E00E94EC15C9012396E3E033
:101170000C9463160E9436080E947C0808951F9301
:10118000CF93DF930E94FB07182F80E00E94EF07A8
:1011900086E06AE070E00E94BA08EC01812F0E94AC
:1011A000EF079E01220F331F2C0F3D1F2F5F3F4F74
:1011B00036952795C901DF91CF911F9108950E941F
:1011C000BF08089590915501E0915101F0915201AD
:1011D000992311F0849101C08081282F21542A3154
:1011E00010F4805E0895803271F4209151013091A5
:1011F0005201A9014F5F5F4F50935201409351013B
:101200002115310509F70895EF92FF92CF93DF93EF
:101210000E94E208C0E0D0E01BC09E01220F331FF5
:1012200093E0CC0FDD1F9A95E1F7C20FD31F9927EA
:1012300087FD9095C80FD91FE0978091510190913B
:101240005201019690935201809351010E94E2084D
:10125000982F90539A3008F3CE01DF91CF91FF90F1
:10126000EF90089510926F0083E28093800081E1F7
:10127000809381001092820080E197E29093890030
:101280008093880010928B0010928A00229A7894A2
:10129000089580915001882329F481E080935001C2
:1012A0000E9432090895A0E0B0E0E9E5F9E00C946D
:1012B0003E168C015B01E42E0E9449091092020146
:1012C00017FF04C01F77AAE0FA2E02C0FF24F39490
:1012D000C0908100DD2428EFC222DD2488EC3F2D60
:1012E000389FC001112480179107D8F4E80167E204
:1012F0000131160710F0C0E1D7E2BE01769567957F
:1013000080E090E06058794687469F4F9E0140E01C
:1013100050E00E94EC15890181E090E0C82AD92AAA
:101320002CC098E2F99E902D112480E0892EE401D2
:101330004E01982EE4018016910608F4E801BE01E2
:10134000769567959E0140E050E08F2D8A3039F404
:1013500080E090E0605E734481449F4F06C080E06F
:1013600090E060537D4E8C4E9F4F0E94EC1589019A
:1013700052E0852E912CC828D9282F2D2A3039F4F7
:10138000CE0105966AE070E00E94C415EB0133E0DF
:10139000C83ED30779F0BE0180E090E0950140E0BF
:1013A00050E00E94A81528EE33E040E050E00E9493
:1013B0000E1601C0950110926F00C092810010932B
:1013C00089000093880040918800509189006E2D1B
:1013D000603108F06FE080E190E0861B9109BA016E
:1013E00002C0769567958A95E2F770938B006093BB
:1013F0008A00309358012093570186B38FEF86BB44
:1014000081E080936F00CDB7DEB7ECE00C945A1604
:101410000E94530908959B018F3F11F0442329F442
:1014200088EE93E0B90140E049C0813130F0582F97
:101430005051503618F05FE501C050E0852F6CE048
:101440000E94B815A82FB0E0E4EFFFEFAE9FB00107
:10145000AF9F700DBE9F700D1124650F711D6C3014
:10146000710540F4FB01EE0FFF1FE45FFE4F60814A
:10147000718102C060E070E0873081F0082E02C008
:10148000660F771F0A94E2F7823028F0CB010596A9
:101490006AE070E00CC0605070480BC0CB01B6E051
:1014A000880F991FBA95E1F7029665E070E00E94F7
:1014B000C415403108F04FE0CB01B9010E94530937
:1014C0000895A0E0B0E0E7E6FAE00C943D16B09095
:1014D000030180915301882361F0609154016623D8
:1014E00041F08FEF70E040E00E940B0A109254012F
:1014F00034C1C0ECDDE5AA24A39414E0712E00ED04
:1015000017E0B4E0EB2EF12CA4EFCA2EA1E0DA2E06
:10151000FFE08F2E912C0E94E20820915101309122
:1015200052012F5F3F4F3093520120935101863675
:10153000F1F18736CCF4823609F4AFC083367CF4FF
:101540008E3349F18F333CF4813209F487C08C33F8
:1015500009F09BC022C0813609F097C09BC0843639
:1015600001F185360CF51BC08F3609F447C0803772
:1015700044F48C3611F18D3661F1873609F085C05F
:1015800019C0843709F444C0863709F460C0823733
:1015900009F07BC039C0B394BECFBA94BCCFEE245F
:1015A00035C0EE2482E07BC0EE2484E078C0EE24D7
:1015B00085E075C0EE2487E072C00E940409BC017A
:1015C0009093050180930401809106019091070199
:1015D00037C00E94E2088C3619F41092530104C0FF
:1015E000A0925301109254018091510190915201A7
:1015F000019690935201809351018DCF0E9404096E
:10160000B82E8093030187CFEE24E39480E047C097
:101610000E940409BC01CE010E94C415CB01880FB1
:10162000991F53E0660F771F5A95E1F7860F971FB2
:101630009093070180930601609104017091050168
:101640000E94C415709309016093080164CF0E9441
:10165000040990930B0180930A015DCF70920301FE
:101660001093070100930601F0920501E092040136
:10167000D0920901C092080190920B0180920A0158
:101680001092530144E0B42E46CF109252011092B2
:10169000510163C0EE2489E002C0EE248BE09CE09F
:1016A000B99EB02C1124B80E0E94E2088B3211F0C2
:1016B0008332B9F480915101909152010196909337
:1016C000520180935101B394EFCF809151019091D9
:1016D000520101969093520180935101BA940E9455
:1016E000E2088D3291F3C0910801D0910901815334
:1016F000883058F4C0910601D09107010E94040976
:10170000BC01CE010E94C415EB018E010BC080917B
:101710005101909152010196909352018093510191
:10172000C00FD11F169507950E94E2088E3279F3FB
:1017300080915301882339F0CE0196958795809347
:101740005401C81BD109EE2011F0BB24BA948B2D93
:10175000BE0140910A010E940B0ACDB7DEB7EDE051
:101760000C9459161F920F920FB60F9211242F93BB
:101770003F934F935F936F937F938F939F93AF9319
:10178000BF93EF93FF9380915701909158019C0173
:10179000215030403093580120935701009711F5A4
:1017A00010926F00789480918100887F816080938F
:1017B000810080E197E290938900809388001092E5
:1017C0008B0010928A0081E0809302018091510188
:1017D00090915201009731F080915601882311F4C5
:1017E0000E94610AFF91EF91BF91AF919F918F91FC
:1017F0007F916F915F914F913F912F910F900FBE0D
:101800000F901F90189510926F0090935201809343
:10181000510181E080935501109254010E94610AA8
:1018200008950E94030C089581E090E06F9364E0B6
:101830006A95F1F76F910197C9F708950F931F9378
:10184000CF93DF931AB157985A98289AC0E0D0E006
:101850000E94140C5C9A0E94140C09B15C980E94BE
:10186000140C5C9A0E94140C5C9807FF11C024961B
:101870009E0140E050E080915D0190915E01A09159
:101880005F01B0916001281739074A075B0700F331
:101890001AB9DF91CF911F910F91089565B190E032
:1018A000AC0141705070440F551F9C012670307080
:1018B00053E0220F331F5A95E1F7242B6D7C262B22
:1018C00025B92BB18870907034E0880F991F3A9534
:1018D000E1F72F77282B2BB95C9A0E94140C5C98A7
:1018E0000E94140C0895A2E0B0E0E9E7FCE00C943B
:1018F0004316182F4A8369830E941E0D0E941E0CF6
:10190000F4B005B1DAB0EBB0289869814A8166235A
:1019100011F05A9A01C05A9884B1826384B9579AD7
:10192000413029F0812F82958F700E944E0C812FBB
:101930008F700E944E0CDAB8EBB8F4B805B9229655
:10194000E7E00C945F1660E042E00E94730C08959B
:1019500061E042E00E94730C0895EF92FF921F93A2
:10196000DF93CF930F92CDB7DEB7660F660F660F8A
:10197000482F592F7A0110E0812F860F80646983E8
:101980000E94A30CF70184910E94A80C1F5F089489
:10199000E11CF11C6981183079F70F90CF91DF912C
:1019A0001F91FF90EF9008950E94AD0C08950E9442
:1019B000A80C089560E041E00E94730C089580E156
:1019C00097E2A0E0B0E080935D0190935E01A09368
:1019D0005F01B0936001529A209A549A8EE190E090
:1019E0000E94D80F83E00E94DA0C86E090E00E940B
:1019F000D80F83E00E94DA0C82E090E00E94D80FBA
:101A000083E00E94DA0C82E090E00E94D80F82E02E
:101A10000E94DA0C82E090E00E94D80F88E20E94D7
:101A2000A30C88E00E94A30C81E00E94A30C86E036
:101A30000E94A30C8CE00E94A30C08958091610188
:101A4000882329F481E0809361010E94DF0C0895CE
:101A500081E00E94A30C8091590190915A01009756
:101A600011F1A0E0B0E208C0E0915901F0915A01F3
:101A7000E20FF31FB083AF5F2A2F30E08091240183
:101A800090E001976091250170E0869FA001879FFB
:101A9000500D969F500D1124241735072CF31092EA
:101AA0005C0110925B0108950E94280D0895EF9249
:101AB000FF92CF93DF93E82EE7017E01F92EE70135
:101AC00002C00E94A80C89918823D9F7DF91CF9199
:101AD000FF90EF9008950E94570D0895AAE0B0E09E
:101AE000E4E7FDE00C9440169B01AC011AE0EAE04B
:101AF000CE2ED12CE12CF12C5E010894A11CB11C3E
:101B0000022FCA01B901A70196010E94EC151150DC
:101B1000F501E10FF11D005D922F990F892F880FBC
:101B2000880F890F081B00832115310541055105D8
:101B300039F708C0F601E10FF11D80810E94A80C61
:101B40001F5F04C06E010894C11CD11C1A3090F3B1
:101B50002A96EAE00C945C16EF92FF920F931F9383
:101B60007B018C0197FF0BC010950095F094E094D9
:101B7000E11CF11C011D111D8DE20E94A80CC80181
:101B8000B7010E946E0D1F910F91FF90EF90089585
:101B90000E94AC0D0895A5E0B0E0E1EDFDE00C94ED
:101BA0004716182F80E8898380EC8A8384E98B8329
:101BB00084ED8C83FE01E60FF11D8181810F6D8321
:101BC0000E94A30C10935C016D8160935B012596CC
:101BD000E3E00C9463160E94CB0D0895FC01118282
:101BE000108213821282158214821682683068F481
:101BF00089E290E0918380838BE290E093838283FB
:101C00008AE290E09583848311C06E30C0F483E251
:101C100090E09183808385E290E09383828384E2E5
:101C200090E09583848370E06850704081E090E09C
:101C300002C0880F991F6A95E2F78683089565317F
:101C4000B8F486E290E09183808388E290E0938309
:101C5000828387E290E09583848370E06E507040C9
:101C600081E090E002C0880F991F6A95E2F78683B1
:101C70000895FC01A481B5818681662321F09C91A1
:101C8000982B9C9308959C91809589238C9308951B
:101C9000FC016F3F31F4A281B3818C919681892739
:101CA0000CC0A281B3818681662321F09C91982B80
:101CB0009C9308959C91809589238C930895A7E027
:101CC000B0E0E5E6FEE00C944516282FF62E8E01D6
:101CD0000F5F1F4FC801622F0E94EE0DC8016F2DCC
:101CE0000E94480EC80161E00E94390E2796E5E087
:101CF0000C946116E0EBF0E083EF8083808184BD7B
:101D0000E1EBF0E082E08083808185BDE4EBF0E0F0
:101D100010828081E3EBF0E08083808188BD88B50C
:101D200087BD86E060E00E945F0E85E060E00E9473
:101D30005F0E8BE060E00E945F0E83E060E00E9437
:101D40005F0E089580916201882329F481E08093D9
:101D500062010E947A0E0895CF93DF93EC010E94F6
:101D6000A20ED7FF05C0D095C195DF4F81E001C01D
:101D700080E0CF3FD10519F014F0CFEFD0E08823F9
:101D800019F018BCC7BD02C0C8BD17BCDF91CF9108
:101D90000895CF93DF93EC010E94A20ED7FF05C0F8
:101DA000D095C195DF4F81E001C080E0CF3FD105E4
:101DB00019F014F0CFEFD0E0882329F01092B4008E
:101DC000C093B30004C0C093B4001092B300DF917D
:101DD000CF910895CF93DF93EB010E94AC0ECE011B
:101DE0000E94C90EDF91CF9108950E94EA0E0895D6
:101DF00084B18D7C84B985B1826385B985E090E03A
:101E00006F9364E06A95F1F76F910197C9F70895B0
:101E100080916301882329F481E0809363010E940B
:101E2000F80E08951F93CF93DF93182F0E94080F89
:101E3000C12FD0E023B130E0209530952C233D23F5
:101E400021153105B9F38AE090E00E94D80F23B143
:101E500030E0209530952C233D232115310551F399
:101E600083B180958123DF91CF911F9108951F93B6
:101E7000182F0E94080F83B18123E9F38AE090E0D4
:101E80000E94D80F83B18123B1F383B181231F91C5
:101E900008951F930E94120F182F0E94370F812F51
:101EA0001F9108950E94490F0895A1E0B0E0EBE56D
:101EB000FFE00C94481689830E94080F93B1909517
:101EC000898189232196E2E00C9464160E94550FC3
:101ED0000895A2E0B0E0EFE6FFE00C944816809190
:101EE000D2019091D3019E012F5F3F4F009719F4CB
:101EF000265D314002C0281B390B3A832983898132
:101F00009A812296E2E00C9464160E94690F08956B
:101F10006F9364E06A95F1F76F910197C9F708959F
:101F20002F928F939F932FB68091710190917201A0
:101F30000196809371019093720190E080917301FA
:101F4000891F80937301909179019C5F909379012F
:101F50008091780180519742C0F0909379018093ED
:101F600078018091740190917501019680937401BC
:101F70009093750190E080917601891F809376019E
:101F800080917701891F809377012FBE9F918F9158
:101F90002F901895CF93DF93EC0105C088EE93E066
:101FA0000E94880F21972097C9F7DF91CF9108955C
:101FB0000E94CA0F0895E0E7F0E080818E7F808361
:101FC000A0EBB0E08C9183608C93A1EBB0E08C919E
:101FD000807F8C938C9182608C93B89A8081816091
:101FE00080837894089580917A01882329F481E090
:101FF00080937A010E94DB0F08950E94F30FE0E7BF
:10200000F0E080818E7F8083209174013091750192
:102010004091760150917701808181608083B90180
:10202000CA0108950E94FD0F08950E94F30FE0E792
:10203000F0E080818E7F8083109274011092750190
:102040001092760110927701109279011092780126
:102050008081816080830895682F8BE791E00E94E2
:10206000661508959C01462F8BE791E0B90120E0A9
:102070000E94C413089580917B0190917C01089582
:1020800080917D0190917E0108950F93DF93CF930E
:1020900000D000D00F92CDB7DEB79C01962FDE01A5
:1020A0001196E6E2F1E085E001900D928150E1F7B2
:1020B000BE016F5F7F4F992329F08BE791E045E0E8
:1020C0000FEF04C08BE791E045E003E10E94DF10D1
:1020D0008BE791E00E94B6100E9415100F900F90B0
:1020E0000F900F900F90CF91DF910F91089560E0C6
:1020F0000E944510089508958BE791E00E948A158B
:1021000008956F9364E06A95F1F76F910197C9F7AD
:102110000895A7E0B0E0EFE8F0E10C9446168C01DA
:10212000FC0111821082138212821582148217829E
:102130001682613118F080E1808702C0FC0160875F
:10214000F801208BCE010196642F0E94EE0D8F8145
:10215000F80181878B819C81938782878D819E8105
:10216000958784872796E4E00C946216FC01A48589
:10217000B585109779F08C919185892B8C93A285E8
:10218000B3859C918185809589238C9388EC90E020
:102190000E9481100895FC01A485B585109771F007
:1021A0008C919185892B8C93A285B3858C91918597
:1021B000892B8C9388EC90E00E9481100895A7E011
:1021C000B0E0E5EEF0E10C9438167C011B01642FC1
:1021D0003901402F20E00E94891097012F5B3F4F6B
:1021E000F9011082D701AE5BBF4F1C92C7018D5B16
:1021F0009F4FFC011082F7017786668666242E01C8
:102200000894411C511C6C015D01490129C0062D37
:1022100010E0F101E00FF11FC20160810E94EE0D9C
:102220002F81F701E00FF11F218B89819A81F8013D
:10223000EE0FFF1FEE0DFF1D92A381A383329105C8
:1022400011F4F40109C08632910511F4F50104C0BE
:102250008932910521F4F6018081822B8083639479
:10226000F7018085681698F22796E2E10C945416DF
:10227000A0E0B0E0EEE3F1E10C943D16EC015B016F
:10228000FC01EF5BFF4F9080FC01EE5BFF4F808015
:10229000FC01ED5BFF4F708080E009C0E82FF0E0AB
:1022A000EE0FFF1FEA0DFB1D118210828F5F9885D4
:1022B0008917A0F384B121E4E22EF12CEC0EFD1E6F
:1022C000D7019C91892B84B987B18E010E5B1F4F7A
:1022D000F8019081892B87B98AB193E4C92ED12C5A
:1022E000CC0EDD1ED6019C91892B8AB985B1F701F0
:1022F0009081892B85B988B1D8019C91892B88B9A7
:102300008BB1F6019081892B8BB98AE090E00E9415
:10231000811094B1D7018C918095892384B997B1AC
:10232000F80180818095892387B99AB1D6018C9173
:10233000809589238AB995B1F70180818095892399
:1023400085B998B1D8018C918095892388B99BB1C2
:10235000F6018081809589238BB9C090B000E09010
:10236000B1008091B00083608093B00082E08093E0
:10237000B1000091B20080E090E039C02091B2003D
:10238000201B820F911D020FF3B0F91409F04DC00C
:1023900096B0981409F049C029B1271509F045C035
:1023A00024C0212F30E0A901440F551FF501E40F8F
:1023B000F51F608171816115710599F44C0F5D1FE6
:1023C000DA0191964D915C919297DA014C912C0F24
:1023D0003D1FD90151962C915197422311F49183BD
:1023E00080831F5F28851217E0F2892C9F2C2E8591
:1023F0003F858217930710F2C092B000E092B100BF
:1024000020E00FC0E22FF0E0EE0FFF1FEA0DFB1DF2
:1024100080819181009721F48E859F8591838083AF
:102420002F5F8885281770F305C0F3B096B079B098
:1024300010E0D8CFCDB7DEB7EDE00C945916EF928F
:10244000FF920F931F93CF93DF93FC019B010091A9
:102450007C0010917A00E7B0F8B080917A0086FD98
:10246000FCCF80E00AC0A82FB0E0AA0FBB1FA20FCC
:10247000B31F11961C921E928F5F9085891798F357
:1024800097B182A18095892387B998B182A180955F
:10249000892388B987E880937A0070E029C0DF013A
:1024A000A60FB11D51968C915197806480937C004A
:1024B00080917A00806480937A0080917A0086FD12
:1024C000FCCFA62FB0E0AA0FBB1FA20FB31F4091F5
:1024D0007800509179008D919C911197840F951FF0
:1024E00011969C938E936F5F80856817C0F27F5F13
:1024F00081A1781710F460E0F7CF40E014C0C42F3A
:10250000D0E0CC0FDD1FC20FD31F61A170E0CB0163
:1025100095958795A881B9818A0F9B1F0E94C41544
:10252000798368834F5F8085481748F300937C0068
:1025300010937A00F8B8E7B8CDB7DEB7E6E00C94B0
:102540006016A0E2B0E0E7EAF2E10C9443168C01D9
:102550007B01D42E842F8150823018F4C8010E9450
:10256000CB10D80150968C915097882389F4C801DC
:10257000B7010E943811C8010E94B610BD2DB230BB
:10258000D9F5C801BE016F5F7F4F0E94381110C09E
:10259000C801B7010E941F12C8010E94B610ED2D9C
:1025A000E23051F5C801BE016F5F7F4F0E941F12DC
:1025B00060E0AE014F5F5F4F1BC0862F90E0880F39
:1025C000991FF701E80FF91F840F951FD8011E9678
:1025D0002D913C911F97DC018D919C911197281BA7
:1025E000390B80819181820F931F918380836F5F6C
:1025F000F8018085681708F3A096E7E00C945F1651
:102600008F929F92AF92BF92CF92DF92FF920F93E1
:102610001F93CF93DF93EC01C62E072FF42E423089
:1026200011F0FF2051F48C819D81009709F4A0C026
:102630008E819F81009709F49BC08F2D815082303D
:1026400050F488819981009709F492C08A819B8116
:10265000009709F48DC0CE016C2D702F4F2D0E9474
:10266000A112AC2CB02E00E010E0882499247AC08E
:102670008F2D813059F4EA81FB81E00FF11FC0807A
:10268000D180E881F981E00FF11F0DC08C819D811F
:10269000FF2061F4EE81FF81E00FF11FC080D18047
:1026A000800F911FFC01408151812BC0800F911F31
:1026B000FC0180819181E881F981E00FF11F408167
:1026C0005181CE84DF848417950710F4A60104C0DD
:1026D0004C0D5D1D481B590BEE81FF81E00FF11F72
:1026E00080819181EA81FB81E00FF11F208131819E
:1026F000CE84DF848217930720F0C20ED31EC81A3F
:10270000D90AC41AD50AD1F0F5016081718180E03F
:1027100090E09A0140E050E0621B730B840B950B34
:1027200028EE33E040E050E00E94A815960140E01A
:1027300050E00E940E1637FD0AC002C020E030E0D3
:10274000F3E0293E3F072CF028EE33E002C020E002
:1027500030E0F501219331935F010894811C911CB5
:102760000E5F1F4F888590E0881699060CF480CF85
:10277000DF91CF911F910F91FF90DF90CF90BF908D
:10278000AF909F908F900895A5E0B0E0EAECF3E160
:102790000C9438164C01C62EE72E2D830E94001390
:1027A000D40118964C901897DE2C642D70E080E0D0
:1027B00090E028EE33E040E050E00E94A8156983E5
:1027C0007A838B839C83EE24FF24870166247724FD
:1027D000882499245401552436C0F6013081218182
:1027E00042E0242E312CC20CD31CC901492F582F92
:1027F0001A012D81222329F088EE93E08219930992
:102800001C0199EC291631042CF4A3E32A16310497
:1028100094F002C055245394B101882777FD809528
:10282000982FA80197010E94A815860E971EA81E32
:10283000B91E620C731C88EE93E0A0E0B0E0E80ED5
:10284000F91E0A1F1B1F89819A81AB81BC81E81682
:10285000F9060A071B0709F65520F1F455240894D8
:102860004108510824EF31E0429EC001439E900D83
:10287000529E900D11242091BF013091C001281764
:102880003907B4F088EE93E0489E9001499E300DE0
:10289000589E300D11240EC0930140E050E0C50158
:1028A000B4010E94EC152093BF013093C00102C017
:1028B00020E030E0C9012596E2E10C945416A7E629
:1028C000B0E0E5E6F4E10C9438168C014B016A01A6
:1028D000A6962FAFA697DA018D919C91119700973C
:1028E000E9F4F801808590E0880F991F0E94841612
:1028F000D60111969C938E93009709F4E2C0FC01D7
:1029000080E090E003C0119211920196D8011896D0
:102910002C91189730E082179307ACF3F401808173
:102920009181009789F0EE24FF245E010894A11C98
:10293000B11CB1E46B2E712C6C0E7D1EA1E24A2EEF
:10294000512C4C0E5D1E23C0D80118968C9190E03E
:10295000880F991F0E948416F40191838083009749
:1029600009F4AFC0FC0180E090E0D80107C01E96DA
:102970002D913C911F9721933193019618962C919C
:10298000189730E08217930794F38D01CCCFC801DC
:10299000B501A6964FADA6970E94A112D801189630
:1029A0008C911897E82FF0E0A596FFAFEEAFA597B2
:1029B0001301F501A3965FAE4EAEA397930140E0DD
:1029C00050E0A8965FAE4EAEA89737C0E114F10470
:1029D00061F0A896AEADBFADA8976D917C911197AF
:1029E000808191816817790760F480819181A89630
:1029F000AEADBFADA89711969C938E93E114F104F0
:102A000049F0D9016D917C91119780819181861750
:102A1000970728F480819181D9018D939C934F5F12
:102A20005F4F2E5F3F4F3296A8968EAD9FADA89711
:102A30000296A8969FAF8EAFA897A596AEADBFADF4
:102A4000A5974A175B0714F20894E11CF11CBAE041
:102A5000EB16F10409F09BCF80E090E02CC0F1016F
:102A6000419151911F01BC01660F771FD601ED9175
:102A7000FC911197E60FF71F20813181241735074C
:102A800010F451834083A396EEADFFADA39741911F
:102A90005191A396FFAFEEAFA397D401ED91FC91B6
:102AA0001197E60FF71F208131814217530710F469
:102AB000518340830196F801208530E08217930707
:102AC00074F2C959DF4FE2E10C9454161F93CF936F
:102AD000DF93EC01162F862F8150823058F4AE011F
:102AE0004E5F5F4FCE01BE0121E00E945F141230A5
:102AF00019F00CC0662351F4BE016C5F7F4FAE012C
:102B00004A5F5F4FCE0120E00E945F14DF91CF91BA
:102B10001F910895CF93DF93EC018A819B810097E9
:102B200011F00E941C178E819F81009711F00E9466
:102B30001C1788819981009711F00E941C178C81C5
:102B40009D81009711F00E941C17DF91CF9108958D
:102B5000DB018F939F930E942D16BF91AF91A29F8F
:102B6000800D911DA39F900DB29F900D112408958B
:102B7000991B79E004C0991F961708F0961B881FCF
:102B80007A95C9F780950895AA1BBB1B51E107C030
:102B9000AA1FBB1FA617B70710F0A61BB70B881FED
:102BA000991F5A95A9F780959095BC01CD0108957C
:102BB00097FB072E16F4009407D077FD09D00E94EA
:102BC000C41507FC05D03EF4909581959F4F08955C
:102BD000709561957F4F0895A1E21A2EAA1BBB1B29
:102BE000FD010DC0AA1FBB1FEE1FFF1FA217B307D9
:102BF000E407F50720F0A21BB30BE40BF50B661FEF
:102C0000771F881F991F1A9469F7609570958095B2
:102C100090959B01AC01BD01CF010895052E97FB56
:102C20001EF400940E94251657FD07D00E94EC1553
:102C300007FC03D04EF40C94251650954095309522
:102C400021953F4F4F4F5F4F089590958095709518
:102C500061957F4F8F4F9F4F08950E947516A59FD6
:102C6000900DB49F900DA49F800D911D1124089587
:102C70002F923F924F925F926F927F928F929F928C
:102C8000AF92BF92CF92DF92EF92FF920F931F937A
:102C9000CF93DF93CDB7DEB7CA1BDB0B0FB6F8942B
:102CA000DEBF0FBECDBF09942A88398848885F846B
:102CB0006E847D848C849B84AA84B984C884DF80DC
:102CC000EE80FD800C811B81AA81B981CE0FD11DC0
:102CD0000FB6F894DEBF0FBECDBFED010895EE0F25
:102CE000FF1F0590F491E02D0994A29FB001B39FBE
:102CF000C001A39F700D811D1124911DB29F700D05
:102D0000811D1124911D0895CF93DF938230910589
:102D100010F482E090E0E091D401F091D50120E040
:102D200030E0A0E0B0E0309739F1408151814817A0
:102D30005907B8F04817590771F4828193811097A9
:102D400029F013969C938E9312972CC09093D501E3
:102D50008093D40127C02115310531F04217530764
:102D600018F0A901DB0101C0EF019A01BD01DF01EB
:102D70000280F381E02DD7CF21153105F9F0281B12
:102D8000390B2430310580F48A819B8161157105EE
:102D900021F0FB019383828304C09093D50180933B
:102DA000D401FE01329644C0FE01E20FF31F81936D
:102DB000919322503109398328833AC02091D2015E
:102DC0003091D301232B41F420912D0130912E011C
:102DD0003093D3012093D20120912B0130912C010B
:102DE0002115310541F42DB73EB740912F01509187
:102DF0003001241B350BE091D201F091D301E21791
:102E0000F307A0F42E1B3F0B2817390778F0AC010D
:102E10004E5F5F4F2417350748F04E0F5F1F5093EA
:102E2000D3014093D2018193919302C0E0E0F0E09E
:102E3000CF01DF91CF910895CF93DF93009709F4ED
:102E400087C0FC01329713821282C091D401D091C5
:102E5000D501209781F420813181280F391F80917D
:102E6000D2019091D3018217930779F5F093D301A2
:102E7000E093D2016DC0DE0120E030E0AE17BF0765
:102E800050F412964D915C9113979D014115510597
:102E900009F1DA01F3CFB383A28340815181840F1A
:102EA000951F8A179B0771F48D919C911197840F40
:102EB000951F02969183808312968D919C91139712
:102EC000938382832115310529F4F093D501E09392
:102ED000D4013EC0D9011396FC93EE9312974D9105
:102EE0005D91A40FB51FEA17FB0779F480819181EA
:102EF000840F951F0296D90111969C938E9382811F
:102F0000938113969C938E931297E0E0F0E08A8170
:102F10009B81009719F0FE01EC01F9CFCE010296DA
:102F200028813981820F931F2091D2013091D301E2
:102F30002817390769F4309729F41092D5011092B7
:102F4000D40102C013821282D093D301C093D20164
:102F5000DF91CF910895A8E1B0E042E050E00C94F9
:102F6000B8170E94C617272F0C94C717DC01CB0196
:102F7000FC01F999FECF06C0F2BDE1BDF89A319689
:102F800000B40D9241505040B8F70895262FF9999A
:102F9000FECF1FBA92BD81BD20BD0FB6F894FA9A3C
:102FA000F99A0FBE0196089510E0C4E8D0E004C07D
:102FB000FE010E9471162296C838D107C9F7F8940D
:022FC000FFCF41
:102FC200881301040400D007F4010F009C01B5012D
:102FD200CF01EA0107022602470269028E02B50208
:102FE200DE020A0302080E0F1011120000D60120A1
:102FF20000200000010203040506FF20006D760098
:10300200204D617A6500206D617070656421000059
:00000001FF
