:100000000C9444000C946C000C946C000C946C00E8
:100010000C946C000C946C000C946C000C946C00B0
:100020000C946C000C94FE0D0C946C000C946C0001
:100030000C946C000C94200A0C946C000C946C00D2
:100040000C946C000C946C000C946C000C946C0080
:100050000C946C000C946C000C946C000C946C0070
:100060000C946C000C946C00000000000000001F59
:100070001F1F1F1F1F1F3E6733323E3E6333320078
:100080005306E90E5806EA0E11241FBECFEFD8E042
:10009000DEBFCDBF11E0A0E0B1E0E8E7FCE202C0C6
:1000A00005900D92A034B107D9F721E0A0E4B1E0AA
:1000B00001C01D92A03CB207E1F710E0C4E8D0E017
:1000C00004C02297FE010E94EE14C038D107C9F780
:1000D0000E9406060C942F160C940000FF920F93BA
:1000E0001F93CF93DF93EC018B01F42E85E090E01A
:1000F0000E94F214FC01888199811183008393830B
:100100008283F482F983E883DF91CF911F910F916D
:10011000FF900895CF93DF93FC01C081D181209798
:1001200049F02A813B8131832083CE010E948A15C8
:100130008C8101C082E0DF91CF910895CF93DF934E
:10014000EC0188819981892B39F0CE010E948A00C7
:1001500088819981892BC9F7DF91CF910895DC01BE
:10016000ED91FC91309719F080819181089580E0A4
:1001700090E0089560E088E690E00E94420B61E024
:1001800089E690E00E94420B62E08AE690E00E94DD
:10019000420B63E08BE690E00E94420B64E08CE649
:1001A00090E00E94420B65E08DE690E00E94420BD9
:1001B00066E08EE690E00E94420B0E94C20B08951A
:1001C000EF92FF920F931F93CF93DF93CDB7DEB7DC
:1001D0002A970FB6F894DEBF0FBECDBF8C01F12C6D
:1001E0000F2EFAE0EF2EF02DE1E3F1E0DE011196A3
:1001F0008E2D01900D928A95E1F7F80121913191B0
:100200008F01A7E4B4E10E949B149695879596957B
:10021000879596958795E1E0F0E0EC0FFD1FE80FDC
:10022000F91F80810E94450BF394F5E0FF12DCCFAB
:100230002A960FB6F894DEBF0FBECDBFDF91CF91E7
:100240001F910F91FF90EF9008950F931F93CF93FD
:10025000DF9381E00E949A0EC0E0D0E00E94A90ED8
:100260008C010C0F1D1FCE01805090400E9419166A
:10027000F801918380830E94AE0E8C010C0F1D1F2C
:10028000CE01865F9F4F0E941916F80191838083EB
:100290002296CA30D10511F7DF91CF911F910F91AE
:1002A000089580ED97E00E94E50E0E94BA000E943A
:1002B000BA000E94250186E790E00E947F0A109212
:1002C000B8011092BA011092B9011092BB0182E0FC
:1002D0008093B7011092B5011092B601089560E0C5
:1002E00070E080E090E00E94630D0895CF93DF936B
:1002F000CDB7DEB72A970FB6F894DEBF0FBECDBFDD
:10030000813079F120F0823009F455C086C068E26E
:1003100070E088ED9FEF0E94630D88EC90E00E94F2
:10032000460E61E0CE0101960E94A00E8D819E8155
:100330008835924050F461E0CE0101960E94A00EF3
:100340008D819E8188359240B0F38091B70190E015
:100350001816190614F084E090E081508093B701DC
:100360005CC068ED7FEF88E290E00E94630D88EC4E
:1003700090E00E94460E61E0CE0101960E94A00E20
:100380008D819E818835924050F461E0CE010196C6
:100390000E94A00E8D819E8188359240B0F380919D
:1003A000B70190E08330910511F48FEF9FEF8F5FDD
:1003B0008093B70132C068ED7FEF88E290E00E9441
:1003C000630D8CEB92E00E94460E61E0CE01019637
:1003D0000E94A00E8D819E818835924050F461E08C
:1003E000CE0101960E94A00E8D819E81883592409B
:1003F000B0F30E946F018091B701833031F08F5FBD
:1004000090E08330910531F403C080E090E002C0B9
:100410008FEF9FEF8F5F8093B7010E946F012A9645
:100420000FB6F894DEBF0FBECDBFDF91CF91089518
:100430009091B701292F30E02330310514F4492F72
:1004400001C04FEF4F5F841304C081E00E9476012A
:1004500008951216130614F4492F01C044E04150C8
:10046000841304C080E00E94760108952330310592
:100470003CF49F5F292F30E02330310524F405C080
:1004800020E030E002C02FEF3FEF2F5F821303C068
:1004900082E00E94760108952F923F924F925F92E0
:1004A0006F927F928F929F92AF92BF92CF92DF9284
:1004B000EF92FF920F931F93CF93DF93CDB7DEB7E9
:1004C0002E970FB6F894DEBF0FBECDBF0E94800EF0
:1004D0006B877C878D879E87C12CD12C7601212C40
:1004E000312C0F2EF0E18F2EF7E29F2EA12CB12C94
:1004F000F02D0F2EF4E16F2E712CF02D0F2EF4EC59
:100500004F2EF02D55245A9461E0CE0101960E94A1
:10051000A00E8C01005D1740C801AA2797FDA09589
:10052000BA2FC80ED91EEA1EFB1EC701B601A501CF
:1005300094010E947C14B80162197309CB01880FE1
:10054000991F860F971F99230CF40196959587950F
:10055000280F391FC801B3010E944614C901860F34
:10056000971F8D33910514F08CE390E0843C2FEFBE
:10057000920714F4842D952D992334F46CE370E0E4
:10058000CC960E94630D08C06CE370E0681B790B89
:100590008CE390E00E94630D8B819C818E359140AD
:1005A00098F48D819E818E35914070F48F8198856D
:1005B0008E35914048F41092BA011092B901109210
:1005C000BB010E946F0182C089819A818F35914061
:1005D00038F489859A858F35914010F4180194CFAD
:1005E00068E270E088E290E00E94630D82E390E0B0
:1005F0000E94460E61E0CE0101960E94A00E21E00D
:1006000089819A81853F914008F420E02093BA01C6
:1006100021E089859A85853F914008F420E0209368
:10062000B90168E270E088E290E00E94630D88EC16
:1006300090E00E94460E0E946F0161E0CE0101969B
:100640000E94A00E89819A818F35914028F18B817B
:100650009C818F35914000F18D819E818F35914035
:10066000D8F08F8198858F359140B0F089859A8533
:100670008F35914088F04AE064E670E080ED97E0C5
:100680000E94760881E08093B8011092BA0110921E
:10069000B9011092BB011AC01092B8018B819C81E4
:1006A0008F35914070F48D819E818F35914058F443
:1006B00021E08F8198858F35914008F420E0822FCA
:1006C00003C081E001C081E08093BB010E94800EE5
:1006D000DC01CB012B853C854D855E85821B930B10
:1006E000A40BB50B8C019D0102531109210931099D
:1006F000013213402105310508F18C019D0103559C
:10070000134021093109023C114021053105C0F097
:100710008C019D0105511540210931090632124015
:100720002105310578F08B539740A109B109823535
:100730009340A105B10540F484E007C081E005C005
:1007400082E003C083E001C080E02E960FB6F894EB
:10075000DEBF0FBECDBFDF91CF911F910F91FF90F4
:10076000EF90DF90CF90BF90AF909F908F907F9051
:100770006F905F904F903F902F9008950F931F932D
:10078000CF93DF9305EB11E0C6EBD1E00E944C0262
:100790009091B701913099F048F0923019F0933070
:1007A00049F011C09881890F88830DC09881981BEA
:1007B000988309C0F8019081890F808304C0F801F3
:1007C0009081981B90838091BA01882399F0809141
:1007D000B901811113C08091BB0181110FC00E942A
:1007E0007601D4CF8091BB01811108C081E00E94C5
:1007F0007601CCCF8091B9018111F4CFDF91CF91F7
:100800001F910F9108952F923F924F925F926F9296
:100810007F928F929F92AF92BF92CF92DF92EF9290
:10082000FF920F931F93CF93DF93CDB7DEB7C656DA
:10083000D1090FB6F894DEBF0FBECDBF0E94F30DF5
:100840004C0182E08093B7011092B5011092B6017D
:100850001A8219821092B4011092B3018BE090E0D9
:100860000E94F2148C01DC0114961C921E921397C4
:1008700016961C921E9215971A961C921E92199704
:10088000E5EBF1E0818190819C9311968C938BE054
:1008900090E00E94F214FC011282148213821682EC
:1008A00015821086178212861186D80118969C939D
:1008B0008E93179781E012968C931C830B8342E0F2
:1008C000B80183EB91E00E946E00C12CD12C0F2E59
:1008D000F3EB6F2EF1E07F2EF02D0F2EF3E03F2E85
:1008E000F02D212C412C512C55C1C3010E94AF0089
:1008F0005C010E94C20B8BE391E00E94D90B0E9425
:10090000F30DBC01882777FD8095982F0E94360C47
:1009100061E080E00E94590C8BE391E00E94D90BCA
:100920000E94F30DB401681B790B882777FD809531
:10093000982F0E94360C80E10E94C00DF501E32C37
:10094000F22CA185B285109721F012968C91882304
:1009500049F0B1E0EB1AF10832978FEFE816F8068C
:1009600081F704C09FEFE916F906B9F4C3010E94AC
:100970008A00282F30E02330310534F48F5F90E077
:10098000833091051CF403C0842D01C08FEF8F5F6D
:100990000E9418020E94BE03FDC08E2D0E94180204
:1009A0000E94BE03DD20C4F0A5EBB1E03C91E6EB74
:1009B000F1E04081FE013396842D952DA191B191F6
:1009C0002C91231303C111962C9111972413FEC06F
:1009D0008D01109709F098C08BE090E00E94F2140E
:1009E0008C01DC0112961C92129714961C921E9296
:1009F000139716961C921E92159718961C921E928B
:100A000017971A961C921E9219978091B601E5EBE2
:100A1000F1E090819C9311968C938091BA01882388
:100A200001F18BE090E00E94F214FC01128214822A
:100A30001382168215821086178212861186809183
:100A4000B70190E0181619060CF084E08150A82F29
:100A5000B0E0AA0FBB1FA00FB11F1496FC93EE933A
:100A600013978091B901882301F18BE090E00E94F7
:100A7000F214FC01128214821382168215821086EF
:100A80001782128611868091B70190E0833091051C
:100A90000CF08FEF8F5FA82FB0E0AA0FBB1FA00F45
:100AA000B11F1496FC93EE9313978091BB0188239A
:100AB000C9F08BE090E00E94F214FC0112821482D3
:100AC0001382168215821086178212861186A091D3
:100AD000B701B0E0AA0FBB1FA00FB11F14969C93E3
:100AE0008E93139781E0D80112968C93BFEFCB1AA7
:100AF000DB0AF601EE0FFF1F81E090E08C0F9D1FD7
:100B0000E80FF91F13830283EE0CFF1CEA0CFB1C99
:100B1000D70113968D919C9114970E948A15F70125
:100B2000148303838091B701282F30E023303105EF
:100B300034F48F5F90E0833091051CF403C0842D62
:100B400001C08FEF8F5FE82FF0E0EE0FFF1FE00F87
:100B5000F11F838194810E948A154091B701842FEF
:100B600090E003973CF481E0840F90E0833091059E
:100B70001CF403C0842D01C08FEF8F5FE82FF0E0DD
:100B8000EE0FFF1FE00FF11FB482A382B801C30173
:100B90000E946E00D3018D919C91892B09F0A5CE06
:100BA0008091B701282F30E02330310534F48F5F76
:100BB00090E08330910524F405C080E090E002C00D
:100BC0008FEF9FEF8F5F0E94180206C00196C81634
:100BD000D9060CF0F3CE00CFCA59DF4F0FB6F89408
:100BE000DEBF0FBECDBFDF91CF911F910F91FF9060
:100BF000EF90DF90CF90BF90AF909F908F907F90BD
:100C00006F905F904F903F902F900895CF93DF9318
:100C1000CDB7DEB72A970FB6F894DEBF0FBECDBFB3
:100C20000E9451010E94C20B8BE391E00E94D90BFC
:100C30000E944D07BC0180E090E00E94360C8DE3DD
:100C400091E00E94D90B84E190E00E94460E82E080
:100C50000E94D40D882319F00E940304E3CF80E1A1
:100C60000E94D40D8111DECF80E20E94D40D882332
:100C7000C9F261E0CE0101960E94A00E8C010E9493
:100C8000C20BB80180E090E00E94360C61E080E089
:100C90000E94590CCE0101960E94E00084E690E08B
:100CA0000E94460EE6CF1092B4011092B30108954F
:100CB00083EB91E00E949E000895882321F48091A7
:100CC0007C008F7D03C080917C00806280937C00DB
:100CD000089580917C0090E025E0959587952A9570
:100CE000E1F78170089580917A0090E036E0959563
:100CF00087953A95E1F7817008950E9469068823E7
:100D000021F02091790030E004C0209178003091EA
:100D10007900C90108958032B0F497E890937A0081
:100D200090917C00292F2064662311F0906C02C002
:100D3000922F9F77907E982B90937C0080917A00E1
:100D4000806480937A000895A0E0B0E0EAEAF6E0DB
:100D50000C94BF146B0160E00E948B060E94730626
:100D60008823E1F7E601EE24FF24870180917A00D1
:100D7000806480937A000E9473068823E1F70E94C2
:100D80007D06A0E0B0E0E80EF91E0A1F1B1F2197A8
:100D900069F7C6019695879520E4C216D10440F400
:100DA0008E0D9F1D6C2D70E00E943214CB010DC082
:100DB000BC0180E090E06E0D7F1D801F911F9601A9
:100DC00040E050E00E945A14C901CDB7DEB7E8E018
:100DD0000C94DB14A3E0B0E0E0EFF6E00C94C41454
:100DE000BC0180E090E0209100013091010140E0E1
:100DF00050E00E941614182F69837A839B830E9407
:100E0000690669817A819B81882371F09B01412F5A
:100E1000592FCA01B90161587F4F8F4F9F4F2FEF54
:100E200030E040E050E00DC09B01412F592FCA0136
:100E3000B90161507E4F8F4F9F4F2FEF33E040E05D
:100E400050E00E945A14C9012396E3E00C94E01488
:100E50000E94A4060E94EA0608951F93CF93DF9391
:100E60000E946906182F80E00E945D0686E06AE015
:100E700070E00E942807EC01812F0E945D069E0110
:100E8000220F331F2C0F3D1F2F5F3F4F36952795A5
:100E9000C901DF91CF911F9108950E942D070895F8
:100EA00090914501E0914101F0914201992311F0A7
:100EB000849101C08081282F21542A3110F4805E52
:100EC0000895803271F42091410130914201A901CD
:100ED0004F5F5F4F5093420140934101211531050F
:100EE00009F70895EF92FF92CF93DF930E94500786
:100EF000C0E0D0E01BC09E01220F331F93E0CC0F57
:100F0000DD1F9A95E1F7C20FD31F992787FD9095B2
:100F1000C80FD91FE097809141019091420101963D
:100F200090934201809341010E945007982F905363
:100F30009A3008F3CE01DF91CF91FF90EF900895A2
:100F400010926F0083E28093800081E180938100A2
:100F50001092820080E197E290938900809388004C
:100F600010928B0010928A00229A789408958091B2
:100F70004001882329F481E0809340010E94A0076A
:100F80000895A0E0B0E0E7ECF7E00C94BB148C010E
:100F90005B01E42E0E94B7071092020117FF04C004
:100FA0001F77AAE0FA2E02C0FF24F394C0908100BC
:100FB000DD2428EFC222DD2488EC3F2D389FC001BC
:100FC000112480179107D8F4E80167E20131160770
:100FD00010F0C0E1D7E2BE017695679580E090E021
:100FE0006058794687469F4F9E0140E050E00E943E
:100FF0005A14890181E090E0C82AD92A2CC098E2CD
:10100000F99E902D112480E0892EE4014E01982E46
:10101000E4018016910608F4E801BE017695679513
:101020009E0140E050E08F2D8A3039F480E090E05E
:10103000605E734481449F4F06C080E090E060533F
:101040007D4E8C4E9F4F0E945A14890152E0852E8E
:10105000912CC828D9282F2D2A3039F4CE01059695
:101060006AE070E00E943214EB0133E0C83ED3071F
:1010700079F0BE0180E090E0950140E050E00E94F0
:10108000161428EE33E040E050E00E947C1401C0CA
:10109000950110926F00C092810010938900009317
:1010A000880040918800509189006E2D603108F0D1
:1010B0006FE080E190E0861B9109BA0102C076954D
:1010C00067958A95E2F770938B0060938A0030935E
:1010D00048012093470186B38FEF86BB81E0809360
:1010E0006F00CDB7DEB7ECE00C94D7140E94C107B7
:1010F00008959B018F3F11F0442329F488EE93E07B
:10110000B90140E049C0813130F0582F505150367C
:1011100018F05FE501C050E0852F6CE00E942614B6
:10112000A82FB0E0E4EFFFEFAE9FB001AF9F700DCE
:10113000BE9F700D1124650F711D6C30710540F458
:10114000FB01EE0FFF1FE45FFE4F6081718102C063
:1011500060E070E0873081F0082E02C0660F771FD4
:101160000A94E2F7823028F0CB0105966AE070E03D
:101170000CC0605070480BC0CB01B6E0880F991FBF
:10118000BA95E1F7029665E070E00E9432144031B2
:1011900008F04FE0CB01B9010E94C1070895A0E01B
:1011A000B0E0E5EDF8E00C94BA14B0900301809142
:1011B0004301882361F060914401662341F08FEF81
:1011C00070E040E00E9479081092440134C1C0EC04
:1011D000DDE5AA24A39414E0712E00ED17E0B4E03D
:1011E000EB2EF12CA4EFCA2EA1E0DA2EFFE08F2E19
:1011F000912C0E94500720914101309142012F5FB4
:101200003F4F30934201209341018636F1F18736FA
:10121000CCF4823609F4AFC083367CF48E3349F1C6
:101220008F333CF4813209F487C08C3309F09BC0C2
:1012300022C0813609F097C09BC0843601F1853603
:101240000CF51BC08F3609F447C0803744F48C3648
:1012500011F18D3661F1873609F085C019C08437E8
:1012600009F444C0863709F460C0823709F07BC0B6
:1012700039C0B394BECFBA94BCCFEE2435C0EE24AF
:1012800082E07BC0EE2484E078C0EE2485E075C067
:10129000EE2487E072C00E947207BC0190930501A2
:1012A00080930401809106019091070137C00E944C
:1012B00050078C3619F41092430104C0A0924301E8
:1012C00010924401809141019091420101969093C6
:1012D0004201809341018DCF0E947207B82E809306
:1012E000030187CFEE24E39480E047C00E94720799
:1012F000BC01CE010E943214CB01880F991F53E02C
:10130000660F771F5A95E1F7860F971F9093070195
:101310008093060160910401709105010E943214CE
:10132000709309016093080164CF0E947207909343
:101330000B0180930A015DCF7092030110930701A6
:1013400000930601F0920501E0920401D092090198
:10135000C092080190920B0180920A011092430101
:1013600044E0B42E46CF109242011092410163C076
:10137000EE2489E002C0EE248BE09CE0B99EB02C04
:101380001124B80E0E9450078B3211F08332B9F449
:101390008091410190914201019690934201809386
:1013A0004101B394EFCF80914101909142010196A8
:1013B0009093420180934101BA940E9450078D326C
:1013C00091F3C0910801D09109018153883058F4FC
:1013D000C0910601D09107010E947207BC01CE01A5
:1013E0000E943214EB018E010BC08091410190915B
:1013F000420101969093420180934101C00FD11F99
:10140000169507950E9450078E3279F3809143011B
:10141000882339F0CE019695879580934401C81BA7
:10142000D109EE2011F0BB24BA948B2DBE0140915E
:101430000A010E947908CDB7DEB7EDE00C94D6140E
:101440001F920F920FB60F9211242F933F934F9339
:101450005F936F937F938F939F93AF93BF93EF931C
:10146000FF9380914701909148019C0121503040A9
:101470003093480120934701009711F510926F00B7
:10148000789480918100887F81608093810080E1E1
:1014900097E2909389008093880010928B001092BD
:1014A0008A0081E080930201809141019091420184
:1014B000009731F080914601882311F40E94CF08F3
:1014C000FF91EF91BF91AF919F918F917F916F911C
:1014D0005F914F913F912F910F900FBE0F901F90F2
:1014E000189510926F00909342018093410181E022
:1014F00080934501109244010E94CF0808950E94F4
:10150000710A089581E090E06F9364E06A95F1F7C5
:101510006F910197C9F708950F931F93CF93DF93AE
:101520001AB157985A98289AC0E0D0E00E94820ACF
:101530005C9A0E94820A09B15C980E94820A5C9AB5
:101540000E94820A5C9807FF11C024969E0140E029
:1015500050E080914D0190914E01A0914F01B091CA
:101560005001281739074A075B0700F31AB9DF91C2
:10157000CF911F910F91089565B190E0AC0141703A
:101580005070440F551F9C012670307053E0220F9D
:10159000331F5A95E1F7242B6D7C262B25B92BB1EF
:1015A0008870907034E0880F991F3A95E1F72F7793
:1015B000282B2BB95C9A0E94820A5C980E94820AAE
:1015C0000895A2E0B0E0E7EEFAE00C94C014182F02
:1015D0004A8369830E948C0B0E948C0AF4B005B187
:1015E000DAB0EBB0289869814A81662311F05A9AE3
:1015F00001C05A9884B1826384B9579A413029F066
:10160000812F82958F700E94BC0A812F8F700E945B
:10161000BC0ADAB8EBB8F4B805B92296E7E00C9446
:10162000DC1460E042E00E94E10A089561E042E0DB
:101630000E94E10A0895EF92FF921F93DF93CF93E8
:101640000F92CDB7DEB7660F660F660F482F592F82
:101650007A0110E0812F860F806469830E94110B4C
:10166000F70184910E94160B1F5F0894E11CF11C86
:101670006981183079F70F90CF91DF911F91FF901A
:10168000EF9008950E941B0B08950E94160B089579
:1016900060E041E00E94E10A089580E197E2A0E065
:1016A000B0E080934D0190934E01A0934F01B09311
:1016B0005001529A209A549A8EE190E00E94460E70
:1016C00083E00E94480B86E090E00E94460E83E093
:1016D0000E94480B82E090E00E94460E83E00E9448
:1016E000480B82E090E00E94460E82E00E94480B88
:1016F00082E090E00E94460E88E20E94110B88E092
:101700000E94110B81E00E94110B86E00E94110BD8
:101710008CE00E94110B089580915101882329F4D7
:1017200081E0809351010E944D0B089581E00E9459
:10173000110B8091490190914A01009711F1A0E0AD
:10174000B0E208C0E0914901F0914A01E20FF31FB5
:10175000B083AF5F2A2F30E08091240190E00197A1
:101760006091250170E0869FA001879F500D969F94
:10177000500D1124241735072CF310924C011092B0
:101780004B0108950E94960B0895EF92FF92CF931C
:10179000DF93E82EE7017E01F92EE70102C00E94E7
:1017A000160B89918823D9F7DF91CF91FF90EF90A5
:1017B00008950E94C50B0895AAE0B0E0E2EEFBE0B8
:1017C0000C94BD149B01AC011AE0EAE0CE2ED12CA2
:1017D000E12CF12C5E010894A11CB11C022FCA015E
:1017E000B901A70196010E945A141150F501E10FA9
:1017F000F11D005D922F990F892F880F880F890F97
:10180000081B0083211531054105510539F708C032
:10181000F601E10FF11D80810E94160B1F5F04C0CD
:101820006E010894C11CD11C1A3090F32A96EAE08C
:101830000C94D914EF92FF920F931F937B018C01AC
:1018400097FF0BC010950095F094E094E11CF11CFB
:10185000011D111D8DE20E94160BC801B7010E94E7
:10186000DC0B1F910F91FF90EF9008950E941A0CCE
:101870000895A5E0B0E0EFE3FCE00C94C414182F49
:1018800080E8898380EC8A8384E98B8384ED8C8370
:10189000FE01E60FF11D8181810F6D830E94110B06
:1018A00010934C016D8160934B012596E3E00C94FD
:1018B000E0140E94390C0895FC01118210821382F9
:1018C0001282158214821682683068F489E290E0F0
:1018D000918380838BE290E0938382838AE290E01D
:1018E0009583848311C06E30C0F483E290E09183CD
:1018F000808385E290E09383828384E290E0958305
:10190000848370E06850704081E090E002C0880FEE
:10191000991F6A95E2F7868308956531B8F486E2E7
:1019200090E09183808388E290E09383828387E2D2
:1019300090E09583848370E06E50704081E090E089
:1019400002C0880F991F6A95E2F786830895FC010B
:10195000A481B5818681662321F09C91982B9C936C
:1019600008959C91809589238C930895FC016F3F85
:1019700031F4A281B3818C91968189270CC0A28118
:10198000B3818681662321F09C91982B9C930895C6
:101990009C91809589238C930895A7E0B0E0E3EDB6
:1019A000FCE00C94C214282FF62E8E010F5F1F4FFF
:1019B000C801622F0E945C0CC8016F2D0E94B60CFA
:1019C000C80161E00E94A70C2796E5E00C94DE14A4
:1019D000E0EBF0E083EF8083808184BDE1EBF0E019
:1019E00082E08083808185BDE4EBF0E0108280811D
:1019F000E3EBF0E08083808188BD88B587BD86E019
:101A000060E00E94CD0C85E060E00E94CD0C8BE090
:101A100060E00E94CD0C83E060E00E94CD0C089550
:101A200080915201882329F481E0809352010E9421
:101A3000E80C0895CF93DF93EC010E94100DD7FFBF
:101A400005C0D095C195DF4F81E001C080E0CF3F58
:101A5000D10519F014F0CFEFD0E0882319F018BCAD
:101A6000C7BD02C0C8BD17BCDF91CF910895CF9309
:101A7000DF93EC010E94100DD7FF05C0D095C195F2
:101A8000DF4F81E001C080E0CF3FD10519F014F0B5
:101A9000CFEFD0E0882329F01092B400C093B300B8
:101AA00004C0C093B4001092B300DF91CF910895A9
:101AB000CF93DF93EB010E941A0DCE010E94370DE8
:101AC000DF91CF9108950E94580D089584B18D7CC7
:101AD00084B985B1826385B985E090E06F9364E055
:101AE0006A95F1F76F910197C9F7089580915301B5
:101AF000882329F481E0809353010E94660D0895A4
:101B00001F93CF93DF93182F0E94760DC12FD0E043
:101B100023B130E0209530952C233D23211531054C
:101B2000B9F38AE090E00E94460E23B130E02095A0
:101B300030952C233D232115310551F383B1809538
:101B40008123DF91CF911F9108951F93182F0E9439
:101B5000760D83B18123E9F38AE090E00E94460E7E
:101B600083B18123B1F383B181231F9108951F9322
:101B70000E94800D182F0E94A50D812F1F9108959E
:101B80000E94B70D0895A1E0B0E0E9ECFDE00C94EF
:101B9000C51489830E94760D93B19095898189231C
:101BA0002196E2E00C94E1140E94C30D0895A2E096
:101BB000B0E0EDEDFDE00C94C5148091BC01909176
:101BC000BD019E012F5F3F4F009719F4205C31400B
:101BD00002C0281B390B3A83298389819A81229676
:101BE000E2E00C94E1140E94D70D08956F9364E035
:101BF0006A95F1F76F910197C9F708952F928F9326
:101C00009F932FB68091610190916201019680931C
:101C100061019093620190E080916301891F80933C
:101C20006301909169019C5F9093690180916801C3
:101C300080519742C0F09093690180936801809130
:101C40006401909165010196809364019093650110
:101C500090E080916601891F809366018091670101
:101C6000891F809367012FBE9F918F912F901895A8
:101C7000CF93DF93EC0105C088EE93E00E94F60D50
:101C800021972097C9F7DF91CF9108950E94380ED0
:101C90000895E0E7F0E080818E7F8083A0EBB0E0E4
:101CA0008C9183608C93A1EBB0E08C91807F8C93BE
:101CB0008C9182608C93B89A8081816080837894C3
:101CC000089580916A01882329F481E080936A0154
:101CD0000E94490E08950E94610EE0E7F0E08081C5
:101CE0008E7F80832091640130916501409166016F
:101CF00050916701808181608083B901CA01089594
:101D00000E946B0E08950E94610EE0E7F0E0808172
:101D10008E7F80831092640110926501109266019B
:101D200010926701109269011092680180818160B0
:101D300080830895682F8BE691E00E94D413089564
:101D40009C01462F8BE691E0B90120E00E943212FF
:101D5000089580916B0190916C01089580916D01BF
:101D600090916E0108950F93DF93CF9300D000D030
:101D70000F92CDB7DEB79C01962FDE011196E6E2F9
:101D8000F1E085E001900D928150E1F7BE016F5FB7
:101D90007F4F992329F08BE691E045E00FEF04C0D7
:101DA0008BE691E045E003E10E944D0F8BE691E068
:101DB0000E94240F0E94830E0F900F900F900F909F
:101DC0000F90CF91DF910F91089560E00E94B30EC4
:101DD000089508958BE691E00E94F81308956F939B
:101DE00064E06A95F1F76F910197C9F70895A7E04C
:101DF000B0E0EDEFFEE00C94C3148C01FC01118205
:101E00001082138212821582148217821682613127
:101E100018F080E1808702C0FC016087F801208B08
:101E2000CE010196642F0E945C0C8F81F80181879E
:101E30008B819C81938782878D819E819587848702
:101E40002796E4E00C94DF14FC01A485B585109777
:101E500079F08C919185892B8C93A285B3859C9187
:101E60008185809589238C9388EC90E00E94EF0E09
:101E70000895FC01A485B585109771F08C9191852A
:101E8000892B8C93A285B3858C919185892B8C931A
:101E900088EC90E00E94EF0E0895A7E0B0E0E3E543
:101EA000FFE00C94B5147C011B01642F3901402F15
:101EB00020E00E94F70E97012F5B3F4FF90110823F
:101EC000D701AE5BBF4F1C92C7018D5B9F4FFC01DA
:101ED0001082F7017786668666242E010894411CDD
:101EE000511C6C015D01490129C0062D10E0F10172
:101EF000E00FF11FC20160810E945C0C2F81F7018D
:101F0000E00FF11F218B89819A81F801EE0FFF1FED
:101F1000EE0DFF1D92A381A38332910511F4F4010C
:101F200009C08632910511F4F50104C0893291058A
:101F300021F4F6018081822B80836394F7018085F0
:101F4000681698F22796E2E10C94D114A0E0B0E074
:101F5000ECEAFFE00C94BA14EC015B01FC01EF5BCE
:101F6000FF4F9080FC01EE5BFF4F8080FC01ED5B3A
:101F7000FF4F708080E009C0E82FF0E0EE0FFF1FF8
:101F8000EA0DFB1D118210828F5F98858917A0F3DF
:101F900084B121E4E22EF12CEC0EFD1ED7019C91C0
:101FA000892B84B987B18E010E5B1F4FF801908198
:101FB000892B87B98AB193E4C92ED12CCC0EDD1EB2
:101FC000D6019C91892B8AB985B1F7019081892B23
:101FD00085B988B1D8019C91892B88B98BB1F6015C
:101FE0009081892B8BB98AE090E00E94EF0E94B12A
:101FF000D7018C918095892384B997B1F8018081AC
:102000008095892387B99AB1D6018C9180958923CF
:102010008AB995B1F70180818095892385B998B1F6
:10202000D8018C918095892388B99BB1F601808174
:10203000809589238BB9C090B000E090B100809169
:10204000B00083608093B00082E08093B100009183
:10205000B20080E090E039C02091B200201B820FD6
:10206000911D020FF3B0F91409F04DC096B0981409
:1020700009F049C029B1271509F045C024C0212F16
:1020800030E0A901440F551FF501E40FF51F6081F1
:1020900071816115710599F44C0F5D1FDA019196FC
:1020A0004D915C919297DA014C912C0F3D1FD90113
:1020B00051962C915197422311F4918380831F5F95
:1020C00028851217E0F2892C9F2C2E853F858217D8
:1020D000930710F2C092B000E092B10020E00FC070
:1020E000E22FF0E0EE0FFF1FEA0DFB1D80819181D2
:1020F000009721F48E859F85918380832F5F88854B
:10210000281770F305C0F3B096B079B010E0D8CFBF
:10211000CDB7DEB7EDE00C94D614EF92FF920F939B
:102120001F93CF93DF93FC019B0100917C001091E2
:102130007A00E7B0F8B080917A0086FDFCCF80E0AD
:102140000AC0A82FB0E0AA0FBB1FA20FB31F1196A1
:102150001C921E928F5F9085891798F397B182A188
:102160008095892387B998B182A18095892388B900
:1021700087E880937A0070E029C0DF01A60FB11DC7
:1021800051968C915197806480937C0080917A0065
:10219000806480937A0080917A0086FDFCCFA62F20
:1021A000B0E0AA0FBB1FA20FB31F4091780050915F
:1021B00079008D919C911197840F951F11969C9396
:1021C0008E936F5F80856817C0F27F5F81A178175B
:1021D00010F460E0F7CF40E014C0C42FD0E0CC0F83
:1021E000DD1FC20FD31F61A170E0CB0195958795CC
:1021F000A881B9818A0F9B1F0E943214798368835A
:102200004F5F8085481748F300937C0010937A0055
:10221000F8B8E7B8CDB7DEB7E6E00C94DD14A0E27D
:10222000B0E0E5E1F1E10C94C0148C017B01D42E07
:10223000842F8150823018F4C8010E94390FD801D0
:1022400050968C915097882389F4C801B7010E9459
:10225000A60FC8010E94240FBD2DB230D9F5C801C8
:10226000BE016F5F7F4F0E94A60F10C0C801B7016B
:102270000E948D10C8010E94240FED2DE23051F50F
:10228000C801BE016F5F7F4F0E948D1060E0AE01FC
:102290004F5F5F4F1BC0862F90E0880F991FF7019B
:1022A000E80FF91F840F951FD8011E962D913C91C0
:1022B0001F97DC018D919C911197281B390B808110
:1022C0009181820F931F918380836F5FF8018085D6
:1022D000681708F3A096E7E00C94DC148F929F92A5
:1022E000AF92BF92CF92DF92FF920F931F93CF9343
:1022F000DF93EC01C62E072FF42E423011F0FF20A1
:1023000051F48C819D81009709F4A0C08E819F813A
:10231000009709F49BC08F2D8150823050F4888142
:102320009981009709F492C08A819B81009709F4F2
:102330008DC0CE016C2D702F4F2D0E940F11AC2C33
:10234000B02E00E010E0882499247AC08F2D8130CF
:1023500059F4EA81FB81E00FF11FC080D180E88150
:10236000F981E00FF11F0DC08C819D81FF2061F488
:10237000EE81FF81E00FF11FC080D180800F911F9F
:10238000FC01408151812BC0800F911FFC01808195
:102390009181E881F981E00FF11F40815181CE8464
:1023A000DF848417950710F4A60104C04C0D5D1D51
:1023B000481B590BEE81FF81E00FF11F8081918155
:1023C000EA81FB81E00FF11F20813181CE84DF841F
:1023D0008217930720F0C20ED31EC81AD90AC41A56
:1023E000D50AD1F0F5016081718180E090E09A0119
:1023F00040E050E0621B730B840B950B28EE33E03A
:1024000040E050E00E941614960140E050E00E9427
:102410007C1437FD0AC002C020E030E0F3E0293E22
:102420003F072CF028EE33E002C020E030E0F50159
:10243000219331935F010894811C911C0E5F1F4F03
:10244000888590E0881699060CF480CFDF91CF91B3
:102450001F910F91FF90DF90CF90BF90AF909F9012
:102460008F900895A5E0B0E0E8E3F2E10C94B51494
:102470004C01C62EE72E2D830E946E11D4011896B2
:102480004C901897DE2C642D70E080E090E028EEF0
:1024900033E040E050E00E94161469837A838B8316
:1024A0009C83EE24FF2487016624772488249924C2
:1024B0005401552436C0F6013081218142E0242E9A
:1024C000312CC20CD31CC901492F582F1A012D8160
:1024D000222329F088EE93E0821993091C0199ECDC
:1024E000291631042CF4A3E32A16310494F002C017
:1024F00055245394B101882777FD8095982FA80122
:1025000097010E941614860E971EA81EB91E620C13
:10251000731C88EE93E0A0E0B0E0E80EF91E0A1FFD
:102520001B1F89819A81AB81BC81E816F9060A07D5
:102530001B0709F65520F1F4552408944108510869
:1025400024EF31E0429EC001439E900D529E900DBB
:1025500011242091AF013091B00128173907B4F050
:1025600088EE93E0489E9001499E300D589E300DB4
:1025700011240EC0930140E050E0C501B4010E9457
:102580005A142093AF013093B00102C020E030E034
:10259000C9012596E2E10C94D114A7E6B0E0E3ED81
:1025A000F2E10C94B5148C014B016A01A6962FAF91
:1025B000A697DA018D919C9111970097E9F4F801A3
:1025C000808590E0880F991F0E94F214D601119621
:1025D0009C938E93009709F4E2C0FC0180E090E0A8
:1025E00003C0119211920196D80118962C91189758
:1025F00030E082179307ACF3F4018081918100975A
:1026000089F0EE24FF245E010894A11CB11CB1E402
:102610006B2E712C6C0E7D1EA1E24A2E512C4C0E9D
:102620005D1E23C0D80118968C9190E0880F991FE9
:102630000E94F214F40191838083009709F4AFC0E3
:10264000FC0180E090E0D80107C01E962D913C91DE
:102650001F9721933193019618962C91189730E08B
:102660008217930794F38D01CCCFC801B501A696CC
:102670004FADA6970E940F11D80118968C9118970C
:10268000E82FF0E0A596FFAFEEAFA5971301F50197
:10269000A3965FAE4EAEA397930140E050E0A8969C
:1026A0005FAE4EAEA89737C0E114F10461F0A89672
:1026B000AEADBFADA8976D917C911197808191814E
:1026C0006817790760F480819181A896AEADBFAD9F
:1026D000A89711969C938E93E114F10449F0D901C7
:1026E0006D917C911197808191818617970728F4CD
:1026F00080819181D9018D939C934F5F5F4F2E5FB5
:102700003F4F3296A8968EAD9FADA8970296A89699
:102710009FAF8EAFA897A596AEADBFADA5974A1750
:102720005B0714F20894E11CF11CBAE0EB16F1040B
:1027300009F09BCF80E090E02CC0F10141915191D4
:102740001F01BC01660F771FD601ED91FC91119717
:10275000E60FF71F208131812417350710F45183CC
:102760004083A396EEADFFADA39741915191A396FF
:10277000FFAFEEAFA397D401ED91FC911197E60F57
:10278000F71F208131814217530710F45183408392
:102790000196F801208530E08217930774F2C95939
:1027A000DF4FE2E10C94D1141F93CF93DF93EC0140
:1027B000162F862F8150823058F4AE014E5F5F4F46
:1027C000CE01BE0121E00E94CD12123019F00CC0E2
:1027D000662351F4BE016C5F7F4FAE014A5F5F4FCD
:1027E000CE0120E00E94CD12DF91CF911F9108957C
:1027F000CF93DF93EC018A819B81009711F00E94B7
:102800008A158E819F81009711F00E948A15888118
:102810009981009711F00E948A158C819D81009703
:1028200011F00E948A15DF91CF910895DB018F93FB
:102830009F930E94AA14BF91AF91A29F800D911DFA
:10284000A39F900DB29F900D11240895991B79E0DC
:1028500004C0991F961708F0961B881F7A95C9F730
:1028600080950895AA1BBB1B51E107C0AA1FBB1F7F
:10287000A617B70710F0A61BB70B881F991F5A950C
:10288000A9F780959095BC01CD01089597FB072E7F
:1028900016F4009407D077FD09D00E94321407FC8B
:1028A00005D03EF4909581959F4F08957095619560
:1028B0007F4F0895A1E21A2EAA1BBB1BFD010DC07C
:1028C000AA1FBB1FEE1FFF1FA217B307E407F507E0
:1028D00020F0A21BB30BE40BF50B661F771F881FBC
:1028E000991F1A9469F760957095809590959B0152
:1028F000AC01BD01CF010895052E97FB1EF4009495
:102900000E94931457FD07D00E945A1407FC03D06D
:102910004EF40C94931450954095309521953F4F6B
:102920004F4F5F4F089590958095709561957F4FBB
:102930008F4F9F4F0895A29FB001B39FC001A39FE7
:10294000700D811D1124911DB29F700D811D1124E8
:10295000911D08950E949B14A59F900DB49F900D0A
:10296000A49F800D911D112408952F923F924F92A4
:102970005F926F927F928F929F92AF92BF92CF920F
:10298000DF92EF92FF920F931F93CF93DF93CDB718
:10299000DEB7CA1BDB0B0FB6F894DEBF0FBECDBF90
:1029A00009942A88398848885F846E847D848C8461
:1029B0009B84AA84B984C884DF80EE80FD800C816A
:1029C0001B81AA81B981CE0FD11D0FB6F894DEBF4D
:1029D0000FBECDBFED010895EE0FFF1F0590F491DE
:1029E000E02D0994CF93DF938230910510F482E0BB
:1029F00090E0E091BE01F091BF0120E030E0A0E066
:102A0000B0E0309739F14081518148175907B8F04B
:102A10004817590771F482819381109729F0139612
:102A20009C938E9312972CC09093BF018093BE010C
:102A300027C02115310531F04217530718F0A901BD
:102A4000DB0101C0EF019A01BD01DF010280F381CA
:102A5000E02DD7CF21153105F9F0281B390B243093
:102A6000310580F48A819B816115710521F0FB019C
:102A70009383828304C09093BF018093BE01FE01C3
:102A8000329644C0FE01E20FF31F819391932250CE
:102A90003109398328833AC02091BC013091BD01AE
:102AA000232B41F420912D0130912E013093BD0153
:102AB0002093BC0120912B0130912C01211531056F
:102AC00041F42DB73EB740912F0150913001241BA6
:102AD000350BE091BC01F091BD01E217F307A0F4C2
:102AE0002E1B3F0B2817390778F0AC014E5F5F4F64
:102AF0002417350748F04E0F5F1F5093BD014093D8
:102B0000BC018193919302C0E0E0F0E0CF01DF913E
:102B1000CF910895CF93DF93009709F487C0FC010C
:102B2000329713821282C091BE01D091BF012097CB
:102B300081F420813181280F391F8091BC0190914F
:102B4000BD018217930779F5F093BD01E093BC01B5
:102B50006DC0DE0120E030E0AE17BF0750F41296E2
:102B60004D915C9113979D014115510509F1DA01D1
:102B7000F3CFB383A28340815181840F951F8A17BD
:102B80009B0771F48D919C911197840F951F02966C
:102B90009183808312968D919C9113979383828366
:102BA0002115310529F4F093BF01E093BE013EC029
:102BB000D9011396FC93EE9312974D915D91A40F5A
:102BC000B51FEA17FB0779F480819181840F951F67
:102BD0000296D90111969C938E93828193811396CC
:102BE0009C938E931297E0E0F0E08A819B8100979E
:102BF00019F0FE01EC01F9CFCE010296288139814E
:102C0000820F931F2091BC013091BD012817390715
:102C100069F4309729F41092BF011092BE0102C0EE
:102C200013821282D093BD01C093BC01DF91CF917A
:102C30000895A8E1B0E042E050E00C942116DC01D8
:102C4000CB01FC01F999FECF06C0F2BDE1BDF89AB7
:102C5000319600B40D9241505040B8F7089510E0FD
:102C6000C4E8D0E004C0FE010E94EE142296C838E9
:082C7000D107C9F7F894FFCF6A
:102C7800881301040400D007F4010F009C01B5017A
:102C8800CF01EA0107022602470269028E02B50255
:102C9800DE020A0302080E0F1011120000C0012004
:102CA80000200000010203040506FF20006D7600E5
:00000001FF
