:100000000C943D000C9465000C9465000C94650004
:100010000C9465000C9465000C9465000C946500CC
:100020000C9465000C945F0B0C9465000C946500B7
:100030000C9465000C94F4070C9465000C94650016
:100040000C9465000C9465000C9465000C9465009C
:100050000C9465000C9465000C9465000C9465008C
:100060000C9465000C946500000000000000001F67
:100070001F1F1F1F1F1F4A0C4B0C11241FBECFEF49
:10008000D8E0DEBFCDBF11E0A0E0B1E0E0E6F7E2EE
:1000900002C005900D92A035B107D9F722E0A0E586
:1000A000B1E001C01D92AA30B207E1F710E0C8E745
:1000B000D0E004C02297FE010E944F12C637D1073C
:1000C000C9F70E94A8040C94A3130C94000060E0EC
:1000D00088E690E00E94050961E089E690E00E94D0
:1000E000050962E08AE690E00E94050963E08BE67C
:1000F00090E00E94050964E08CE690E00E9405090A
:1001000065E08DE690E00E94050966E08EE690E0ED
:100110000E9405090E9485090895EF92FF920F93AE
:100120001F93CF93DF93CDB7DEB72A970FB6F8941E
:10013000DEBF0FBECDBF8C01F12C0F2EFAE0EF2EEB
:10014000F02DEFE2F1E0DE0111968E2D01900D927F
:100150008A95E1F7F801219131918F01A7E4B4E18B
:100160000E94FC119695879596958795969587950B
:10017000E1E0F0E0EC0FFD1FE80FF91F80810E9425
:100180000809F394F5E0FF12DCCF2A960FB6F89435
:10019000DEBF0FBECDBFDF91CF911F910F91FF90BA
:1001A000EF900895CF93DF93C0E0D0E00E940A0C57
:1001B0008C0F9D1FFC0160817181CE0180509040A9
:1001C0000E9480130E940F0C8C0F9D1FFC01608108
:1001D0007181CE01865F9F4F0E9480132296CA30A4
:1001E000D10521F7DF91CF9108950F931F93CF93FE
:1001F000DF9381E00E94FB0BC0E0D0E00E940A0C7C
:100200008C010C0F1D1FCE01805090400E947A136C
:10021000F801918380830E940F0C8C010C0F1D1F2D
:10022000CE01865F9F4F0E947A13F80191838083ED
:100230002296CA30D10511F7DF91CF911F910F910E
:10024000089560E070E080E090E00E94260B089541
:100250001F93CF93DF93CDB7DEB72A970FB6F894ED
:10026000DEBF0FBECDBF182F61E0CE0101960E9408
:10027000010C113069F120F0123009F451C085C031
:100280004AE068EC70E084EF91E00E944A0668E280
:1002900070E088ED9FEF0E94260B8D819E81863B4A
:1002A000934050F461E0CE0101960E94010C8D81D3
:1002B0009E81863B9340B0F38091020290E0181635
:1002C000190614F084E090E081508093020263C02C
:1002D0004AE068EC70E088EE93E00E944A0668ED20
:1002E0007FEF88E290E00E94260B8D819E81863B05
:1002F000934050F461E0CE0101960E94010C8D8183
:100300009E81863B9340B0F38091020290E083305F
:10031000910511F48FEF9FEF8F5F809302023BC036
:100320004AE068EC70E08CED95E00E944A0668EDCA
:100330007FEF88E290E00E94260B8CEB92E00E9417
:10034000A70B8D819E81863B934050F461E0CE01E6
:1003500001960E94010C8D819E81863B9340B0F3F3
:100360000E94210180910202833031F08F5F90E082
:100370008330910521F005C080E090E002C08FEF4E
:100380009FEF8F5F8093020206C00E94850989E378
:1003900091E00E949C090E9421012A960FB6F894D0
:1003A000DEBF0FBECDBFDF91CF911F910895909119
:1003B0000202292F30E02330310514F4492F01C007
:1003C0004FEF4F5F841304C081E00E94280108951D
:1003D0001216130614F4492F01C044E0415084134F
:1003E00004C080E00E9428010895233031053CF4C8
:1003F0009F5F292F30E02330310524F405C020E031
:1004000030E002C02FEF3FEF2F5F821304C082E085
:100410000E94280108950E94850981E491E00E94CC
:100420009C0908952F923F924F925F926F927F9214
:100430008F929F92AF92BF92CF92DF92EF92FF92F4
:100440000F931F93CF93DF93CDB7DEB72E970FB6E1
:10045000F894DEBF0FBECDBF0E94E10B6B877C8797
:100460008D879E87C12CD12C7601212C312C0F2E0B
:10047000F0E18F2EF7E29F2EA12CB12CF02D0F2E44
:10048000F4E16F2E712CF02D0F2EF4EC4F2EF02D89
:1004900055245A9461E0CE0101960E94010C8C0112
:1004A000005D1740C801AA2797FDA095BA2FC80E76
:1004B000D91EEA1EFB1EC701B601A50194010E94C8
:1004C000DD11B80162197309CB01880F991F860FDE
:1004D000971F99230CF4019695958795280F391F3E
:1004E000C801B3010E94A711C901860F971F8D3360
:1004F000910514F08CE390E0843C2FEF920714F404
:10050000842D952D992334F46CE370E0CC960E94F1
:10051000260B08C06CE370E0681B790B8CE390E05D
:100520000E94260B8B819C818436910598F48D81E5
:100530009E818436910570F48F819885843691056B
:1005400048F41092040210920302109205020E94D5
:10055000210158C089819A818739910530F48985B4
:100560009A858739910508F44BC068E270E088E20B
:1005700090E00E94260B82E390E00E94A70B61E0CE
:10058000CE0101960E94010C21E089819A81853F6C
:10059000914008F420E02093040221E089859A85A7
:1005A000853F914008F420E02093030268E270E068
:1005B00088E290E00E94260B88EC90E00E94A70B56
:1005C0000E94210161E0CE0101960E94010C8B8105
:1005D0009C818739910570F48D819E8187399105C1
:1005E00058F421E08F8198858739910508F420E03F
:1005F000822F03C081E001C081E08093050202C028
:10060000180148CF0E94E10BDC01CB012B853C8512
:100610004D855E85821B930BA40BB50B8C019D0150
:100620000253110921093109013213402105310515
:1006300008F18C019D01035513402109310906324F
:10064000124021053105C0F08C019D01095715406C
:1006500021093109083512402105310578F0815D05
:100660009740A109B10988359240A105B10540F430
:1006700084E007C081E005C082E003C083E001C0E0
:1006800080E02E960FB6F894DEBF0FBECDBFDF918F
:10069000CF911F910F91FF90EF90DF90CF90BF907F
:1006A000AF909F908F907F906F905F904F903F9012
:1006B0002F9008950F931F93CF93DF9300E012E0E4
:1006C000C1E0D2E00E94120290910202913099F0B2
:1006D00048F0923019F0933049F011C09881890F99
:1006E00088830DC09881981B988309C0F801908178
:1006F000890F808304C0F8019081981B90838091BA
:100700000402882399F080910302811113C0809123
:10071000050281110FC00E942801D4CF80910502EB
:10072000811108C081E00E942801CCCF8091030292
:100730008111F4CFDF91CF911F910F910895CF9246
:10074000DF92EF92FF92CF93DF930E945A0382E0F1
:1007500080930202109200021092010289E190E05F
:100760000E945312EC011A821E821D8218861F827B
:100770001A861986E090FF01FF24E7FCF094F70148
:10078000EE0FFF1FED53FE4F918380831882198275
:1007900089E190E00E945312FC01128214821382BC
:1007A0001682158210861782128611869C838B838F
:1007B000809104028823D1F089E190E00E945312D5
:1007C000FC0112821482138216821582108617820F
:1007D00012861186D701AA0FBB1FAD53BE4F0D90D5
:1007E000BC91A02D16969C938E9315978091030231
:1007F0008823D1F089E190E00E945312FC0112821B
:100800001482138216821582108617821286118630
:10081000D701AA0FBB1FAD53BE4F0D90BC91A02DA9
:100820001A969C938E931997809105028823D1F094
:1008300089E190E00E945312FC011282148213821B
:10084000168215821086178212861186D701AA0F8A
:10085000BB1FAD53BE4F0D90BC91A02D18969C931D
:100860008E931797F701EE0FFF1FED53FE4F019088
:10087000F081E02D81E082830E948509C12CD12C7A
:100880007601E601E091FF01EE0FFF0BED53FE4F05
:100890000190F081E02DC601880F991FE80FF91F24
:1008A00083819481892BE1F0C701B6010E94F90987
:1008B00085E491E00E949C09E091FF01EE0FFF0B9F
:1008C000ED53FE4F0190F081E02DC601880F991F76
:1008D000E80FF91F0380F481E02D8281882361F005
:1008E0008FEFC81AD80AE80AF80A84E0C816D104BB
:1008F000E104F10431F61EC0EF2BE1F0C130D10567
:1009000071F01CF4CD2B39F015C0C230D10559F06F
:10091000239769F00FC080E00E94D7010BC083E0ED
:100920000E94D70107C081E00E94D70103C082E086
:100930000E94D7018091FF018F5F8093FF010E9489
:100940005A03DF91CF91FF90EF90DF90CF90089501
:10095000CF93DF93CDB7DEB72A970FB6F894DEBFFB
:100960000FBECDBF80ED97E00E94460C0E9467004D
:100970000E94F5004AE068EC70E088EE93E00E9487
:100980004A060E94850987E491E00E949C090F2E87
:10099000FCEEEF2EF02DFF24FA9482E00E94540B1F
:1009A000882359F188EE93E00E94A70B0E2D1F2D8E
:1009B0000832110538F068ED7FEF88E290E00E9480
:1009C000260B06C068E270E088ED9FEF0E94260BC0
:1009D00081E00E94FB0B84E190E00E94A70B0F5F77
:1009E0001F4F0C33110521F760E070E080E090E0CC
:1009F0000E94260B0E94D200D0CF80E10E94540BAF
:100A0000882319F00E949F03C8CF80E20E94540BF4
:100A1000882319F261E0CE0101960E94010C8C013D
:100A20000E948509B80180E090E00E94F90961E028
:100A300080E00E941C0ACE0101960E948D0084E68F
:100A400090E00E94A70BE6CF90915501E0915101F3
:100A5000F0915201992311F0849101C08081282FD7
:100A600021542A3110F4805E0895803271F420916F
:100A7000510130915201A9014F5F5F4F50935201D4
:100A8000409351012115310509F70895EF92FF9226
:100A9000CF93DF930E942405C0E0D0E01BC09E01ED
:100AA000220F331F93E0CC0FDD1F9A95E1F7C20FA1
:100AB000D31F992787FD9095C80FD91FE097809184
:100AC00051019091520101969093520180935101EE
:100AD0000E942405982F90539A3008F3CE01DF919D
:100AE000CF91FF90EF90089510926F0083E2809372
:100AF000800081E1809381001092820080E197E282
:100B0000909389008093880010928B0010928A0045
:100B1000229A7894089580915001882329F481E0E5
:100B2000809350010E9474050895A0E0B0E0EBE9C5
:100B3000F5E00C941C128C015B01E42E0E948B05E5
:100B40001092000117FF04C01F77AAE0FA2E02C01E
:100B5000FF24F394C0908100DD2428EFC222DD241D
:100B600088EC3F2D389FC001112480179107D8F4DD
:100B7000E80167E20131160710F0C0E1D7E2BE01DB
:100B80007695679580E090E06058794687469F4F5C
:100B90009E0140E050E00E94BB11890181E090E09D
:100BA000C82AD92A2CC098E2F99E902D112480E001
:100BB000892EE4014E01982EE4018016910608F476
:100BC000E801BE01769567959E0140E050E08F2DCB
:100BD0008A3039F480E090E0605E734481449F4F36
:100BE00006C080E090E060537D4E8C4E9F4F0E9487
:100BF000BB11890152E0852E912CC828D9282F2DB0
:100C00002A3039F4CE0105966AE070E00E94931113
:100C1000EB0133E0C83ED30779F0BE0180E090E0FD
:100C2000950140E050E00E94771128EE33E040E06B
:100C300050E00E94DD1101C0950110926F00C0923A
:100C400081001093890000938800409188005091A2
:100C500089006E2D603108F06FE080E190E0861B26
:100C60009109BA0102C0769567958A95E2F770936B
:100C70008B0060938A00309358012093570186B30C
:100C80008FEF86BB81E080936F00CDB7DEB7ECE0DD
:100C90000C9438120E94950508959B018F3F11F026
:100CA000442329F488EE93E0B90140E049C0813142
:100CB00030F0582F5051503618F05FE501C050E029
:100CC000852F6CE00E948711A82FB0E0E4EFFFEFC2
:100CD000AE9FB001AF9F700DBE9F700D1124650FC8
:100CE000711D6C30710540F4FB01EE0FFF1FE65FD4
:100CF000FE4F6081718102C060E070E0873081F05A
:100D0000082E02C0660F771F0A94E2F7823028F09F
:100D1000CB0105966AE070E00CC0605070480BC0D3
:100D2000CB01B6E0880F991FBA95E1F7029665E00E
:100D300070E00E949311403108F04FE0CB01B901FF
:100D40000E9495050895A0E0B0E0E9EAF6E00C9471
:100D50001B12B090010180915301882361F06091D2
:100D60005401662341F08FEF70E040E00E944D0691
:100D70001092540134C1C0ECDDE5AA24A39414E020
:100D8000712E00ED17E0B4E0EB2EF12CA4EFCA2E8B
:100D9000A1E0DA2EFFE08F2E912C0E9424052091F5
:100DA0005101309152012F5F3F4F309352012093F8
:100DB00051018636F1F18736CCF4823609F4AFC0A2
:100DC00083367CF48E3349F18F333CF4813209F45D
:100DD00087C08C3309F09BC022C0813609F097C0D0
:100DE0009BC0843601F185360CF51BC08F3609F4A3
:100DF00047C0803744F48C3611F18D3661F1873667
:100E000009F085C019C0843709F444C0863709F455
:100E100060C0823709F07BC039C0B394BECFBA94AA
:100E2000BCCFEE2435C0EE2482E07BC0EE2484E00B
:100E300078C0EE2485E075C0EE2487E072C00E9481
:100E40004605BC0190930301809302018091040147
:100E50009091050137C00E9424058C3619F4109238
:100E6000530104C0A092530110925401809151018A
:100E700090915201019690935201809351018DCF30
:100E80000E944605B82E8093010187CFEE24E3949B
:100E900080E047C00E944605BC01CE010E9493112C
:100EA000CB01880F991F53E0660F771F5A95E1F722
:100EB000860F971F909305018093040160910201B2
:100EC000709103010E9493117093070160930601D2
:100ED00064CF0E94460590930901809308015DCF7D
:100EE000709201011093050100930401F092030137
:100EF000E0920201D0920701C0920601909209018E
:100F0000809208011092530144E0B42E46CF109213
:100F100052011092510163C0EE2489E002C0EE2418
:100F20008BE09CE0B99EB02C1124B80E0E942405E1
:100F30008B3211F08332B9F48091510190915201BA
:100F400001969093520180935101B394EFCF809119
:100F50005101909152010196909352018093510159
:100F6000BA940E9424058D3291F3C0910601D0916C
:100F700007018153883058F4C0910401D0910501D4
:100F80000E944605BC01CE010E949311EB018E0127
:100F90000BC08091510190915201019690935201A2
:100FA00080935101C00FD11F169507950E9424050B
:100FB0008E3279F380915301882339F0CE019695D2
:100FC000879580935401C81BD109EE2011F0BB24F2
:100FD000BA948B2DBE01409108010E944D06CDB7F9
:100FE000DEB7EDE00C9437121F920F920FB60F92FE
:100FF00011242F933F934F935F936F937F938F931E
:101000009F93AF93BF93EF93FF938091570190917C
:1010100058019C01215030403093580120935701D2
:10102000009711F510926F00789480918100887F6D
:1010300081608093810080E197E2909389008093A2
:10104000880010928B0010928A0081E0809300014A
:101050008091510190915201009731F08091560199
:10106000882311F40E94A306FF91EF91BF91AF91E5
:101070009F918F917F916F915F914F913F912F91B0
:101080000F900FBE0F901F90189581E090E06F9326
:1010900064E06A95F1F76F910197C9F708950F938E
:1010A0001F93CF93DF931AB157985A98289AC0E0AC
:1010B000D0E00E9445085C9A0E94450809B15C98FE
:1010C0000E9445085C9A0E9445085C9807FF11C081
:1010D00024969E0140E050E080915D0190915E0178
:1010E000A0915F01B0916001281739074A075B079B
:1010F00000F31AB9DF91CF911F910F91089565B157
:1011000090E0AC0141705070440F551F9C01267057
:10111000307053E0220F331F5A95E1F7242B6D7C7A
:10112000262B25B92BB18870907034E0880F991F59
:101130003A95E1F72F77282B2BB95C9A0E94450846
:101140005C980E9445080895A2E0B0E0EAEAF8E061
:101150000C942112182F4A8369830E944F090E9420
:101160004F08F4B005B1DAB0EBB0289869814A8134
:10117000662311F05A9A01C05A9884B1826384B9E7
:10118000579A413029F0812F82958F700E947F08F5
:10119000812F8F700E947F08DAB8EBB8F4B805B9D8
:1011A0002296E7E00C943D1260E042E00E94A40821
:1011B000089561E042E00E94A4080895EF92FF9232
:1011C0001F93DF93CF930F92CDB7DEB7660F660FF5
:1011D000660F482F592F7A0110E0812F860F806407
:1011E00069830E94D408F70184910E94D9081F5F87
:1011F0000894E11CF11C6981183079F70F90CF91A8
:10120000DF911F91FF90EF9008950E94DE080895EE
:101210000E94D908089560E041E00E94A408089562
:1012200080E197E2A0E0B0E080935D0190935E01E1
:10123000A0935F01B0936001529A209A549A8EE174
:1012400090E00E94A70B83E00E940B0986E090E0EB
:101250000E94A70B83E00E940B0982E090E00E94AD
:10126000A70B83E00E940B0982E090E00E94A70B8D
:1012700082E00E940B0982E090E00E94A70B88E2C6
:101280000E94D40888E00E94D40881E00E94D4081B
:1012900086E00E94D4088CE00E94D40808958091D2
:1012A0006101882329F481E0809361010E94100983
:1012B000089581E00E94D4088091590190915A01CB
:1012C000009711F1A0E0B0E208C0E0915901F0915F
:1012D0005A01E20FF31FB083AF5F2A2F30E08091F5
:1012E000220190E001976091230170E0869FA001A8
:1012F000879F500D969F500D1124241735072CF30E
:1013000010925C0110925B0108950E9459090895A2
:10131000EF92FF92CF93DF93E82EE7017E01F92E43
:10132000E70102C00E94D90889918823D9F7DF918B
:10133000CF91FF90EF9008950E9488090895AAE048
:10134000B0E0E5EAF9E00C941E129B01AC011AE052
:10135000EAE0CE2ED12CE12CF12C5E010894A11CE8
:10136000B11C022FCA01B901A70196010E94BB114D
:101370001150F501E10FF11D005D922F990F892F9A
:10138000880F880F890F081B00832115310541053F
:10139000510539F708C0F601E10FF11D80810E9467
:1013A000D9081F5F04C06E010894C11CD11C1A30FB
:1013B00090F32A96EAE00C943A12EF92FF920F9380
:1013C0001F937B018C0197FF0BC010950095F09443
:1013D000E094E11CF11C011D111D8DE20E94D90851
:1013E000C801B7010E949F091F910F91FF90EF90D4
:1013F00008950E94DD090895A5E0B0E0E2E0FAE07A
:101400000C942512182F80E8898380EC8A8384E964
:101410008B8384ED8C83FE01E60FF11D8181810FAA
:101420006D830E94D40810935C016D8160935B0111
:101430002596E3E00C9441120E94FC090895FC01FA
:1014400011821082138212821582148216826830F1
:1014500068F489E290E0918380838BE290E093834B
:1014600082838AE290E09583848311C06E30C0F459
:1014700083E290E09183808385E290E0938382838E
:1014800084E290E09583848370E06850704081E04E
:1014900090E002C0880F991F6A95E2F7868308954D
:1014A0006531B8F486E290E09183808388E290E031
:1014B0009383828387E290E09583848370E06E500B
:1014C000704081E090E002C0880F991F6A95E2F7B2
:1014D00086830895FC01A481B5818681662321F06D
:1014E0009C91982B9C9308959C91809589238C9333
:1014F0000895FC016F3F31F4A281B3818C919681F4
:1015000089270CC0A281B3818681662321F09C913A
:10151000982B9C9308959C91809589238C93089592
:10152000A7E0B0E0E6E9FAE00C942312282FF62EAB
:101530008E010F5F1F4FC801622F0E941F0AC80152
:101540006F2D0E94790AC80161E00E946A0A2796FD
:10155000E5E00C943F12E0EBF0E083EF80838081C4
:1015600084BDE1EBF0E082E08083808185BDE4EB27
:10157000F0E010828081E3EBF0E08083808188BD21
:1015800088B587BD86E060E00E94900A85E060E053
:101590000E94900A8BE060E00E94900A83E060E085
:1015A0000E94900A089580916201882329F481E0C5
:1015B000809362010E94AB0A0895CF93DF93EC0100
:1015C0000E94D30AD7FF05C0D095C195DF4F81E0B7
:1015D00001C080E0CF3FD10519F014F0CFEFD0E08B
:1015E000882319F018BCC7BD02C0C8BD17BCDF9165
:1015F000CF910895CF93DF93EC010E94D30AD7FFD8
:1016000005C0D095C195DF4F81E001C080E0CF3F9C
:10161000D10519F014F0CFEFD0E0882329F0109213
:10162000B400C093B30004C0C093B4001092B300E0
:10163000DF91CF910895CF93DF93EB010E94DD0AF4
:10164000CE010E94FA0ADF91CF9108950E941B0BF0
:10165000089584B18D7C84B985B1826385B985E0B4
:1016600090E06F9364E06A95F1F76F910197C9F785
:10167000089580916301882329F481E080936301B8
:101680000E94290B0895A1E0B0E0E9E4FBE00C948E
:10169000261289830E94390B93B190958981892301
:1016A0002196E2E00C9442120E94430B08956F933E
:1016B00064E06A95F1F76F910197C9F708952F9249
:1016C0008F939F932FB68091710190917201019633
:1016D000809371019093720190E080917301891F52
:1016E00080937301909179019C5F9093790180912F
:1016F000780180519742C0F09093790180937801EE
:10170000809174019091750101968093740190937A
:10171000750190E080917601891F80937601809118
:101720007701891F809377012FBE9F918F912F9012
:101730001895CF93DF93EC0105C088EE93E00E94EB
:10174000570B21972097C9F7DF91CF9108950E94F9
:10175000990B0895E0E7F0E080818E7F8083A0EB15
:10176000B0E08C9183608C93A1EBB0E08C91807F92
:101770008C938C9182608C93B89A808181608083F5
:101780007894089580917A01882329F481E08093E8
:101790007A010E94AA0B08950E94C20BE0E7F0E0D4
:1017A00080818E7F808320917401309175014091FA
:1017B000760150917701808181608083B901CA01EF
:1017C00008950E94CC0B08950E94C20BE0E7F0E060
:1017D00080818E7F80831092740110927501109227
:1017E0007601109277011092790110927801808130
:1017F000816080830895682F8BE791E00E94351106
:1018000008959C01462F8BE791E0B90120E00E94EA
:10181000930F089580917B0190917C0108958091B0
:101820007D0190917E0108950F93DF93CF9300D0B7
:1018300000D00F92CDB7DEB79C01962FDE01119636
:10184000E4E2F1E085E001900D928150E1F7BE0104
:101850006F5F7F4F992329F08BE791E045E00FEF11
:1018600004C08BE791E045E003E10E94AE0C8BE7FA
:1018700091E00E94850C0E94E40B0F900F900F9056
:101880000F900F90CF91DF910F91089560E00E942B
:10189000140C089508958BE791E00E945911089562
:1018A0006F9364E06A95F1F76F910197C9F7089516
:1018B000A7E0B0E0EEE5FCE00C9424128C01FC0102
:1018C000118210821382128215821482178216826C
:1018D000613118F080E1808702C0FC016087F80167
:1018E000208BCE010196642F0E941F0A8F81F80180
:1018F00081878B819C81938782878D819E8195874B
:1019000084872796E4E00C944012FC01A485B585F9
:10191000109779F08C919185892B8C93A285B38552
:101920009C918185809589238C9388EC90E00E941E
:10193000500C0895FC01A485B585109771F08C9129
:101940009185892B8C93A285B3858C919185892B68
:101950008C9388EC90E00E94500C0895A7E0B0E0D2
:10196000E4EBFCE00C9416127C011B01642F39019E
:10197000402F20E00E94580C97012F5B3F4FF90148
:101980001082D701AE5BBF4F1C92C7018D5B9F4F8A
:10199000FC011082F7017786668666242E01089482
:1019A000411C511C6C015D01490129C0062D10E04C
:1019B000F101E00FF11FC20160810E941F0A2F8117
:1019C000F701E00FF11F218B89819A81F801EE0F59
:1019D000FF1FEE0DFF1D92A381A38332910511F429
:1019E000F40109C08632910511F4F50104C0893271
:1019F000910521F4F6018081822B80836394F701A5
:101A00008085681698F22796E2E10C943212A0E0E5
:101A1000B0E0EDE0FDE00C941B12EC015B01FC0179
:101A2000EF5BFF4F9080FC01EE5BFF4F8080FC017D
:101A3000ED5BFF4F708080E009C0E82FF0E0EE0F13
:101A4000FF1FEA0DFB1D118210828F5F9885891799
:101A5000A0F384B121E4E22EF12CEC0EFD1ED7019F
:101A60009C91892B84B987B18E010E5B1F4FF801C1
:101A70009081892B87B98AB193E4C92ED12CCC0EE1
:101A8000DD1ED6019C91892B8AB985B1F701908121
:101A9000892B85B988B1D8019C91892B88B98BB1E4
:101AA000F6019081892B8BB98AE090E00E94500C5E
:101AB00094B1D7018C918095892384B997B1F801AD
:101AC00080818095892387B99AB1D6018C918095C0
:101AD00089238AB995B1F70180818095892385B9D9
:101AE00098B1D8018C918095892388B99BB1F60172
:101AF0008081809589238BB9C090B000E090B100BF
:101B00008091B00083608093B00082E08093B10048
:101B10000091B20080E090E039C02091B200201B1B
:101B2000820F911D020FF3B0F91409F04DC096B069
:101B3000981409F049C029B1271509F045C024C0FF
:101B4000212F30E0A901440F551FF501E40FF51FC7
:101B5000608171816115710599F44C0F5D1FDA0187
:101B600091964D915C919297DA014C912C0F3D1F0B
:101B7000D90151962C915197422311F4918380837E
:101B80001F5F28851217E0F2892C9F2C2E853F8538
:101B90008217930710F2C092B000E092B10020E0EB
:101BA0000FC0E22FF0E0EE0FFF1FEA0DFB1D80815A
:101BB0009181009721F48E859F85918380832F5F8B
:101BC0008885281770F305C0F3B096B079B010E09F
:101BD000D8CFCDB7DEB7EDE00C943712EF92FF927D
:101BE0000F931F93CF93DF93FC019B0100917C0027
:101BF00010917A00E7B0F8B080917A0086FDFCCFB2
:101C000080E00AC0A82FB0E0AA0FBB1FA20FB31F2D
:101C100011961C921E928F5F9085891798F397B149
:101C200082A18095892387B998B182A18095892363
:101C300088B987E880937A0070E029C0DF01A60F99
:101C4000B11D51968C915197806480937C00809156
:101C50007A00806480937A0080917A0086FDFCCFC0
:101C6000A62FB0E0AA0FBB1FA20FB31F40917800B0
:101C7000509179008D919C911197840F951F119629
:101C80009C938E936F5F80856817C0F27F5F81A100
:101C9000781710F460E0F7CF40E014C0C42FD0E014
:101CA000CC0FDD1FC20FD31F61A170E0CB01959552
:101CB0008795A881B9818A0F9B1F0E949311798310
:101CC00068834F5F8085481748F300937C0010932A
:101CD0007A00F8B8E7B8CDB7DEB7E6E00C943E126C
:101CE000A0E2B0E0E6E7FEE00C9421128C017B015B
:101CF000D42E842F8150823018F4C8010E949A0C8F
:101D0000D80150968C915097882389F4C801B70167
:101D10000E94070DC8010E94850CBD2DB230D9F577
:101D2000C801BE016F5F7F4F0E94070D10C0C80140
:101D3000B7010E94EE0DC8010E94850CED2DE23026
:101D400051F5C801BE016F5F7F4F0E94EE0D60E04C
:101D5000AE014F5F5F4F1BC0862F90E0880F991F29
:101D6000F701E80FF91F840F951FD8011E962D91DA
:101D70003C911F97DC018D919C911197281B390B89
:101D800080819181820F931F918380836F5FF8011F
:101D90008085681708F3A096E7E00C943D128F92B7
:101DA0009F92AF92BF92CF92DF92FF920F931F93B9
:101DB000CF93DF93EC01C62E072FF42E423011F0A3
:101DC000FF2051F48C819D81009709F4A0C08E8181
:101DD0009F81009709F49BC08F2D8150823050F471
:101DE00088819981009709F492C08A819B8100972C
:101DF00009F48DC0CE016C2D702F4F2D0E94700EF6
:101E0000AC2CB02E00E010E0882499247AC08F2DED
:101E1000813059F4EA81FB81E00FF11FC080D1804D
:101E2000E881F981E00FF11F0DC08C819D81FF20B9
:101E300061F4EE81FF81E00FF11FC080D180800F3F
:101E4000911FFC01408151812BC0800F911FFC012B
:101E500080819181E881F981E00FF11F40815181FA
:101E6000CE84DF848417950710F4A60104C04C0DBE
:101E70005D1D481B590BEE81FF81E00FF11F808132
:101E80009181EA81FB81E00FF11F20813181CE84B5
:101E9000DF848217930720F0C20ED31EC81AD90A16
:101EA000C41AD50AD1F0F5016081718180E090E01B
:101EB0009A0140E050E0621B730B840B950B28EEF7
:101EC00033E040E050E00E947711960140E050E09E
:101ED0000E94DD1137FD0AC002C020E030E0F3E0CF
:101EE000293E3F072CF028EE33E002C020E030E02E
:101EF000F501219331935F010894811C911C0E5FC1
:101F00001F4F888590E0881699060CF480CFDF91EA
:101F1000CF911F910F91FF90DF90CF90BF90AF9026
:101F20009F908F900895A5E0B0E0E9E9FFE00C9460
:101F300016124C01C62EE72E2D830E94CF0ED4011F
:101F400018964C901897DE2C642D70E080E090E09D
:101F500028EE33E040E050E00E94771169837A83F5
:101F60008B839C83EE24FF248701662477248824B6
:101F700099245401552436C0F6013081218142E074
:101F8000242E312CC20CD31CC901492F582F1A0101
:101F90002D81222329F088EE93E0821993091C01F8
:101FA00099EC291631042CF4A3E32A16310494F099
:101FB00002C055245394B101882777FD8095982F4E
:101FC000A80197010E947711860E971EA81EB91EC0
:101FD000620C731C88EE93E0A0E0B0E0E80EF91EFE
:101FE0000A1F1B1F89819A81AB81BC81E816F90603
:101FF0000A071B0709F65520F1F4552408944108F7
:10200000510824EF31E0429EC001439E900D529E44
:10201000900D11242091BF013091C001281739077C
:10202000B4F088EE93E0489E9001499E300D589E92
:10203000300D11240EC0930140E050E0C501B40101
:102040000E94BB112093BF013093C00102C020E069
:1020500030E0C9012596E2E10C943212A7E6B0E027
:10206000E4E3F0E10C9416128C014B016A01A69690
:102070002FAFA697DA018D919C9111970097E9F403
:10208000F801808590E0880F991F0E945312D601B5
:1020900011969C938E93009709F4E2C0FC0180E0B6
:1020A00090E003C0119211920196D80118962C91DC
:1020B000189730E082179307ACF3F4018081918187
:1020C000009789F0EE24FF245E010894A11CB11C46
:1020D000B1E46B2E712C6C0E7D1EA1E24A2E512CA8
:1020E0004C0E5D1E23C0D80118968C9190E0880F8D
:1020F000991F0E945312F40191838083009709F481
:10210000AFC0FC0180E090E0D80107C01E962D9181
:102110003C911F9721933193019618962C91189713
:1021200030E08217930794F38D01CCCFC801B5013D
:10213000A6964FADA6970E94700ED80118968C9166
:102140001897E82FF0E0A596FFAFEEAFA597130123
:10215000F501A3965FAE4EAEA397930140E050E029
:10216000A8965FAE4EAEA89737C0E114F10461F0B7
:10217000A896AEADBFADA8976D917C911197808167
:1021800091816817790760F480819181A896AEAD3E
:10219000BFADA89711969C938E93E114F10449F07A
:1021A000D9016D917C911197808191818617970754
:1021B00028F480819181D9018D939C934F5F5F4F6B
:1021C0002E5F3F4F3296A8968EAD9FADA897029690
:1021D000A8969FAF8EAFA897A596AEADBFADA597B9
:1021E0004A175B0714F20894E11CF11CBAE0EB16E5
:1021F000F10409F09BCF80E090E02CC0F101419107
:1022000051911F01BC01660F771FD601ED91FC9122
:102210001197E60FF71F208131812417350710F43D
:1022200051834083A396EEADFFADA39741915191A9
:10223000A396FFAFEEAFA397D401ED91FC91119758
:10224000E60FF71F208131814217530710F45183A5
:1022500040830196F801208530E08217930774F2DD
:10226000C959DF4FE2E10C9432121F93CF93DF93F1
:10227000EC01162F862F8150823058F4AE014E5F4C
:102280005F4FCE01BE0121E00E942E10123019F0E6
:102290000CC0662351F4BE016C5F7F4FAE014A5FF4
:1022A0005F4FCE0120E00E942E10DF91CF911F9151
:1022B0000895CF93DF93EC018A819B81009711F001
:1022C0000E94EB128E819F81009711F00E94EB1209
:1022D00088819981009711F00E94EB128C819D8179
:1022E000009711F00E94EB12DF91CF910895DB016E
:1022F0008F939F930E940B12BF91AF91A29F800D6D
:10230000911DA39F900DB29F900D11240895991BCC
:1023100079E004C0991F961708F0961B881F7A95DC
:10232000C9F780950895AA1BBB1B51E107C0AA1FDE
:10233000BB1FA617B70710F0A61BB70B881F991F66
:102340005A95A9F780959095BC01CD01089597FB0A
:10235000072E16F4009407D077FD09D00E94931140
:1023600007FC05D03EF4909581959F4F0895709598
:1023700061957F4F0895A1E21A2EAA1BBB1BFD0198
:102380000DC0AA1FBB1FEE1FFF1FA217B307E40754
:10239000F50720F0A21BB30BE40BF50B661F771FAC
:1023A000881F991F1A9469F760957095809590958C
:1023B0009B01AC01BD01CF010895052E97FB1EF4D2
:1023C00000940E94F41157FD07D00E94BB1107FC36
:1023D00003D04EF40C94F41150954095309521950E
:1023E0003F4F4F4F5F4F0895909580957095619541
:1023F0007F4F8F4F9F4F0895A29FB001B39FC001A1
:10240000A39F700D811D1124911DB29F700D811D20
:102410001124911D08950E94FC11A59F900DB49F59
:10242000900DA49F800D911D112408952F923F922D
:102430004F925F926F927F928F929F92AF92BF92D4
:10244000CF92DF92EF92FF920F931F93CF93DF9380
:10245000CDB7DEB7CA1BDB0B0FB6F894DEBF0FBEDD
:10246000CDBF09942A88398848885F846E847D842A
:102470008C849B84AA84B984C884DF80EE80FD802C
:102480000C811B81AA81B981CE0FD11D0FB6F894A2
:10249000DEBF0FBECDBFED010895EE0FFF1F05900B
:1024A000F491E02D0994CF93DF938230910510F4DD
:1024B00082E090E0E0910802F091090220E030E033
:1024C000A0E0B0E0309739F14081518148175907B9
:1024D000B8F04817590771F482819381109729F059
:1024E00013969C938E9312972CC09093090280931D
:1024F000080227C02115310531F04217530718F0A3
:10250000A901DB0101C0EF019A01BD01DF010280D9
:10251000F381E02DD7CF21153105F9F0281B390BB8
:102520002430310580F48A819B816115710521F089
:10253000FB019383828304C0909309028093080275
:10254000FE01329644C0FE01E20FF31F8193919386
:1025500022503109398328833AC0209106023091F4
:102560000702232B41F420912B0130912C01309351
:102570000702209306022091290130912A0121159A
:10258000310541F42DB73EB740912D0150912E01F8
:10259000241B350BE0910602F0910702E217F307C6
:1025A000A0F42E1B3F0B2817390778F0AC014E5FC3
:1025B0005F4F2417350748F04E0F5F1F50930702F7
:1025C000409306028193919302C0E0E0F0E0CF01D6
:1025D000DF91CF910895CF93DF93009709F487C0DF
:1025E000FC01329713821282C0910802D091090235
:1025F000209781F420813181280F391F80910602B4
:10260000909107028217930779F5F0930702E09300
:1026100006026DC0DE0120E030E0AE17BF0750F4C7
:1026200012964D915C9113979D014115510509F149
:10263000DA01F3CFB383A28340815181840F951FC8
:102640008A179B0771F48D919C911197840F951FA8
:1026500002969183808312968D919C911397938318
:1026600082832115310529F4F0930902E0930802D1
:102670003EC0D9011396FC93EE9312974D915D9154
:10268000A40FB51FEA17FB0779F480819181840FAD
:10269000951F0296D90111969C938E938281938106
:1026A00013969C938E931297E0E0F0E08A819B81D1
:1026B000009719F0FE01EC01F9CFCE0102962881B6
:1026C0003981820F931F209106023091070228174B
:1026D000390769F4309729F4109209021092080220
:1026E00002C013821282D0930702C0930602DF91C8
:1026F000CF910895A8E1B0E042E050E00C94871338
:102700000E949513272F0C949613DC01CB01FC013A
:10271000F999FECF06C0F2BDE1BDF89A319600B43A
:102720000D9241505040B8F70895262FF999FECFE9
:102730001FBA92BD81BD20BD0FB6F894FA9AF99ADE
:102740000FBE0196089510E0C8E7D0E004C0FE0176
:102750000E944F122296CA37D107C9F7F894FFCFCB
:1027600001040400D007F4010F009C01B501CF0162
:10277000EA0107022602470269028E02B502DE0262
:102780000A0302080E0F10111200000A0220002096
:102790000000010203040506FF4E6F207475726E7F
:1027A00000455252002C00507265737320420000A5
:00000001FF
