S0170000465950202D204C696E65204D617A652E737265637C
S11300000C9444000C946C000C946C000C946C00E4
S11300100C946C000C946C000C946C000C946C00AC
S11300200C946C000C949A0F0C946C000C946C005F
S11300300C946C000C94BC0B0C946C000C946C0031
S11300400C946C000C946C000C946C000C946C007C
S11300500C946C000C946C000C946C000C946C006C
S11300600C946C000C946C00000000000000001F55
S11300701F1F1F1F1F1F3E6733323E3E6333320074
S1130080E8078510ED07861011241FBECFEFD8E0D6
S1130090DEBFCDBF11E0A0E0B1E0E6EDFFE202C0BB
S11300A005900D92A035B107D9F721E0A0E5B1E0A4
S11300B001C01D92A63DB207E1F710E0C4E8D0E00C
S11300C004C02297FE010E947B16C038D107C9F7ED
S11300D00E9472070C94DE170C940000FC018081CE
S11300E090E08330910514F08FEF9FEF8F5F90E0E5
S11300F08330910511F48FEF9FEF8F5F0895FC011A
S11301001282148213828FEF83871682158284876A
S11301101086178285871286118686878787118ABB
S1130120108A0895EF92FF920F931F93CF93DF935A
S11301307C01C0E0D0E0F701EC0FFD1F03811481C6
S11301400115110531F0C8010E949200C8010E94F6
S113015026172296C830D10571F7DF91CF911F91F0
S11301600F91FF90EF900895EF92FF920F931F93DA
S1130170CF93DF931F92CDB7DEB77C018B0185E06F
S113018090E049830E948E16FC01D7018D919C91C9
S11301901197118300839383828349814483ED9370
S11301A0FC930F90DF91CF911F910F91FF90EF90EF
S11301B00895CF93DF93FC01C081D181209711F47E
S11301C082E009C02A813B81FC0131832083CE0176
S11301D00E9426178C81DF91CF910895DC01ED9167
S11301E0FC91309719F480E090E00895808191812A
S11301F0089560E088E690E00E94DE0C61E089E604
S113020090E00E94DE0C62E08AE690E00E94DE0C40
S113021063E08BE690E00E94DE0C64E08CE690E004
S11302200E94DE0C65E08DE690E00E94DE0C66E044
S11302308EE690E00E94DE0C0C945E0DCF92DF926D
S1130240EF92FF920F931F93CF93DF93CDB7DEB757
S11302502A970FB6F894DEBF0FBECDBF7C018BE3A7
S113026091E00E94750D8701D12C8AE0C82E95E695
S1130270E92EF12CE1E3F1E0DE0111968C2D0190E1
S11302800D928A95E1F7F801819191918F01B7015F
S11302900E94CE1581E090E08C0F9D1F680F791F9E
S11302A0FB0180810E94E10CD394F5E0DF12E2CFE0
S11302B02A960FB6F894DEBF0FBECDBFDF91CF9163
S11302C01F910F91FF90EF90DF90CF900895FC0164
S11302D08081DB013C91918111962C91381714F4A3
S11302E0831B02C0381B832F291714F4921B02C0EE
S11302F0291B922F890F0895CF93DF93C0E0D0E09C
S11303000E9445108C0F9D1FFC0160817181CE01FC
S1130310805090400E94BB170E944A108C0F9D1F72
S1130320FC0160817181CE01865F9F4F0E94BB17E3
S11303302296CA30D10521F7DF91CF910895CF934A
S1130340DF9388EE93E00E94E20FCCEEDFEFC83239
S1130350D10528F068ED7FEF88E290E004C068E200
S113036070E088ED9FEF0E94FF0E81E00E9436103E
S113037084E190E00E94E20F2196CC33D10539F755
S113038060E070E080E090E00E94FF0EDF91CF918A
S11303900C947C010F931F93CF93DF9381E00E9411
S11303A03610C0E0D0E00E9445108C010C0F1D1FD8
S11303B0CE01805090400E94B517F801918380834C
S11303C00E944A108C010C0F1D1FCE01865F9F4FA7
S11303D00E94B517F801918380832296CA30D10513
S11303E011F7DF91CF911F910F91089580ED97E060
S11303F00E9481100E94F9000E94F9000E94CA0123
S113040086E790E00E941B0C1092CE011092D0015E
S11304101092CF011092D10182E08093CD0110920D
S1130420CB011092CC011092C4018CE38093C301E0
S1130430089560E070E080E090E00C94FF0ECF93AC
S1130440DF93CDB7DEB72A970FB6F894DEBF0FBEA1
S1130450CDBF813061F170F0823009F05DC068ED8C
S11304607FEF88E290E00E94FF0E8CEB92E00E9406
S1130470E20F34C068E270E088ED9FEF0E94FF0E47
S113048084E690E00E94E20F61E0CE0101960E94B2
S11304903C108D819E81843F9140B0F38091CD01C9
S11304A090E0009711F484E090E0815033C068ED4F
S11304B07FEF88E290E00E94FF0E84E690E00E94C5
S11304C0E20F61E0CE0101960E943C108D819E8175
S11304D0843F9140B0F38091CD0115C061E0CE011D
S11304E001960E943C108D819E81843F9140B0F31F
S11304F00E9419028091CD0190E08330910511F49E
S11305008FEF9FEF8F5F90E08330910511F48FEFB1
S11305109FEF8F5F8093CD010E9419022A960FB638
S1130520F894DEBF0FBECDBFDF91CF910895CF9376
S1130530C82F8091CD01282F30E0233031050CF0F5
S11305408FEF8F5F8C1302C081E011C0211531053C
S113055011F424E030E021502C1302C080E007C0E5
S11305608DEC91E00E946E008C1304C082E0CF9168
S11305700C941F02CF9108952F923F924F925F9255
S11305806F927F928F929F92AF92BF92CF92DF929F
S1130590EF92FF920F931F93CF93DF93CDB7DEB704
S11305A02A970FB6F894DEBF0FBECDBF0E941C1071
S11305B04B015C01C12CD12C7601212C312C60E142
S11305C0462E67E2562E612C712C61E0CE01019615
S11305D00E943C108C010C561740C801AA2797FDB5
S11305E0A095BA2FC80ED91EEA1EFB1EC701B6017C
S11305F0A30192010E941816B80162197309CB0174
S1130600880F991F860F971F97FD0196FC01F5959A
S1130610E795E20FF31FC80164E170E00E94E21560
S11306208091C301992787FD9095E60FF71F8E17D8
S11306309F070CF4FC0144275527481B590B9F01C5
S1130640E417F5070CF49A01BC0137FF03C0820FCD
S1130650931F02C0621B730B0E94FF0E8B819C814F
S11306608E359140E8F48D819E818E359140C0F4A1
S11306708F8198858E35914098F41092D001109214
S1130680CF011092D10168E270E088E290E00E940C
S1130690FF0E88E290E00E94E20F0E9419027FC0E0
S11306A089819A818F35914038F489859A858F356F
S11306B0914010F4180189CF68E270E088E290E07C
S11306C00E94FF0E82E390E00E94E20F61E0CE01FF
S11306D001960E943C1021E089819A81853F9140D6
S11306E008F420E02093D00121E089859A85853F94
S11306F0914008F420E02093CF0168E270E088E2A2
S113070090E00E94FF0E88EC90E00E94E20F0E94AD
S1130710190261E0CE0101960E943C1029813A81C0
S11307208B819C812F35314020F18F3521E0920758
S113073000F12D813E812F353140D8F02F8138854D
S11307402F353140B0F029853A852F35314088F076
S11307504AE064E670E084EC99E00E94120A81E0C9
S11307608093CE011092D0011092CF011092D1014A
S113077016C01092CE018F35914070F48D819E8108
S11307808F35914048F421E08F8198858F359140D1
S113079008F420E0822F01C081E08093D1010E94FF
S11307A01C10681979098A099B098B019C01025361
S11307B0110921093109013213402105310518F1CC
S11307C08B019C010355134021093109023C11405E
S11307D021053105D0F08B019C01055115402109FB
S11307E03109063212402105310588F0DC01CB01C4
S11307F08B539740A109B10982359340A105B105F6
S113080040F484E007C081E005C082E003C083E0D7
S113081001C080E02A960FB6F894DEBF0FBECDBFAC
S1130820DF91CF911F910F91FF90EF90DF90CF90C8
S1130830BF90AF909F908F907F906F905F904F90FC
S11308403F902F9008951092C4010E94BC02909191
S1130850C401980F9093C4012091CD01213099F0E7
S113086060F0223031F0233099F42091CB01281B21
S11308700DC02091CC01280F03C02091CC01281B6E
S11308802093CC0105C02091CB01280F2093CB01EC
S11308908091D0012091CF01882339F0211105C026
S11308A08091D10181110DC009C0222351F0811121
S11308B008C08091D101811104C081E00E941F020F
S11308C0C4CF892F0895CF93DF93EC012889398908
S11308D021153105B9F0FE0180E0438154814115B1
S11308E0510519F04217530729F08F5F329684306F
S11308F0A1F7F1CF0E9497020E9423040888D989A6
S1130900C02DE4CFDF91CF9108956F927F928F92A3
S11309109F92AF92BF92CF92DF92EF92FF920F938A
S11309201F93CF93DF93CDB7DEB7C25AD1090FB669
S1130930F894DEBF0FBECDBFFC01178664969FAF4F
S11309408EAF6497A12CBB24B3941B142CF464962F
S11309500EAD1FAD649702C000E010E0E090C70147
S1130960F090C801B701C8010E946701F8016784CB
S1130970680E9E012E5A3F4F4901712C7B148CF452
S1130980F401C190D1904F01B701C6010E946701E3
S1130990F6019785980F96150CF0680173948601FB
S11309A0EDCFF80190818181FE01EE5AFF4F60E0A6
S11309B06B155CF4A191B1912C91291304C011968B
S11309C02C91281711F06F5FF3CFE62FEE0FFF0B7A
S11309D022E530E02C0F3D1FE20FF31F7081A1814F
S11309E06B117AC0612C712C37E23A1564F0AA2D90
S11309F0AA0FBB0B41E050E04C0F5D1FA40FB51FC5
S1130A006D927C92A3946E147F04C1F4C701CE55F9
S1130A10DF4F0FB6F894DEBF0FBECDBFDF91CF918D
S1130A201F910F91FF90EF90DF90CF90BF90AF9008
S1130A309F908F907F906F900C946304B30120E09B
S1130A4030E0FB01A381B4811097D9F1CE01019666
S1130A5010E0FC0141915191CF01A417B50789F130
S1130A601F5F1A15B4F3CE018E5A9F4F10E01B1569
S1130A7054F4FC0141915191CF01A417B50709F435
S1130A8054C01F5FF4CF47E24B156CF08B2D880FD9
S1130A90990B42E550E04C0F5D1F840F951FFC013C
S1130AA0B183A083B39451967C926E925097C30104
S1130AB0820F931FFC018385F3019785890F1F968D
S1130AC08C932F5F3F4F6E5F7F4F2430310509F0C9
S1130AD0B8CFB1103ACF9ACF8B2D992787FD909537
S1130AE00197262F332727FD309528173907CCF493
S1130AF0F9013196EE0FFF1F42E550E04C0F5D1FE8
S1130B00E40FF51F40815181F901EE0FFF1F22E52B
S1130B1030E02C0F3D1FE20FF31F518340836F5FC2
S1130B20E0CFBA94672E7A2E5FCFC301820F931F52
S1130B30FC010385F3018785080FDC901196CC90A6
S1130B401197BB20D9F010E0812F992787FD90954C
S1130B501B1524F5AC01440F551FE2E5F0E0EC0F42
S1130B60FD1F4E0F5F1FFA0140815181FA019080F1
S1130B709D1012C041814C110FC010C040E050E0E4
S1130B80FA01878508170CF09CCF51967C926E92DF
S1130B9050971F960C9395CF1F5FD6CF880F991F40
S1130BA042E550E04C0F5D1F840F951FFC01D0807F
S1130BB081811B1519F34D2D582FE2CF4F925F926F
S1130BC06F927F928F929F92AF92BF92CF92DF9259
S1130BD0EF92FF920F931F93CF93DF93CDB7DEB7BE
S1130BE0C556D1090FB6F894DEBF0FBECDBF0E9423
S1130BF08F0F82E08093CD011092CB011092CC0133
S1130C000091C7011091C8010115110531F0C80107
S1130C100E949200C8010E94261782E190E00E947F
S1130C208E168C010E947F001093C8010093C701A7
S1130C308091CC019091CB01D8019C9311968C9317
S1130C4082E190E00E948E168C010E947F006091E8
S1130C50C7017091C801FB011087078381E082837B
S1130C607A83698342E089EC91E00E94B400A12C6C
S1130C70B12C882483948091C9019091CA01892B55
S1130C8011F58DEC91E00E946E000E94970286E7B8
S1130C9090E00E941B0CCB59DF4F0FB6F894DEBFD7
S1130CA00FBECDBFDF91CF911F910F91FF90EF90B9
S1130CB0DF90CF90BF90AF909F908F907F906F9078
S1130CC05F904F90089589EC91E00E94EE006C01D2
S1130CD0FC0103E0E02EF12CA185B285109721F0F0
S1130CE012968C91882341F081E0E81AF10832973A
S1130CF09FEFE916F90681F78091CE01882321F050
S1130D00D092C601C092C5011092CE01AFEFEA168F
S1130D10FA0689F489EC91E00E94D900A6968FAF77
S1130D20A697CE018B599F4F0E946E000E94970296
S1130D300E942304A0CF8E2D0E9497020E942304B8
S1130D40982E2091CB013091CC01FE01319680E0A8
S1130D5090E001911191D8014C914213BDC01196BC
S1130D604C914313B9C00115110509F06CC086E715
S1130D7090E00E941B0C82E190E00E948E168C0190
S1130D800E947F008091CC019091CB01F801908367
S1130D9081838091D0018823B1F082E190E00E94A8
S1130DA08E163C010E947F008091CD0190E0009757
S1130DB011F484E090E08150F801E80FF11DE80F90
S1130DC0F11D748263828091CF018823B9F082E19E
S1130DD090E00E948E163C010E947F008091CD011C
S1130DE090E08330910514F08FEF9FEF8F5FF8014F
S1130DF0E80FF11DE80FF11D748263828091D10127
S1130E00882381F082E190E00E948E163C010E94CA
S1130E107F008091CD01F801E80FF11DE80FF11D6D
S1130E2074826382D80112968C92BFEFAB1ABB0A0C
S1130E30F501EE0FFF1F81E090E08C0F9D1FE80F7E
S1130E40F91F118300832701440C551CF601E40D9E
S1130E50F51D638074806114710431F0C3010E9434
S1130E609200C3010E942617F601E40DF51D1483B8
S1130E700383F601EE0DFF1D93868DEC91E00E9435
S1130E806E00F801E80FF11DE80FF11DE380F48016
S1130E90E114F10431F0C7010E949200C7010E94DD
S1130EA026178DEC91E00E946E00F801E80FF11D09
S1130EB0E80FF11DD482C3828DEC91E00E946E0094
S1130EC0F801E80FF11D93864091CD01B80189EC3A
S1130ED091E00E94B400CFCE0196A816B9060CF09A
S1130EE038CF45CFCF93DF93CDB7DEB72A970FB670
S1130EF0F894DEBF0FBECDBF0E94F60114E60CE3EA
S1130F000E945E0D8BE391E00E94750D0E94E9083A
S1130F10BC0180E090E00E94D20D8DE391E00E943C
S1130F20750D84E190E00E94E20F82E00E94700F50
S1130F30882319F00E949F01E3CF80E10E94700F83
S1130F408823F1F00E94DE050E945E0D80E491E0AA
S1130F500E94750D61E080E00E94F50D86E491E049
S1130F600E94750D80E10E945C0F1093C301809173
S1130F70C5019091C6010E9485040093C301C0CFAE
S1130F8080E20E94700F882309F4BACF61E0CE0199
S1130F9001960E943C108C010E945E0D8BE391E04F
S1130FA00E94750DB80180E090E00E94D20D8BE3A1
S1130FB091E00E94750D61E080E00E94F50DCE0184
S1130FC001960E941E0184E690E00E94E20FDECFAB
S1130FD01092CA011092C90108958091C90190919B
S1130FE0CA01892B29F089EC91E00E94D900F5CF40
S1130FF00895882321F480917C008F7D03C0809123
S11310007C00806280937C00089580917C0090E055
S113101025E0959587952A95E1F78170089580914B
S11310207A0090E036E0959587953A95E1F78170DE
S113103008950E940508882321F02091790030E06A
S113104004C02091780030917900C901089580325C
S1131050B0F497E890937A0090917C00292F206453
S1131060662311F0906C02C0922F9F77907E982B8C
S113107090937C0080917A00806480937A00089534
S1131080A0E0B0E0E6E4F8E00C944C166B0160E0FC
S11310900E9427080E940F088823E1F7E601EE2446
S11310A0FF24870180917A00806480937A000E94F3
S11310B00F088823E1F70E941908A0E0B0E0E80EC9
S11310C0F91E0A1F1B1F219769F7C601969587957C
S11310D020E4C216D10440F48E0D9F1D6C2D70E0E7
S11310E00E94CE15CB010DC0BC0180E090E06E0DD6
S11310F07F1D801F911F960140E050E00E94F6156D
S1131100C901CDB7DEB7E8E00C946816A3E0B0E0FF
S1131110ECE8F8E00C945116BC0180E090E02091DA
S113112000013091010140E050E00E94B215182FF7
S113113069837A839B830E94050869817A819B81F4
S1131140882371F09B01412F592FCA01B9016158BD
S11311507F4F8F4F9F4F2FEF30E040E050E00DC0A6
S11311609B01412F592FCA01B90161507E4F8F4F06
S11311709F4F2FEF33E040E050E00E94F615C90185
S11311802396E3E00C946D160E9440080E948608A2
S113119008951F93CF93DF930E940508182F80E0D2
S11311A00E94F90786E06AE070E00E94C408EC013E
S11311B0812F0E94F9079E01220F331F2C0F3D1F20
S11311C02F5F3F4F36952795C901DF91CF911F912E
S11311D008950E94C908089590915501E091510124
S11311E0F0915201992311F0849101C08081282F3C
S11311F021542A3110F4805E0895803271F42091D4
S1131200510130915201A9014F5F5F4F5093520138
S1131210409351012115310509F70895EF92FF928A
S1131220CF93DF930E94EC08C0E0D0E01BC09E0186
S1131230220F331F93E0CC0FDD1F9A95E1F7C20F05
S1131240D31F992787FD9095C80FD91FE0978091E8
S11312505101909152010196909352018093510152
S11312600E94EC08982F90539A3008F3CE01DF9136
S1131270CF91FF90EF90089510926F0083E28093D6
S1131280800081E1809381001092820080E197E2E6
S1131290909389008093880010928B0010928A00AA
S11312A0229A7894089580915001882329F481E04A
S11312B0809350010E943C090895A0E0B0E0E3E669
S11312C0F9E00C9448168C015B01E42E0E9453094A
S11312D01092020117FF04C01F77AAE0FA2E02C081
S11312E0FF24F394C0908100DD2428EFC222DD2482
S11312F088EC3F2D389FC001112480179107D8F442
S1131300E80167E20131160710F0C0E1D7E2BE013F
S11313107695679580E090E06058794687469F4FC0
S11313209E0140E050E00E94F615890181E090E0C2
S1131330C82AD92A2CC098E2F99E902D112480E065
S1131340892EE4014E01982EE4018016910608F4DA
S1131350E801BE01769567959E0140E050E08F2D2F
S11313608A3039F480E090E0605E734481449F4F9A
S113137006C080E090E060537D4E8C4E9F4F0E94EB
S1131380F615890152E0852E912CC828D9282F2DD5
S11313902A3039F4CE0105966AE070E00E94CE1539
S11313A0EB0133E0C83ED30779F0BE0180E090E062
S11313B0950140E050E00E94B21528EE33E040E091
S11313C050E00E94181601C0950110926F00C0925F
S11313D08100109389000093880040918800509107
S11313E089006E2D603108F06FE080E190E0861B8B
S11313F09109BA0102C0769567958A95E2F77093D0
S11314008B0060938A00309358012093570186B370
S11314108FEF86BB81E080936F00CDB7DEB7ECE041
S11314200C9464160E945D0908959B018F3F11F08E
S1131430442329F488EE93E0B90140E049C08131A6
S113144030F0582F5051503618F05FE501C050E08D
S1131450852F6CE00E94C215A82FB0E0E4EFFFEFE7
S1131460AE9FB001AF9F700DBE9F700D1124650F2C
S1131470711D6C30710540F4FB01EE0FFF1FE45F3A
S1131480FE4F6081718102C060E070E0873081F0BE
S1131490082E02C0660F771F0A94E2F7823028F004
S11314A0CB0105966AE070E00CC0605070480BC038
S11314B0CB01B6E0880F991FBA95E1F7029665E073
S11314C070E00E94CE15403108F04FE0CB01B90125
S11314D00E945D090895A0E0B0E0E1E7FAE00C9411
S11314E04716B090030180915301882361F0609105
S11314F05401662341F08FEF70E040E00E94150A2A
S11315001092540134C1C0ECDDE5AA24A39414E084
S1131510712E00ED17E0B4E0EB2EF12CA4EFCA2EEF
S1131520A1E0DA2EFFE08F2E912C0E94EC0820918E
S11315305101309152012F5F3F4F3093520120935C
S113154051018636F1F18736CCF4823609F4AFC006
S113155083367CF48E3349F18F333CF4813209F4C1
S113156087C08C3309F09BC022C0813609F097C034
S11315709BC0843601F185360CF51BC08F3609F407
S113158047C0803744F48C3611F18D3661F18736CB
S113159009F085C019C0843709F444C0863709F4BA
S11315A060C0823709F07BC039C0B394BECFBA940F
S11315B0BCCFEE2435C0EE2482E07BC0EE2484E070
S11315C078C0EE2485E075C0EE2487E072C00E94E6
S11315D00E09BC01909305018093040180910601DA
S11315E09091070137C00E94EC088C3619F41092D0
S11315F0530104C0A09253011092540180915101EF
S113160090915201019690935201809351018DCF94
S11316100E940E09B82E8093030187CFEE24E39431
S113162080E047C00E940E09BC01CE010E94CE1585
S1131630CB01880F991F53E0660F771F5A95E1F786
S1131640860F971F90930701809306016091040110
S1131650709105010E94CE157093090160930801F1
S113166064CF0E940E0990930B0180930A015DCF11
S1131670709203011093070100930601F092050193
S1131680E0920401D0920901C092080190920B01EA
S113169080920A011092530144E0B42E46CF109276
S11316A052011092510163C0EE2489E002C0EE247D
S11316B08BE09CE0B99EB02C1124B80E0E94EC087B
S11316C08B3211F08332B9F480915101909152011F
S11316D001969093520180935101B394EFCF80917E
S11316E051019091520101969093520180935101BE
S11316F0BA940E94EC088D3291F3C0910801D09104
S113170009018153883058F4C0910601D091070132
S11317100E940E09BC01CE010E94CE15EB018E0180
S11317200BC0809151019091520101969093520106
S113173080935101C00FD11F169507950E94EC08A4
S11317408E3279F380915301882339F0CE01969536
S1131750879580935401C81BD109EE2011F0BB2456
S1131760BA948B2DBE0140910A010E94150ACDB78F
S1131770DEB7EDE00C9463161F920F920FB60F9232
S113178011242F933F934F935F936F937F938F9382
S11317909F93AF93BF93EF93FF93809157019091E1
S11317A058019C0121503040309358012093570137
S11317B0009711F510926F00789480918100887FD2
S11317C081608093810080E197E290938900809307
S11317D0880010928B0010928A0081E080930201AD
S11317E08091510190915201009731F080915601FE
S11317F0882311F40E946B0AFF91EF91BF91AF917E
S11318009F918F917F916F915F914F913F912F9114
S11318100F900FBE0F901F90189510926F00909329
S113182052018093510181E080935501109254013B
S11318300E946B0A08950E940D0C089581E090E0C7
S11318406F9364E06A95F1F76F910197C9F7089572
S11318500F931F93CF93DF931AB157985A98289AEE
S1131860C0E0D0E00E941E0C5C9A0E941E0C09B1DC
S11318705C980E941E0C5C9A0E941E0C5C9807FFE8
S113188011C024969E0140E050E080915D0190914A
S11318905E01A0915F01B0916001281739074A07E2
S11318A05B0700F31AB9DF91CF911F910F9108954F
S11318B065B190E0AC0141705070440F551F9C011C
S11318C02670307053E0220F331F5A95E1F7242B12
S11318D06D7C262B25B92BB18870907034E0880F6D
S11318E0991F3A95E1F72F77282B2BB95C9A0E9420
S11318F01E0C5C980E941E0C0895A2E0B0E0E3E880
S1131900FCE00C944D16182F4A8369830E94280D1D
S11319100E94280CF4B005B1DAB0EBB028986981C4
S11319204A81662311F05A9A01C05A9884B182639D
S113193084B9579A413029F0812F82958F700E9483
S1131940580C812F8F700E94580CDAB8EBB8F4B899
S113195005B92296E7E00C94691660E042E00E9423
S11319607D0C089561E042E00E947D0C0895EF92A1
S1131970FF921F93DF93CF930F92CDB7DEB7660F1D
S1131980660F660F482F592F7A0110E0812F860FBA
S1131990806469830E94AD0CF70184910E94B20CAB
S11319A01F5F0894E11CF11C6981183079F70F90CE
S11319B0CF91DF911F91FF90EF9008950E94B70C93
S11319C008950E94B20C089560E041E00E947D0CED
S11319D0089580E197E2A0E0B0E080935D019093E8
S11319E05E01A0935F01B0936001529A209A549AC9
S11319F08EE190E00E94E20F83E00E94E40C86E016
S1131A0090E00E94E20F83E00E94E40C82E090E008
S1131A100E94E20F83E00E94E40C82E090E00E94C6
S1131A20E20F82E00E94E40C82E090E00E94E20F68
S1131A3088E20E94AD0C88E00E94AD0C81E00E9417
S1131A40AD0C86E00E94AD0C8CE00E94AD0C0895B4
S1131A5080916101882329F481E0809361010E94CF
S1131A60E90C089581E00E94AD0C80915901909198
S1131A705A01009711F1A0E0B0E208C0E0915901C9
S1131A80F0915A01E20FF31FB083AF5F2A2F30E0C9
S1131A908091240190E001976091250170E0869F78
S1131AA0A001879F500D969F500D112424173507D0
S1131AB02CF310925C0110925B0108950E94320D88
S1131AC00895EF92FF92CF93DF93E82EE7017E0112
S1131AD0F92EE70102C00E94B20C89918823D9F73C
S1131AE0DF91CF91FF90EF9008950E94610D0895CA
S1131AF0AAE0B0E0EEE7FDE00C944A169B01AC01CD
S1131B001AE0EAE0CE2ED12CE12CF12C5E010894EF
S1131B10A11CB11C022FCA01B901A70196010E94A0
S1131B20F6151150F501E10FF11D005D922F990F8B
S1131B30892F880F880F890F081B00832115310511
S1131B404105510539F708C0F601E10FF11D808107
S1131B500E94B20C1F5F04C06E010894C11CD11C0A
S1131B601A3090F32A96EAE00C946616EF92FF92EC
S1131B700F931F937B018C0197FF0BC01095009569
S1131B80F094E094E11CF11C011D111D8DE20E94F2
S1131B90B20CC801B7010E94780D1F910F91FF90FC
S1131BA0EF9008950E94B60D0895A5E0B0E0EBED26
S1131BB0FDE00C945116182F80E8898380EC8A8309
S1131BC084E98B8384ED8C83FE01E60FF11D818112
S1131BD0810F6D830E94AD0C10935C016D81609345
S1131BE05B012596E3E00C946D160E94D50D0895D3
S1131BF0FC011182108213821282158214821682D1
S1131C00683068F489E290E0918380838BE290E00D
S1131C10938382838AE290E09583848311C06E303B
S1131C20C0F483E290E09183808385E290E0938323
S1131C30828384E290E09583848370E068507040EE
S1131C4081E090E002C0880F991F6A95E2F78683CD
S1131C5008956531B8F486E290E09183808388E248
S1131C6090E09383828387E290E09583848370E09D
S1131C706E50704081E090E002C0880F991F6A9511
S1131C80E2F786830895FC01A481B58186816623E9
S1131C9021F09C91982B9C9308959C918095892385
S1131CA08C930895FC016F3F31F4A281B3818C9130
S1131CB0968189270CC0A281B3818681662321F095
S1131CC09C91982B9C9308959C91809589238C9347
S1131CD00895A7E0B0E0EFE6FEE00C944F16282F3D
S1131CE0F62E8E010F5F1F4FC801622F0E94F80D60
S1131CF0C8016F2D0E94520EC80161E00E94430E7C
S1131D002796E5E00C946B16E0EBF0E083EF80831C
S1131D10808184BDE1EBF0E082E08083808185BD39
S1131D20E4EBF0E010828081E3EBF0E080838081DB
S1131D3088BD88B587BD86E060E00E94690E85E0B5
S1131D4060E00E94690E8BE060E00E94690E83E00F
S1131D5060E00E94690E089580916201882329F44D
S1131D6081E0809362010E94840E0895CF93DF93F3
S1131D70EC010E94AC0ED7FF05C0D095C195DF4F92
S1131D8081E001C080E0CF3FD10519F014F0CFEF1E
S1131D90D0E0882319F018BCC7BD02C0C8BD17BC69
S1131DA0DF91CF910895CF93DF93EC010E94AC0EA5
S1131DB0D7FF05C0D095C195DF4F81E001C080E019
S1131DC0CF3FD10519F014F0CFEFD0E0882329F0EC
S1131DD01092B400C093B30004C0C093B400109236
S1131DE0B300DF91CF910895CF93DF93EB010E946D
S1131DF0B60ECE010E94D30EDF91CF9108950E94BA
S1131E00F40E089584B18D7C84B985B1826385B95B
S1131E1085E090E06F9364E06A95F1F76F91019724
S1131E20C9F7089580916301882329F481E08093A0
S1131E3063010E94020F08951F93CF93DF93182F1D
S1131E400E94120FC12FD0E023B130E020953095CD
S1131E502C233D2321153105B9F38AE090E00E943B
S1131E60E20F23B130E0209530952C233D2321153A
S1131E70310551F383B180958123DF91CF911F9177
S1131E8008951F93182F0E94120F83B18123E9F341
S1131E908AE090E00E94E20F83B18123B1F383B121
S1131EA081231F9108951F930E941C0F182F0E94D5
S1131EB0410F812F1F9108950E94530F0895A1E0AF
S1131EC0B0E0E5E6FFE00C94521689830E94120FFD
S1131ED093B19095898189232196E2E00C946E1642
S1131EE00E945F0F0895A2E0B0E0E9E7FFE00C94E0
S1131EF052168091D2019091D3019E012F5F3F4FE2
S1131F00009719F4265D314002C0281B390B3A832F
S1131F10298389819A812296E2E00C946E160E94AC
S1131F20730F08956F9364E06A95F1F76F910197C9
S1131F30C9F708952F928F939F932FB680917101C3
S1131F40909172010196809371019093720190E0D7
S1131F5080917301891F80937301909179019C5F33
S1131F60909379018091780180519742C0F09093C9
S1131F7079018093780180917401909175010196A3
S1131F80809374019093750190E080917601891F8C
S1131F908093760180917701891F809377012FBE0A
S1131FA09F918F912F901895CF93DF93EC0105C0EB
S1131FB088EE93E00E94920F21972097C9F7DF9152
S1131FC0CF9108950E94D40F0895E0E7F0E0808156
S1131FD08E7F8083A0EBB0E08C9183608C93A1EB27
S1131FE0B0E08C91807F8C938C9182608C93B89AB2
S1131FF08081816080837894089580917A01882318
S113200029F481E080937A010E94E50F08950E94EB
S1132010FD0FE0E7F0E080818E7F808320917401E2
S113202030917501409176015091770180818160F2
S11320308083B901CA0108950E94071008950E947F
S1132040FD0FE0E7F0E080818E7F808310927401C1
S11320501092750110927601109277011092790115
S1132060109278018081816080830895682F8BE7C6
S113207091E00E94701508959C01462F8BE791E032
S1132080B90120E00E94CE13089580917B019091C4
S11320907C01089580917D0190917E0108950F93B4
S11320A0DF93CF9300D000D00F92CDB7DEB79C0161
S11320B0962FDE011196E6E2F1E085E001900D92A3
S11320C08150E1F7BE016F5F7F4F992329F08BE7C1
S11320D091E045E00FEF04C08BE791E045E003E1B8
S11320E00E94E9108BE791E00E94C0100E941F102B
S11320F00F900F900F900F900F90CF91DF910F9151
S1132100089560E00E944F10089508958BE791E0D0
S11321100E94941508956F9364E06A95F1F76F91A6
S11321200197C9F70895A7E0B0E0E9E9F0E10C945C
S113213050168C01FC0111821082138212821582C6
S1132140148217821682613118F080E1808702C000
S1132150FC016087F801208BCE010196642F0E9458
S1132160F80D8F81F80181878B819C819387828709
S11321708D819E81958784872796E4E00C946C1664
S1132180FC01A485B585109779F08C919185892BF4
S11321908C93A285B3859C918185809589238C93AA
S11321A088EC90E00E948B100895FC01A485B5850D
S11321B0109771F08C919185892B8C93A285B385AE
S11321C08C919185892B8C9388EC90E00E948B10E4
S11321D00895A7E0B0E0EFEEF0E10C9442167C0124
S11321E01B01642F3901402F20E00E9493109701B6
S11321F02F5B3F4FF9011082D701AE5BBF4F1C929A
S1132200C7018D5B9F4FFC011082F70177866686BC
S113221066242E010894411C511C6C015D01490186
S113222029C0062D10E0F101E00FF11FC201608109
S11322300E94F80D2F81F701E00FF11F218B898196
S11322409A81F801EE0FFF1FEE0DFF1D92A381A3EB
S11322508332910511F4F40109C08632910511F419
S1132260F50104C08932910521F4F6018081822BA5
S113227080836394F7018085681698F22796E2E1DB
S11322800C945E16A0E0B0E0E8E4F1E10C9447168B
S1132290EC015B01FC01EF5BFF4F9080FC01EE5B06
S11322A0FF4F8080FC01ED5BFF4F708080E009C030
S11322B0E82FF0E0EE0FFF1FEA0DFB1D11821082E4
S11322C08F5F98858917A0F384B121E4E22EF12C65
S11322D0EC0EFD1ED7019C91892B84B987B18E0128
S11322E00E5B1F4FF8019081892B87B98AB193E463
S11322F0C92ED12CCC0EDD1ED6019C91892B8AB916
S113230085B1F7019081892B85B988B1D8019C9159
S1132310892B88B98BB1F6019081892B8BB98AE01E
S113232090E00E948B1094B1D7018C918095892301
S113233084B997B1F80180818095892387B99AB1CE
S1132340D6018C91809589238AB995B1F701808152
S11323508095892385B998B1D8018C91809589237A
S113236088B99BB1F6018081809589238BB9C0908F
S1132370B000E090B1008091B00083608093B00021
S113238082E08093B1000091B20080E090E039C017
S11323902091B200201B820F911D020FF3B0F9149B
S11323A009F04DC096B0981409F049C029B1271519
S11323B009F045C024C0212F30E0A901440F551F66
S11323C0F501E40FF51F608171816115710599F4C0
S11323D04C0F5D1FDA0191964D915C919297DA0151
S11323E04C912C0F3D1FD90151962C9151974223AA
S11323F011F4918380831F5F28851217E0F2892CE2
S11324009F2C2E853F858217930710F2C092B0004F
S1132410E092B10020E00FC0E22FF0E0EE0FFF1FCA
S1132420EA0DFB1D80819181009721F48E859F85A3
S1132430918380832F5F8885281770F305C0F3B0DC
S113244096B079B010E0D8CFCDB7DEB7EDE00C94FC
S11324506316EF92FF920F931F93CF93DF93FC01C8
S11324609B0100917C0010917A00E7B0F8B0809154
S11324707A0086FDFCCF80E00AC0A82FB0E0AA0F46
S1132480BB1FA20FB31F11961C921E928F5F9085E3
S1132490891798F397B182A18095892387B998B158
S11324A082A18095892388B987E880937A0070E0B7
S11324B029C0DF01A60FB11D51968C9151978064FC
S11324C080937C0080917A00806480937A0080916C
S11324D07A0086FDFCCFA62FB0E0AA0FBB1FA20F87
S11324E0B31F40917800509179008D919C91119780
S11324F0840F951F11969C938E936F5F8085681748
S1132500C0F27F5F81A1781710F460E0F7CF40E05C
S113251014C0C42FD0E0CC0FDD1FC20FD31F61A1A4
S113252070E0CB0195958795A881B9818A0F9B1F8F
S11325300E94CE15798368834F5F8085481748F3DE
S113254000937C0010937A00F8B8E7B8CDB7DEB7F3
S1132550E6E00C946A16A0E2B0E0E1EBF2E10C9440
S11325604D168C017B01D42E842F8150823018F4B7
S1132570C8010E94D510D80150968C915097882399
S113258089F4C801B7010E944211C8010E94C01019
S1132590BD2DB230D9F5C801BE016F5F7F4F0E94D7
S11325A0421110C0C801B7010E942912C8010E943B
S11325B0C010ED2DE23051F5C801BE016F5F7F4FB1
S11325C00E94291260E0AE014F5F5F4F1BC0862F4F
S11325D090E0880F991FF701E80FF91F840F951FEA
S11325E0D8011E962D913C911F97DC018D919C91F1
S11325F01197281B390B80819181820F931F91833E
S113260080836F5FF8018085681708F3A096E7E080
S11326100C9469168F929F92AF92BF92CF92DF92E1
S1132620FF920F931F93CF93DF93EC01C62E072FD6
S1132630F42E423011F0FF2051F48C819D810097DB
S113264009F4A0C08E819F81009709F49BC08F2D4F
S11326508150823050F488819981009709F492C0A6
S11326608A819B81009709F48DC0CE016C2D702F57
S11326704F2D0E94AB12AC2CB02E00E010E0882449
S113268099247AC08F2D813059F4EA81FB81E00FBF
S1132690F11FC080D180E881F981E00FF11F0DC0E6
S11326A08C819D81FF2061F4EE81FF81E00FF11F99
S11326B0C080D180800F911FFC01408151812BC0CB
S11326C0800F911FFC0180819181E881F981E00FE5
S11326D0F11F40815181CE84DF848417950710F463
S11326E0A60104C04C0D5D1D481B590BEE81FF81F2
S11326F0E00FF11F80819181EA81FB81E00FF11FDE
S113270020813181CE84DF848217930720F0C20EAA
S1132710D31EC81AD90AC41AD50AD1F0F5016081AA
S1132720718180E090E09A0140E050E0621B730BFD
S1132730840B950B28EE33E040E050E00E94B21584
S1132740960140E050E00E94181637FD0AC002C00E
S113275020E030E0F3E0293E3F072CF028EE33E0A0
S113276002C020E030E0F501219331935F01089429
S1132770811C911C0E5F1F4F888590E08816990676
S11327800CF480CFDF91CF911F910F91FF90DF90D8
S1132790CF90BF90AF909F908F900895A5E0B0E048
S11327A0E4EDF3E10C9442164C01C62EE72E2D8382
S11327B00E940A13D40118964C901897DE2C642DAD
S11327C070E080E090E028EE33E040E050E00E94CA
S11327D0B21569837A838B839C83EE24FF2487015B
S11327E066247724882499245401552436C0F6019C
S11327F03081218142E0242E312CC20CD31CC9012A
S1132800492F582F1A012D81222329F088EE93E0B5
S1132810821993091C0199EC291631042CF4A3E3C1
S11328202A16310494F002C055245394B101882728
S113283077FD8095982FA80197010E94B215860E06
S1132840971EA81EB91E620C731C88EE93E0A0E0CC
S1132850B0E0E80EF91E0A1F1B1F89819A81AB8123
S1132860BC81E816F9060A071B0709F65520F1F49E
S1132870552408944108510824EF31E0429EC001D8
S1132880439E900D529E900D11242091BF013091D2
S1132890C00128173907B4F088EE93E0489E9001F0
S11328A0499E300D589E300D11240EC0930140E016
S11328B050E0C501B4010E94F6152093BF01309386
S11328C0C00102C020E030E0C9012596E2E10C9489
S11328D05E16A7E6B0E0EFE6F4E10C9442168C0134
S11328E04B016A01A6962FAFA697DA018D919C91B0
S11328F011970097E9F4F801808590E0880F991FFB
S11329000E948E16D60111969C938E93009709F41B
S1132910E2C0FC0180E090E003C0119211920196A4
S1132920D80118962C91189730E082179307ACF3CE
S1132930F40180819181009789F0EE24FF245E01E7
S11329400894A11CB11CB1E46B2E712C6C0E7D1E7D
S1132950A1E24A2E512C4C0E5D1E23C0D8011896BC
S11329608C9190E0880F991F0E948E16F401918338
S11329708083009709F4AFC0FC0180E090E0D801A7
S113298007C01E962D913C911F9721933193019678
S113299018962C91189730E08217930794F38D01C1
S11329A0CCCFC801B501A6964FADA6970E94AB1235
S11329B0D80118968C911897E82FF0E0A596FFAFF0
S11329C0EEAFA5971301F501A3965FAE4EAEA397A4
S11329D0930140E050E0A8965FAE4EAEA89737C092
S11329E0E114F10461F0A896AEADBFADA8976D9166
S11329F07C911197808191816817790760F48081B7
S1132A009181A896AEADBFADA89711969C938E9375
S1132A10E114F10449F0D9016D917C911197808101
S1132A2091818617970728F480819181D9018D932C
S1132A309C934F5F5F4F2E5F3F4F3296A8968EADAB
S1132A409FADA8970296A8969FAF8EAFA897A5961C
S1132A50AEADBFADA5974A175B0714F20894E11C0D
S1132A60F11CBAE0EB16F10409F09BCF80E090E092
S1132A702CC0F101419151911F01BC01660F771FD8
S1132A80D601ED91FC911197E60FF71F208131815A
S1132A902417350710F451834083A396EEADFFADA0
S1132AA0A39741915191A396FFAFEEAFA397D401A1
S1132AB0ED91FC911197E60FF71F208131814217A8
S1132AC0530710F4518340830196F801208530E0C8
S1132AD08217930774F2C959DF4FE2E10C945E1632
S1132AE01F93CF93DF93EC01162F862F81508230F2
S1132AF058F4AE014E5F5F4FCE01BE0121E00E944B
S1132B006914123019F00CC0662351F4BE016C5FD5
S1132B107F4FAE014A5F5F4FCE0120E00E946914EF
S1132B20DF91CF911F910895CF93DF93EC018A81B8
S1132B309B81009711F00E9426178E819F81009738
S1132B4011F00E94261788819981009711F00E9444
S1132B5026178C819D81009711F00E942617DF9122
S1132B60CF910895DB018F939F930E943716BF91F5
S1132B70AF91A29F800D911DA39F900DB29F900DC8
S1132B8011240895991B79E004C0991F961708F041
S1132B90961B881F7A95C9F780950895AA1BBB1BBD
S1132BA051E107C0AA1FBB1FA617B70710F0A61B49
S1132BB0B70B881F991F5A95A9F780959095BC016A
S1132BC0CD01089597FB072E16F4009407D077FDE6
S1132BD009D00E94CE1507FC05D03EF4909581954E
S1132BE09F4F0895709561957F4F0895A1E21A2E25
S1132BF0AA1BBB1BFD010DC0AA1FBB1FEE1FFF1F9D
S1132C00A217B307E407F50720F0A21BB30BE40BEC
S1132C10F50B661F771F881F991F1A9469F7609533
S1132C207095809590959B01AC01BD01CF010895ED
S1132C30052E97FB1EF400940E942F1657FD07D013
S1132C400E94F61507FC03D04EF40C942F165095F1
S1132C504095309521953F4F4F4F5F4F0895909584
S1132C608095709561957F4F8F4F9F4F08950E9477
S1132C707F16A59F900DB49F900DA49F800D911D6C
S1132C80112408952F923F924F925F926F927F92F8
S1132C908F929F92AF92BF92CF92DF92EF92FF9268
S1132CA00F931F93CF93DF93CDB7DEB7CA1BDB0B14
S1132CB00FB6F894DEBF0FBECDBF09942A883988B9
S1132CC048885F846E847D848C849B84AA84B984C0
S1132CD0C884DF80EE80FD800C811B81AA81B981CC
S1132CE0CE0FD11D0FB6F894DEBF0FBECDBFED01E0
S1132CF00895EE0FFF1F0590F491E02D0994A29F13
S1132D00B001B39FC001A39F700D811D1124911DBB
S1132D10B29F700D811D1124911D0895CF93DF93EF
S1132D208230910510F482E090E0E091D401F091BA
S1132D30D50120E030E0A0E0B0E0309739F14081E7
S1132D40518148175907B8F04817590771F482811F
S1132D509381109729F013969C938E9312972CC00D
S1132D609093D5018093D40127C02115310531F00A
S1132D704217530718F0A901DB0101C0EF019A01C2
S1132D80BD01DF010280F381E02DD7CF211531058C
S1132D90F9F0281B390B2430310580F48A819B819A
S1132DA06115710521F0FB019383828304C0909324
S1132DB0D5018093D401FE01329644C0FE01E20F96
S1132DC0F31F8193919322503109398328833AC0A8
S1132DD02091D2013091D301232B41F420912D0174
S1132DE030912E013093D3012093D20120912B01F5
S1132DF030912C012115310541F42DB73EB7409196
S1132E002F0150913001241B350BE091D201F09138
S1132E10D301E217F307A0F42E1B3F0B2817390741
S1132E2078F0AC014E5F5F4F2417350748F04E0F22
S1132E305F1F5093D3014093D2018193919302C0B9
S1132E40E0E0F0E0CF01DF91CF910895CF93DF93DD
S1132E50009709F487C0FC01329713821282C09153
S1132E60D401D091D501209781F420813181280F9C
S1132E70391F8091D2019091D3018217930779F57C
S1132E80F093D301E093D2016DC0DE0120E030E085
S1132E90AE17BF0750F412964D915C9113979D01A4
S1132EA04115510509F1DA01F3CFB383A2834081BF
S1132EB05181840F951F8A179B0771F48D919C9102
S1132EC01197840F951F02969183808312968D919A
S1132ED09C911397938382832115310529F4F093F0
S1132EE0D501E093D4013EC0D9011396FC93EE932F
S1132EF012974D915D91A40FB51FEA17FB0779F462
S1132F0080819181840F951F0296D90111969C931B
S1132F108E938281938113969C938E931297E0E013
S1132F20F0E08A819B81009719F0FE01EC01F9CF52
S1132F30CE01029628813981820F931F2091D201FC
S1132F403091D3012817390769F4309729F4109286
S1132F50D5011092D40102C013821282D093D301FE
S1132F60C093D201DF91CF910895A8E1B0E042E08F
S1132F7050E00C94C2170E94D017272F0C94D1173D
S1132F80DC01CB01FC01F999FECF06C0F2BDE1BD25
S1132F90F89A319600B40D9241505040B8F7089514
S1132FA0262FF999FECF1FBA92BD81BD20BD0FB661
S1132FB0F894FA9AF99A0FBE0196089510E0C4E8BD
S1132FC0D0E004C0FE010E947B162296C838D107C7
S1092FD0C9F7F894FFCFDD
S1132FD6881301040400D007F4010F009C01B50115
S1132FE6CF01EA0107022602470269028E02B502F0
S1132FF6DE020A0302080E0F1011120000D6012089
S113300600200000010203040506FF20006D76007F
S1133016204D617A6500206D617070656421000041
S9030000FC
