S0170000465950202D204C696E65204D617A652E737265637C
S11300000C9444000C946C000C946C000C946C00E4
S11300100C946C000C946C000C946C000C946C00AC
S11300200C946C000C94CE0C0C946C000C946C002E
S11300300C946C000C94F0080C946C000C946C0000
S11300400C946C000C946C000C946C000C946C007C
S11300500C946C000C946C000C946C000C946C006C
S11300600C946C000C946C00000000000000001F55
S11300701F1F1F1F1F1F3E6733323E3E6333320074
S11300801706B90D1C06BA0D11241FBECFEFD8E018
S1130090DEBFCDBF11E0A0E0B1E0E8E1FAE202C0CA
S11300A005900D92AC33B107D9F721E0ACE3B1E090
S11300B001C01D92AC3BB207E1F710E0C4E8D0E008
S11300C004C02297FE010E94AF13C038D107C9F7BC
S11300D00E94DC050C94FF140C940000FC01808148
S11300E090E08330910514F08FEF9FEF8F5F90E0E5
S11300F08330910511F48FEF9FEF8F5F0895FC011A
S11301001282148213821682158210861782128636
S113011011860895EF92FF920F931F93CF93DF936D
S11301207C01C0E0D0E0F701EC0FFD1F03811481D6
S11301300115110531F0C8010E948A00C8010E940E
S11301405A142296C830D10571F7DF91CF911F91CF
S11301500F91FF90EF900895EF92FF920F931F93EA
S1130160CF93DF931F92CDB7DEB77C018B0185E07F
S113017090E049830E94C213FC01D7018D919C91A8
S11301801197118300839383828349814483ED9380
S1130190FC930F90DF91CF911F910F91FF90EF90FF
S11301A00895CF93DF93FC01C081D181209711F48E
S11301B082E009C02A813B81FC0131832083CE0186
S11301C00E945A148C81DF91CF910895CF93DF93CD
S11301D0EC0188819981892B21F0CE010E94D10004
S11301E0F8CFDF91CF910895DC01ED91FC91309728
S11301F019F480E090E0089580819181089560E091
S113020088E690E00E94120A61E089E690E00E948C
S1130210120A62E08AE690E00E94120A63E08BE62A
S113022090E00E94120A64E08CE690E00E94120AB8
S113023065E08DE690E00E94120A66E08EE690E0AA
S11302400E94120A0C94920ACF92DF92EF92FF92CC
S11302500F931F93CF93DF93CDB7DEB72A970FB6D3
S1130260F894DEBF0FBECDBF8C01D12C8AE0C82E1E
S113027095E6E92EF12CEFE2F1E0DE0111968C2DEA
S113028001900D928A95E1F7F801819191918F0186
S1130290B7010E94021381E090E08C0F9D1F680F4C
S11302A0791FFB0180810E94150AD394F5E0DF12C7
S11302B0E2CF2A960FB6F894DEBF0FBECDBFDF9112
S11302C0CF911F910F91FF90EF90DF90CF90089501
S11302D0EF92FF920F931F93CF93DF9300D0CDB78C
S11302E0DEB70E94C30C8C010E94920A89E391E05C
S11302F00E94A90A0E94C30CB801681B790B8827C5
S113030077FD8095982F0E94060B61E080E00E94A3
S1130310290B1A8219828BE090E00E94C2137C019F
S11303200E947F0042E0B701CE0101960E94AC001A
S113033089E391E00E94A90A0E94C30CB801681BDA
S1130340790B882777FD8095982F0E94060BCE01A4
S113035001960E94E6000F900F90DF91CF911F91BC
S11303600F91FF90EF9008950F931F93CF93DF9316
S113037081E00E946A0DC0E0D0E00E94790D8C01FA
S11303800C0F1D1FCE01805090400E94E914F8010B
S1130390918380830E947E0D8C010C0F1D1FCE0162
S11303A0865F9F4F0E94E914F8019183808322960F
S11303B0CA30D10511F7DF91CF911F910F910895A4
S11303C080ED97E00E94B50D0E94FF000E94FF009F
S11303D00E94B40186E790E00E944F091092B40194
S11303E01092B6011092B5011092B70182E0809389
S11303F0B3011092B1011092B201089560E070E06F
S113040080E090E00C94330CCF93DF93CDB7DEB74C
S11304102A970FB6F894DEBF0FBECDBF813061F1CD
S113042070F0823009F05DC068ED7FEF88E290E003
S11304300E94330C8CEB92E00E94160D34C068E2EB
S113044070E088ED9FEF0E94330C88EC90E00E94EE
S1130450160D61E0CE0101960E94700D8D819E8182
S113046088359240B0F38091B30190E0009711F485
S113047084E090E0815033C068ED7FEF88E290E043
S11304800E94330C88EC90E00E94160D61E0CE01CE
S113049001960E94700D8D819E8188359240B0F343
S11304A08091B30115C061E0CE0101960E94700DE8
S11304B08D819E8188359240B0F30E94FE01809127
S11304C0B30190E08330910511F48FEF9FEF8F5FBC
S11304D090E08330910511F48FEF9FEF8F5F80934D
S11304E0B3010E94FE012A960FB6F894DEBF0FBE38
S11304F0CDBFDF91CF910895CF93C82F8091B301E1
S1130500282F30E0233031050CF08FEF8F5F8C13F0
S113051002C081E011C02115310511F424E030E05E
S113052021502C1302C080E007C083EB91E00E94AD
S11305306E008C1304C082E0CF910C940402CF911E
S113054008952F923F924F925F926F927F928F9273
S11305509F92AF92BF92CF92DF92EF92FF920F934E
S11305601F93CF93DF93CDB7DEB72A970FB6F894D6
S1130570DEBF0FBECDBF0E94500D4B015C01C12CEC
S1130580D12C7601212C312C60E1462E67E2562EC7
S1130590612C712C61E0CE0101960E94700D8C01DA
S11305A0005D1740C801AA2797FDA095BA2FC80E71
S11305B0D91EEA1EFB1EC701B601A30192010E94C7
S11305C04C13B80162197309CB01880F991F860F68
S11305D0971F97FD0196FC01F595E795E20FF31F30
S11305E0C80164E170E00E941613E60FF71FED33B3
S11305F0F10574F4E43C2FEFF2071CF0F7FD03C09F
S113060009C0E4ECFFEF6CE370E0CF01CC9608C0C6
S1130610ECE3F0E06CE370E06E1B7F0B8CE390E0A6
S11306200E94330C8B819C818E35914098F48D818E
S11306309E818E35914070F48F8198858E359140DE
S113064048F41092B6011092B5011092B7010E94BD
S1130650FE017FC089819A818F35914038F4898564
S11306609A858F35914010F4180194CF68E270E0B8
S113067088E290E00E94330C82E390E00E94160D21
S113068061E0CE0101960E94700D21E089819A817A
S1130690853F914008F420E02093B60121E089854C
S11306A09A85853F914008F420E02093B50168E2E3
S11306B070E088E290E00E94330C88EC90E00E94A5
S11306C0160D0E94FE0161E0CE0101960E94700D9C
S11306D029813A818B819C812F35314020F18F35DE
S11306E021E0920700F12D813E812F353140D8F071
S11306F02F8138852F353140B0F029853A852F3543
S1130700314088F04AE064E670E080ED97E00E94B2
S1130710460781E08093B4011092B6011092B501AE
S11307201092B70116C01092B4018F35914070F445
S11307308D819E818F35914048F421E08F81988589
S11307408F35914008F420E0822F01C081E080932E
S1130750B7010E94500D681979098A099B098B0118
S11307609C01025311092109310901321340210569
S1130770310518F18B019C010355134021093109FE
S1130780023C114021053105D0F08B019C0105513B
S1130790154021093109063212402105310588F03E
S11307A0DC01CB018B539740A109B10982359340F9
S11307B0A105B10540F484E007C081E005C082E0F2
S11307C003C083E001C080E02A960FB6F894DEBF30
S11307D00FBECDBFDF91CF911F910F91FF90EF908E
S11307E0DF90CF90BF90AF909F908F907F906F904D
S11307F05F904F903F902F9008950E94A102909196
S1130800B301913099F060F0923031F0933099F463
S11308109091B101981B0DC09091B201980F03C043
S11308209091B201981B9093B20105C09091B101CF
S1130830980F9093B1018091B6019091B5018823EE
S113084039F0911105C08091B70181110DC009C023
S1130850992351F0811108C08091B701811104C01E
S113086081E00E940402C9CF08956F927F928F9213
S11308709F92AF92BF92CF92DF92EF92FF920F932B
S11308801F93CF93DF93CDB7DEB7C556D1090FB60B
S1130890F894DEBF0FBECDBF0E94C30C6C0182E092
S11308A08093B3011092B1011092B2018BE090E0F9
S11308B00E94C2138C010E947F008091B20190912A
S11308C0B101D8019C9311968C938BE090E00E9427
S11308D0C2137C010E947F00F801F086E78281E068
S11308E082831A83098342E0B8018FEA91E00E946F
S11308F0AC00E12CF12C8091AF019091B001892BD7
S113090009F43EC18FEA91E00E94F4008C010E9438
S1130910920A89E391E00E94A90A0E94C30CBC01D7
S1130920882777FD8095982F0E94060B61E080E070
S11309300E94290B89E391E00E94A90A0E94C30C3A
S1130940B601681B790B882777FD8095982F0E9444
S1130950060B80E10E94900CF80173E0872E912C25
S1130960A185B285109721F012968C918823C9F045
S113097081E0881A910832979FEF8916990681F7CA
S11309808FEA91E00E94D100A6968FAFA697CE0180
S11309908B599F4F0E946E000E947C020E94FD03AF
S11309A0AACF882D0E947C020E94FD032091B101F0
S11309B03091B201FE01319680E090E0A190B190B7
S11309C0D5014C914213D6C011964C914313D2C019
S11309D0A114B10409F092C086E790E00E944F0987
S11309E08BE090E00E94C2135C010E947F000E9491
S11309F0920A89E391E00E94A90A0E94C30CBC01F7
S1130A00882777FD8095982F0E94060B61E080E08F
S1130A100E94290B89E391E00E94A90A0E94C30C59
S1130A20B601681B790B882777FD8095982F0E9463
S1130A30060B80E10E94900C8091B2019091B1016B
S1130A40F501908381838091B6018823B1F08BE016
S1130A5090E00E94C2133C010E947F008091B30188
S1130A6090E0009711F484E090E08150F501E80FE4
S1130A70F11DE80FF11D748263828091B501882312
S1130A80B9F08BE090E00E94C2133C010E947F0009
S1130A908091B30190E08330910514F08FEF9FEFC4
S1130AA08F5FF501E80FF11DE80FF11D7482638279
S1130AB08091B701882381F08BE090E00E94C213FB
S1130AC03C010E947F008091B301F501E80FF11D04
S1130AD0E80FF11D7482638281E0D50112968C9334
S1130AE0BFEFEB1AFB0AF701EE0FFF1F81E090E066
S1130AF08C0F9D1FE80FF91FB182A082880C991CEE
S1130B00F801E80DF91D638074806114710431F0FB
S1130B10C3010E948A00C3010E945A14F801E80D1F
S1130B20F91DB482A38283EB91E00E946E00F5016B
S1130B30E80FF11DE80FF11D838094808114910466
S1130B4031F0C4010E948A00C4010E945A1483EB4C
S1130B5091E00E946E00F501E80FF11DE80FF11D10
S1130B60148303834091B301B5018FEA91E00E949D
S1130B70AC00C1CE0196E816F9060CF01FCF2CCFBD
S1130B8083EB91E00E946E000E947C02CB59DF4F00
S1130B900FB6F894DEBF0FBECDBFDF91CF911F918A
S1130BA00F91FF90EF90DF90CF90BF90AF909F9008
S1130BB08F907F906F900895CF93DF93CDB7DEB77A
S1130BC02A970FB6F894DEBF0FBECDBF0E94E00196
S1130BD082E00E94A40C882319F00E946801F8CFD7
S1130BE080E10E94A40C882319F00E943504F0CF00
S1130BF080E20E94A40C882359F361E0CE0101969F
S1130C000E94700D8C010E94920AB80180E090E06D
S1130C100E94060B61E080E00E94290BCE01019640
S1130C200E94240184E690E00E94160DE6CF109203
S1130C30B0011092AF0108958FEA91E00C94E600A0
S1130C4090914101E0913D01F0913E01992311F011
S1130C50849101C08081282F21542A3110F4805EB0
S1130C600895803271F420913D0130913E01A90133
S1130C704F5F5F4F50933E0140933D012115310575
S1130C8009F70895EF92FF92CF93DF930E94200615
S1130C90C0E0D0E01BC09E01220F331F93E0CC0FB5
S1130CA0DD1F9A95E1F7C20FD31F992787FD909511
S1130CB0C80FD91FE09780913D0190913E010196A4
S1130CC090933E0180933D010E942006982F9053FB
S1130CD09A3008F3CE01DF91CF91FF90EF90089501
S1130CE010926F0083E28093800081E18093810001
S1130CF01092820080E197E29093890080938800AB
S1130D0010928B0010928A00229A78940895809110
S1130D103C01882329F481E080933C010E94700601
S1130D200895A0E0B0E0E7E9F6E00C947C138C01B0
S1130D305B01E42E0E9487061092000117FF04C095
S1130D401F77AAE0FA2E02C0FF24F394C09081001A
S1130D50DD2428EFC222DD2488EC3F2D389FC0011A
S1130D60112480179107D8F4E80167E201311607CE
S1130D7010F0C0E1D7E2BE017695679580E090E07F
S1130D806058794687469F4F9E0140E050E00E949C
S1130D902A13890181E090E0C82AD92A2CC098E25C
S1130DA0F99E902D112480E0892EE4014E01982EA5
S1130DB0E4018016910608F4E801BE017695679572
S1130DC09E0140E050E08F2D8A3039F480E090E0BD
S1130DD0605E734481449F4F06C080E090E060539E
S1130DE07D4E8C4E9F4F0E942A13890152E0852E1E
S1130DF0912CC828D9282F2D2A3039F4CE010596F4
S1130E006AE070E00E940213EB0133E0C83ED307AE
S1130E1079F0BE0180E090E0950140E050E00E944E
S1130E20E61228EE33E040E050E00E944C1301C08B
S1130E30950110926F00C092810010938900009375
S1130E40880040918800509189006E2D603108F02F
S1130E506FE080E190E0861B9109BA0102C07695AB
S1130E6067958A95E2F770938B0060938A003093BC
S1130E7044012093430186B38FEF86BB81E08093C6
S1130E806F00CDB7DEB7ECE00C9498130E94910686
S1130E9008959B018F3F11F0442329F488EE93E0D9
S1130EA0B90140E049C0813130F0582F50515036DB
S1130EB018F05FE501C050E0852F6CE00E94F61247
S1130EC0A82FB0E0E4EFFFEFAE9FB001AF9F700D2D
S1130ED0BE9F700D1124650F711D6C30710540F4B7
S1130EE0FB01EE0FFF1FE65FFE4F6081718102C0C0
S1130EF060E070E0873081F0082E02C0660F771F33
S1130F000A94E2F7823028F0CB0105966AE070E09B
S1130F100CC0605070480BC0CB01B6E0880F991F1D
S1130F20BA95E1F7029665E070E00E940213403141
S1130F3008F04FE0CB01B9010E9491060895A0E0AA
S1130F40B0E0E5EAF7E00C947B13B09001018091E6
S1130F503F01882361F060914001662341F08FEFE7
S1130F6070E040E00E9449071092400134C1C0EC97
S1130F70DDE5AA24A39414E0712E00ED17E0B4E09B
S1130F80EB2EF12CA4EFCA2EA1E0DA2EFFE08F2E77
S1130F90912C0E94200620913D0130913E012F5F4B
S1130FA03F4F30933E0120933D018636F1F1873661
S1130FB0CCF4823609F4AFC083367CF48E3349F125
S1130FC08F333CF4813209F487C08C3309F09BC021
S1130FD022C0813609F097C09BC0843601F1853662
S1130FE00CF51BC08F3609F447C0803744F48C36A7
S1130FF011F18D3661F1873609F085C019C0843747
S113100009F444C0863709F460C0823709F07BC014
S113101039C0B394BECFBA94BCCFEE2435C0EE240D
S113102082E07BC0EE2484E078C0EE2485E075C0C5
S1131030EE2487E072C00E944206BC019093030133
S113104080930201809104019091050137C00E94B0
S113105020068C3619F410923F0104C0A0923F017F
S11310601092400180913D0190913E010196909330
S11310703E0180933D018DCF0E944206B82E80939D
S1131080010187CFEE24E39480E047C00E9442062A
S1131090BC01CE010E940213CB01880F991F53E0BB
S11310A0660F771F5A95E1F7860F971F90930501F6
S11310B08093040160910201709103010E94021364
S11310C0709307016093060164CF0E9442069093D7
S11310D00901809308015DCF70920101109305010D
S11310E000930401F0920301E0920201D0920701FF
S11310F0C0920601909209018092080110923F016A
S113110044E0B42E46CF10923E0110923D0163C0DC
S1131110EE2489E002C0EE248BE09CE0B99EB02C62
S11311201124B80E0E9420068B3211F08332B9F4D8
S113113080913D0190913E01019690933E018093F0
S11311403D01B394EFCF80913D0190913E01019612
S113115090933E0180933D01BA940E9420068D3203
S113116091F3C0910601D09107018153883058F45E
S1131170C0910401D09105010E944206BC01CE0138
S11311800E940213EB018E010BC080913D019091EE
S11311903E01019690933E0180933D01C00FD11F03
S11311A0169507950E9420068E3279F380913F01AF
S11311B0882339F0CE019695879580934001C81B0A
S11311C0D109EE2011F0BB24BA948B2DBE014091BD
S11311D008010E944907CDB7DEB7EDE00C949713E0
S11311E01F920F920FB60F9211242F933F934F9398
S11311F05F936F937F938F939F93AF93BF93EF937B
S1131200FF9380914301909144019C01215030400F
S11312103093440120934301009711F510926F001D
S1131220789480918100887F81608093810080E13F
S113123097E2909389008093880010928B0010921B
S11312408A0081E08093000180913D0190913E01EC
S1131250009731F080914201882311F40E949F0786
S1131260FF91EF91BF91AF919F918F917F916F917A
S11312705F914F913F912F910F900FBE0F901F9050
S1131280189510926F0090933E0180933D0181E088
S113129080934101109240010E949F0708950E948B
S11312A04109089581E090E06F9364E06A95F1F755
S11312B06F910197C9F708950F931F93CF93DF930D
S11312C01AB157985A98289AC0E0D0E00E9452095F
S11312D05C9A0E94520909B15C980E9452095C9A76
S11312E00E9452095C9807FF11C024969E0140E0B9
S11312F050E08091490190914A01A0914B01B09135
S11313004C01281739074A075B0700F31AB9DF9124
S1131310CF911F910F91089565B190E0AC01417098
S11313205070440F551F9C012670307053E0220FFB
S1131330331F5A95E1F7242B6D7C262B25B92BB14D
S11313408870907034E0880F991F3A95E1F72F77F1
S1131350282B2BB95C9A0E9452095C980E9452096E
S11313600895A2E0B0E0E7EBF9E00C948113182FA4
S11313704A8369830E945C0A0E945C09F4B005B147
S1131380DAB0EBB0289869814A81662311F05A9A41
S113139001C05A9884B1826384B9579A413029F0C4
S11313A0812F82958F700E948C09812F8F700E94EB
S11313B08C09DAB8EBB8F4B805B92296E7E00C94D6
S11313C09D1360E042E00E94B109089561E042E0AB
S11313D00E94B1090895EF92FF921F93DF93CF9378
S11313E00F92CDB7DEB7660F660F660F482F592FE1
S11313F07A0110E0812F860F806469830E94E109DD
S1131400F70184910E94E6091F5F0894E11CF11C16
S11314106981183079F70F90CF91DF911F91FF9078
S1131420EF9008950E94EB0908950E94E60908953B
S113143060E041E00E94B109089580E197E2A0E0F4
S1131440B0E08093490190934A01A0934B01B0937B
S11314504C01529A209A549A8EE190E00E94160D03
S113146083E00E94180A86E090E00E94160D83E053
S11314700E94180A82E090E00E94160D83E00E9408
S1131480180A82E090E00E94160D82E00E94180A79
S113149082E090E00E94160D88E20E94E10988E053
S11314A00E94E10981E00E94E10986E00E94E109CD
S11314B08CE00E94E109089580914D01882329F46C
S11314C081E080934D010E941D0A089581E00E94ED
S11314D0E1098091450190914601009711F1A0E046
S11314E0B0E208C0E0914501F0914601E20FF31F1C
S11314F0B083AF5F2A2F30E08091220190E0019702
S11315006091230170E0869FA001879F500D969FF4
S1131510500D1124241735072CF310924801109212
S1131520470108950E94660A0895EF92FF92CF93AF
S1131530DF93E82EE7017E01F92EE70102C00E9445
S1131540E60989918823D9F7DF91CF91FF90EF9035
S113155008950E94950A0895AAE0B0E0E2EBFAE04B
S11315600C947E139B01AC011AE0EAE0CE2ED12C40
S1131570E12CF12C5E010894A11CB11C022FCA01BC
S1131580B901A70196010E942A131150F501E10F38
S1131590F11D005D922F990F892F880F880F890FF5
S11315A0081B0083211531054105510539F708C091
S11315B0F601E10FF11D80810E94E6091F5F04C05E
S11315C06E010894C11CD11C1A3090F32A96EAE0EB
S11315D00C949A13EF92FF920F931F937B018C014B
S11315E097FF0BC010950095F094E094E11CF11C5A
S11315F0011D111D8DE20E94E609C801B7010E9478
S1131600AC0A1F910F91FF90EF9008950E94EA0A8F
S11316100895A5E0B0E0EFE0FBE00C948513182FEB
S113162080E8898380EC8A8384E98B8384ED8C83CE
S1131630FE01E60FF11D8181810F6D830E94E10996
S1131640109348016D81609347012596E3E00C9463
S1131650A1130E94090B0895FC01118210821382C8
S11316601282158214821682683068F489E290E04E
S1131670918380838BE290E0938382838AE290E07B
S11316809583848311C06E30C0F483E290E091832B
S1131690808385E290E09383828384E290E0958363
S11316A0848370E06850704081E090E002C0880F4D
S11316B0991F6A95E2F7868308956531B8F486E246
S11316C090E09183808388E290E09383828387E231
S11316D090E09583848370E06E50704081E090E0E8
S11316E002C0880F991F6A95E2F786830895FC016A
S11316F0A481B5818681662321F09C91982B9C93CB
S113170008959C91809589238C930895FC016F3FE3
S113171031F4A281B3818C91968189270CC0A28176
S1131720B3818681662321F09C91982B9C93089524
S11317309C91809589238C930895A7E0B0E0E3EA17
S1131740FBE00C948313282FF62E8E010F5F1F4F9E
S1131750C801622F0E942C0BC8016F2D0E94860BBA
S1131760C80161E00E94770B2796E5E00C949F1373
S1131770E0EBF0E083EF8083808184BDE1EBF0E077
S113178082E08083808185BDE4EBF0E0108280817B
S1131790E3EBF0E08083808188BD88B587BD86E077
S11317A060E00E949D0B85E060E00E949D0B8BE051
S11317B060E00E949D0B83E060E00E949D0B089511
S11317C080914E01882329F481E080934E010E9488
S11317D0B80B0895CF93DF93EC010E94E00BD7FF81
S11317E005C0D095C195DF4F81E001C080E0CF3FB7
S11317F0D10519F014F0CFEFD0E0882319F018BC0C
S1131800C7BD02C0C8BD17BCDF91CF910895CF9367
S1131810DF93EC010E94E00BD7FF05C0D095C19582
S1131820DF4F81E001C080E0CF3FD10519F014F013
S1131830CFEFD0E0882329F01092B400C093B30016
S113184004C0C093B4001092B300DF91CF91089507
S1131850CF93DF93EB010E94EA0BCE010E94070CA9
S1131860DF91CF9108950E94280C089584B18D7C56
S113187084B985B1826385B985E090E06F9364E0B3
S11318806A95F1F76F910197C9F7089580914F0117
S1131890882329F481E080934F010E94360C089537
S11318A01F93CF93DF93182F0E94460CC12FD0E0D3
S11318B023B130E0209530952C233D2321153105AB
S11318C0B9F38AE090E00E94160D23B130E0209530
S11318D030952C233D232115310551F383B1809597
S11318E08123DF91CF911F9108951F93182F0E9498
S11318F0460C83B18123E9F38AE090E00E94160D3F
S113190083B18123B1F383B181231F9108951F9380
S11319100E94500C182F0E94750C812F1F9108955E
S11319200E94870C0895A1E0B0E0E9E9FCE00C9482
S1131930861389830E94460C93B1909589818923EB
S11319402196E2E00C94A2130E94930C0895A2E065
S1131950B0E0EDEAFCE00C9486138091B80190911C
S1131960B9019E012F5F3F4F009719F42C5B314062
S113197002C0281B390B3A83298389819A812296D4
S1131980E2E00C94A2130E94A70C08956F9364E004
S11319906A95F1F76F910197C9F708952F928F9384
S11319A09F932FB680915D0190915E010196809383
S11319B05D0190935E0190E080915F01891F8093A7
S11319C05F01909165019C5F909365018091640132
S11319D080519742C0F09093650180936401809197
S11319E0600190916101019680936001909361017F
S11319F090E080916201891F80936201809163016C
S1131A00891F809363012FBE9F918F912F9018950A
S1131A10CF93DF93EC0105C088EE93E00E94C60CDF
S1131A2021972097C9F7DF91CF9108950E94080D5F
S1131A300895E0E7F0E080818E7F8083A0EBB0E042
S1131A408C9183608C93A1EBB0E08C91807F8C931C
S1131A508C9182608C93B89A808181608083789421
S1131A60089580916601882329F481E080936601BA
S1131A700E94190D08950E94310DE0E7F0E0808185
S1131A808E7F8083209160013091610140916201D9
S1131A9050916301808181608083B901CA010895F6
S1131AA00E943B0D08950E94310DE0E7F0E0808133
S1131AB08E7F808310926001109261011092620106
S1131AC0109263011092650110926401808181601B
S1131AD080830895682F87E691E00E94A4120895F8
S1131AE09C01462F87E691E0B90120E00E94021193
S1131AF0089580916701909168010895809169012A
S1131B0090916A0108950F93DF93CF9300D000D092
S1131B100F92CDB7DEB79C01962FDE011196E4E259
S1131B20F1E085E001900D928150E1F7BE016F5F15
S1131B307F4F992329F087E691E045E00FEF04C039
S1131B4087E691E045E003E10E941D0E87E691E0FF
S1131B500E94F40D0E94530D0F900F900F900F9060
S1131B600F90CF91DF910F91089560E00E94830D53
S1131B700895089587E691E00E94C81208956F932E
S1131B8064E06A95F1F76F910197C9F70895A7E0AA
S1131B90B0E0EDECFDE00C9484138C01FC011182A7
S1131BA01082138212821582148217821682613186
S1131BB018F080E1808702C0FC016087F801208B67
S1131BC0CE010196642F0E942C0B8F81F80181872E
S1131BD08B819C81938782878D819E819587848761
S1131BE02796E4E00C94A013FC01A485B585109716
S1131BF079F08C919185892B8C93A285B3859C91E6
S1131C008185809589238C9388EC90E00E94BF0D98
S1131C100895FC01A485B585109771F08C91918588
S1131C20892B8C93A285B3858C919185892B8C9378
S1131C3088EC90E00E94BF0D0895A7E0B0E0E3E2D5
S1131C40FEE00C9476137C011B01642F3901402FB4
S1131C5020E00E94C70D97012F5B3F4FF9011082CE
S1131C60D701AE5BBF4F1C92C7018D5B9F4FFC0138
S1131C701082F7017786668666242E010894411C3B
S1131C80511C6C015D01490129C0062D10E0F101D0
S1131C90E00FF11FC20160810E942C0B2F81F7011C
S1131CA0E00FF11F218B89819A81F801EE0FFF1F4C
S1131CB0EE0DFF1D92A381A38332910511F4F4016B
S1131CC009C08632910511F4F50104C089329105E9
S1131CD021F4F6018081822B80836394F70180854F
S1131CE0681698F22796E2E10C949213A0E0B0E013
S1131CF0ECE7FEE00C947B13EC015B01FC01EF5B71
S1131D00FF4F9080FC01EE5BFF4F8080FC01ED5B98
S1131D10FF4F708080E009C0E82FF0E0EE0FFF1F56
S1131D20EA0DFB1D118210828F5F98858917A0F33D
S1131D3084B121E4E22EF12CEC0EFD1ED7019C911E
S1131D40892B84B987B18E010E5B1F4FF8019081F6
S1131D50892B87B98AB193E4C92ED12CCC0EDD1E10
S1131D60D6019C91892B8AB985B1F7019081892B81
S1131D7085B988B1D8019C91892B88B98BB1F601BA
S1131D809081892B8BB98AE090E00E94BF0D94B1B9
S1131D90D7018C918095892384B997B1F80180810A
S1131DA08095892387B99AB1D6018C91809589232E
S1131DB08AB995B1F70180818095892385B998B155
S1131DC0D8018C918095892388B99BB1F6018081D3
S1131DD0809589238BB9C090B000E090B1008091C8
S1131DE0B00083608093B00082E08093B1000091E2
S1131DF0B20080E090E039C02091B200201B820F35
S1131E00911D020FF3B0F91409F04DC096B0981467
S1131E1009F049C029B1271509F045C024C0212F74
S1131E2030E0A901440F551FF501E40FF51F60814F
S1131E3071816115710599F44C0F5D1FDA0191965A
S1131E404D915C919297DA014C912C0F3D1FD90171
S1131E5051962C915197422311F4918380831F5FF3
S1131E6028851217E0F2892C9F2C2E853F85821736
S1131E70930710F2C092B000E092B10020E00FC0CE
S1131E80E22FF0E0EE0FFF1FEA0DFB1D8081918130
S1131E90009721F48E859F85918380832F5F8885A9
S1131EA0281770F305C0F3B096B079B010E0D8CF1E
S1131EB0CDB7DEB7EDE00C949713EF92FF920F933A
S1131EC01F93CF93DF93FC019B0100917C00109141
S1131ED07A00E7B0F8B080917A0086FDFCCF80E00C
S1131EE00AC0A82FB0E0AA0FBB1FA20FB31F119600
S1131EF01C921E928F5F9085891798F397B182A1E7
S1131F008095892387B998B182A18095892388B95E
S1131F1087E880937A0070E029C0DF01A60FB11D25
S1131F2051968C915197806480937C0080917A00C3
S1131F30806480937A0080917A0086FDFCCFA62F7E
S1131F40B0E0AA0FBB1FA20FB31F409178005091BD
S1131F5079008D919C911197840F951F11969C93F4
S1131F608E936F5F80856817C0F27F5F81A17817B9
S1131F7010F460E0F7CF40E014C0C42FD0E0CC0FE1
S1131F80DD1FC20FD31F61A170E0CB01959587952A
S1131F90A881B9818A0F9B1F0E94021379836883E9
S1131FA04F5F8085481748F300937C0010937A00B4
S1131FB0F8B8E7B8CDB7DEB7E6E00C949E13A0E21C
S1131FC0B0E0E5EEFFE00C9481138C017B01D42E8C
S1131FD0842F8150823018F4C8010E94090ED80160
S1131FE050968C915097882389F4C801B7010E94B8
S1131FF0760EC8010E94F40DBD2DB230D9F5C8018A
S1132000BE016F5F7F4F0E94760E10C0C801B701FA
S11320100E945D0FC8010E94F40DED2DE23051F5D0
S1132020C801BE016F5F7F4F0E945D0F60E0AE018B
S11320304F5F5F4F1BC0862F90E0880F991FF701F9
S1132040E80FF91F840F951FD8011E962D913C911E
S11320501F97DC018D919C911197281B390B80816E
S11320609181820F931F918380836F5FF801808534
S1132070681708F3A096E7E00C949D138F929F9243
S1132080AF92BF92CF92DF92FF920F931F93CF93A1
S1132090DF93EC01C62E072FF42E423011F0FF20FF
S11320A051F48C819D81009709F4A0C08E819F8199
S11320B0009709F49BC08F2D8150823050F48881A1
S11320C09981009709F492C08A819B81009709F451
S11320D08DC0CE016C2D702F4F2D0E94DF0FAC2CC4
S11320E0B02E00E010E0882499247AC08F2D81302E
S11320F059F4EA81FB81E00FF11FC080D180E881AF
S1132100F981E00FF11F0DC08C819D81FF2061F4E6
S1132110EE81FF81E00FF11FC080D180800F911FFD
S1132120FC01408151812BC0800F911FFC018081F3
S11321309181E881F981E00FF11F40815181CE84C2
S1132140DF848417950710F4A60104C04C0D5D1DAF
S1132150481B590BEE81FF81E00FF11F80819181B3
S1132160EA81FB81E00FF11F20813181CE84DF847D
S11321708217930720F0C20ED31EC81AD90AC41AB4
S1132180D50AD1F0F5016081718180E090E09A0177
S113219040E050E0621B730B840B950B28EE33E098
S11321A040E050E00E94E612960140E050E00E94B8
S11321B04C1337FD0AC002C020E030E0F3E0293EB2
S11321C03F072CF028EE33E002C020E030E0F501B8
S11321D0219331935F010894811C911C0E5F1F4F62
S11321E0888590E0881699060CF480CFDF91CF9112
S11321F01F910F91FF90DF90CF90BF90AF909F9071
S11322008F900895A5E0B0E0E8E0F1E10C94761336
S11322104C01C62EE72E2D830E943E10D401189641
S11322204C901897DE2C642D70E080E090E028EE4E
S113223033E040E050E00E94E61269837A838B83A6
S11322409C83EE24FF248701662477248824992420
S11322505401552436C0F6013081218142E0242EF8
S1132260312CC20CD31CC901492F582F1A012D81BE
S1132270222329F088EE93E0821993091C0199EC3A
S1132280291631042CF4A3E32A16310494F002C075
S113229055245394B101882777FD8095982FA80180
S11322A097010E94E612860E971EA81EB91E620CA4
S11322B0731C88EE93E0A0E0B0E0E80EF91E0A1F5C
S11322C01B1F89819A81AB81BC81E816F9060A0734
S11322D01B0709F65520F1F45524089441085108C8
S11322E024EF31E0429EC001439E900D529E900D1A
S11322F011242091AB013091AC0128173907B4F0B7
S113230088EE93E0489E9001499E300D589E300D12
S113231011240EC0930140E050E0C501B4010E94B5
S11323202A132093AB013093AC0102C020E030E0CB
S1132330C9012596E2E10C949213A7E6B0E0E3EA22
S1132340F1E10C9476138C014B016A01A6962FAF30
S1132350A697DA018D919C9111970097E9F4F80101
S1132360808590E0880F991F0E94C213D6011196B0
S11323709C938E93009709F4E2C0FC0180E090E006
S113238003C0119211920196D80118962C911897B6
S113239030E082179307ACF3F401808191810097B8
S11323A089F0EE24FF245E010894A11CB11CB1E461
S11323B06B2E712C6C0E7D1EA1E24A2E512C4C0EFC
S11323C05D1E23C0D80118968C9190E0880F991F48
S11323D00E94C213F40191838083009709F4AFC073
S11323E0FC0180E090E0D80107C01E962D913C913D
S11323F01F9721933193019618962C91189730E0EA
S11324008217930794F38D01CCCFC801B501A6962A
S11324104FADA6970E94DF0FD80118968C9118979C
S1132420E82FF0E0A596FFAFEEAFA5971301F501F5
S1132430A3965FAE4EAEA397930140E050E0A896FA
S11324405FAE4EAEA89737C0E114F10461F0A896D0
S1132450AEADBFADA8976D917C91119780819181AC
S11324606817790760F480819181A896AEADBFADFD
S1132470A89711969C938E93E114F10449F0D90125
S11324806D917C911197808191818617970728F42B
S113249080819181D9018D939C934F5F5F4F2E5F13
S11324A03F4F3296A8968EAD9FADA8970296A896F8
S11324B09FAF8EAFA897A596AEADBFADA5974A17AF
S11324C05B0714F20894E11CF11CBAE0EB16F1046A
S11324D009F09BCF80E090E02CC0F1014191519133
S11324E01F01BC01660F771FD601ED91FC91119776
S11324F0E60FF71F208131812417350710F451832B
S11325004083A396EEADFFADA39741915191A3965D
S1132510FFAFEEAFA397D401ED91FC911197E60FB5
S1132520F71F208131814217530710F451834083F0
S11325300196F801208530E08217930774F2C95997
S1132540DF4FE2E10C9492131F93CF93DF93EC01DE
S1132550162F862F8150823058F4AE014E5F5F4FA4
S1132560CE01BE0121E00E949D11123019F00CC071
S1132570662351F4BE016C5F7F4FAE014A5F5F4F2B
S1132580CE0120E00E949D11DF91CF911F9108950B
S1132590CF93DF93EC018A819B81009711F00E9415
S11325A05A148E819F81009711F00E945A148881D9
S11325B09981009711F00E945A148C819D81009793
S11325C011F00E945A14DF91CF910895DB018F938B
S11325D09F930E946B13BF91AF91A29F800D911D99
S11325E0A39F900DB29F900D11240895991B79E03B
S11325F004C0991F961708F0961B881F7A95C9F78F
S113260080950895AA1BBB1B51E107C0AA1FBB1FDD
S1132610A617B70710F0A61BB70B881F991F5A956A
S1132620A9F780959095BC01CD01089597FB072EDD
S113263016F4009407D077FD09D00E94021307FC1A
S113264005D03EF4909581959F4F089570956195BE
S11326507F4F0895A1E21A2EAA1BBB1BFD010DC0DA
S1132660AA1FBB1FEE1FFF1FA217B307E407F5073E
S113267020F0A21BB30BE40BF50B661F771F881F1A
S1132680991F1A9469F760957095809590959B01B0
S1132690AC01BD01CF010895052E97FB1EF40094F3
S11326A00E94631357FD07D00E942A1307FC03D02E
S11326B04EF40C94631350954095309521953F4FFB
S11326C04F4F5F4F089590958095709561957F4F1A
S11326D08F4F9F4F08950E94B313A59F900DB49FF1
S11326E0900DA49F800D911D112408952F923F9267
S11326F04F925F926F927F928F929F92AF92BF920E
S1132700CF92DF92EF92FF920F931F93CF93DF93B9
S1132710CDB7DEB7CA1BDB0B0FB6F894DEBF0FBE16
S1132720CDBF09942A88398848885F846E847D8463
S11327308C849B84AA84B984C884DF80EE80FD8065
S11327400C811B81AA81B981CE0FD11D0FB6F894DB
S1132750DEBF0FBECDBFED010895EE0FFF1F059044
S1132760F491E02D0994A29FB001B39FC001A39FEF
S1132770700D811D1124911DB29F700D811D1124B6
S1132780911D0895CF93DF938230910510F482E078
S113279090E0E091BA01F091BB0120E030E0A0E0CC
S11327A0B0E0309739F14081518148175907B8F0AA
S11327B04817590771F482819381109729F0139671
S11327C09C938E9312972CC09093BB018093BA0173
S11327D027C02115310531F04217530718F0A9011C
S11327E0DB0101C0EF019A01BD01DF010280F38129
S11327F0E02DD7CF21153105F9F0281B390B2430F2
S1132800310580F48A819B816115710521F0FB01FA
S11328109383828304C09093BB018093BA01FE0129
S1132820329644C0FE01E20FF31F8193919322502C
S11328303109398328833AC02091B8013091B90114
S1132840232B41F420912B0130912C013093B901B9
S11328502093B8012091290130912A0121153105D5
S113286041F42DB73EB740912D0150912E01241B08
S1132870350BE091B801F091B901E217F307A0F428
S11328802E1B3F0B2817390778F0AC014E5F5F4FC2
S11328902417350748F04E0F5F1F5093B90140933A
S11328A0B8018193919302C0E0E0F0E0CF01DF91A1
S11328B0CF910895CF93DF93009709F487C0FC016B
S11328C0329713821282C091BA01D091BB01209732
S11328D081F420813181280F391F8091B8019091B2
S11328E0B9018217930779F5F093B901E093B80120
S11328F06DC0DE0120E030E0AE17BF0750F4129641
S11329004D915C9113979D014115510509F1DA012F
S1132910F3CFB383A28340815181840F951F8A171B
S11329209B0771F48D919C911197840F951F0296CA
S11329309183808312968D919C91139793838283C4
S11329402115310529F4F093BB01E093BA013EC08F
S1132950D9011396FC93EE9312974D915D91A40FB8
S1132960B51FEA17FB0779F480819181840F951FC5
S11329700296D90111969C938E938281938113962A
S11329809C938E931297E0E0F0E08A819B810097FC
S113299019F0FE01EC01F9CFCE01029628813981AC
S11329A0820F931F2091B8013091B901281739077C
S11329B069F4309729F41092BB011092BA0102C055
S11329C013821282D093B901C093B801DF91CF91E1
S11329D00895A8E1B0E042E050E00C94F114DC0169
S11329E0CB01FC01F999FECF06C0F2BDE1BDF89A16
S11329F0319600B40D9241505040B8F7089510E05C
S1132A00C4E8D0E004C0FE010E94AF132296C83887
S10B2A10D107C9F7F894FFCFC8
S1132A1801040400D007F4010F009C01B501CF01A3
S1132A28EA0107022602470269028E02B502DE02A3
S1132A380A0302080E0F1011120000BC0120002026
S10F2A480000010203040506FF2000004A
S9030000FC
